:040000000200313297
:01000B0032C2
:0100130032BA
:01001B0032B2
:0100230032AA
:03002B0002037E4F
:03008A0002002E43
:03002E00020E625D
:10008D00AF83E582900042F0EFA3F0900042E0FED6
:10009D00A3E0FF7C007D00C3EE9CEF64808DF063D8
:1000AD00F08095F040147A647B011ABAFF011BEAC7
:1000BD004B70F70CBC00E00D80DD22E58290004412
:1000CD00F0FFC4540FFE53060F74804EF5A08EA0A2
:1000DD00900001C00712008DD00753070F74804F99
:1000ED00F5A08FA090000202008D75A00090000178
:1000FD0012008D75A002D2A790000A12008DC2A722
:10010D0090000A12008D7582281200C8900001120D
:10011D00008D7582011200C890000112008D75824C
:10012D00801200C890000112008D75820E1200C859
:10013D0090000102008DE582900045F0FFC4540F40
:10014D00FE53060F74A04EF5A074204EF5A090003E
:10015D0001C00712008DD00753070F74A04FF5A0F3
:10016D0074204FF5A090000102008DAFF0AE83E535
:10017D0082900046F0EEA3F0EFA3F0900046E0FD74
:10018D00A3E0FEA3E0FF7B007C00900046E0F8A317
:10019D00E0F9A3E0FA888289838AF0C007C006C01F
:1001AD0005C004C0031212E9E5828583F0D003D0A7
:1001BD0004D005D006D00724FFF9E5F034FFFAC3CB
:1001CD00E99BEA9C4052BB101DBC001A7582C0C051
:1001DD0007C006C005C004C0031200C8D003D00478
:1001ED00D005D006D007EB2DF8EC3EF98F028882B2
:1001FD0089838AF01213C4F582C007C006C005C0FA
:10020D0004C003120143D003D004D005D006D0079B
:10021D000BBB00010C02019722AF83E582900049D0
:10022D00F0EFA3F0900049E0FEA3E0FF7C007D001D
:10023D00C3EC9EED9F501D758210C007C006C00512
:10024D00C0041200C8D004D005D006D0070CBC00E5
:10025D00DF0D80DC227582010200C87582C00200AC
:10026D00C8E58290004BF0FFC4540FFE24F65009F0
:10027D0090004D74372EF0800790004D74302EF0A5
:10028D0090004DE0F582C007120143D00753070FD0
:10029D00EF24F6500990004C74372FF08007900032
:1002AD004C74302FF090004CE0F582020143759BA9
:1002BD001C759AF37598507587002210990280FB72
:1002CD0022AFF0AE83E58290004EF0EEA3F0EFA3E7
:1002DD00F090004EE0FDA3E0FEA3E0FF7B007C006C
:1002ED0090004EE0F8A3E0F9A3E0FA888289838AB2
:1002FD00F0C007C006C005C004C0031212E9E582B4
:10030D008583F0D003D004D005D006D00724FFF9A3
:10031D00E5F034FFFAC3E99BEA9C4031EB2DF8EC94
:10032D003EF98F02888289838AF01213C4F599C031
:10033D0007C006C005C004C0031202C8D003D00414
:10034D00D005D006D0070BBB00960C809322E5821A
:10035D00900051F0F5990202C890148875F0801242
:10036D0002CE75820D02035B10980280FB85998287
:10037D0022C0E0C082C083C007C0D075D0003098C5
:10038D0011900052E599F0C298900052E0FFF5826D
:10039D00800D10990280057582008003758200D052
:1003AD00D0D007D083D082D0E03212026290148A6E
:1003BD0075F0801201787E007F00EE241EFCEF3474
:1003CD0000FDC007C006C005C004120375AB82D086
:1003DD0004D005D006D0078C828D83EBF00EBE00C5
:1003ED00010FC3EE9414EF940040CF1202629014EB
:1003FD009875F0801201781202689014A775F0803C
:10040D00020178E5C4235401FF60F822AF83E58231
:10041D00900053F0EFA3F0900053E0FEA3E0FF4EE9
:10042D00700775C3BE43C34022BE0109BF000675E8
:10043D00C3BA43C3402253C3BF22C29290000A12D3
:10044D00008D75C5A5120410E5C5D29222C29290F9
:10045D00000112008D75C501120410E5C5900064F0
:10046D0012008D75C50112041090003EE5C5F09087
:10047D00006412008D75C50112041090003DE5C594
:10048D00F090006412008D75C50112041090003CAF
:10049D00E5C5F0E5C5D29290003CE0FF7E009000EE
:1004AD003DE0FCE42FFFEC3EFE90003EE0FD7C00C5
:1004BD008C028D037C007D008F00EEF93395E0FEFC
:1004CD00FFED28FDEC39FCEB3EFBEA3F8D828C8382
:1004DD008BF0121186AC82AD83AEF0FF749AC0E042
:1004ED007499C0E0C0E0743EC0E08C828D838EF0C4
:1004FD00EF121301AC82AD83AEF0FFE58124FCF564
:10050D00818C828D838EF0EF021199AF82AE83AD17
:10051D00F0FC900055EFF0EEA3F0EDA3F0ECA3F09E
:10052D00900059E4F0E4A3F090005BE4F0E4A3F054
:10053D0090005DE4F0E4A3F090005FE4F0E4A3F03C
:10054D00900061E4F0E4A3F0900063E4F0E4A3F024
:10055D00900065E4F0E4A3F0900067E4F0E4A3F00C
:10056D00900069E4F0E4A3F090006BE4F0E4A3F0F4
:10057D007E007F00900055E0F50AA3E0F50BA3E0A7
:10058D00F50CA3E0F50DE50A450B450C450D700383
:10059D000206268E00EFC825E0C833F9E82459F588
:1005AD0008E93400F5099000B6740AF0E4A3F0E40C
:1005BD00A3F0E4A3F0850A82850B83850CF0E50D8D
:1005CD00C007C006120F37A882A983D006D00743F3
:1005DD000030850882850983E8F0E9A3F09000BF1B
:1005ED00740AF0E4A3F0E4A3F0E4A3F0850A828595
:1005FD000B83850CF0E50DC007C006121078AA829A
:10060D00AB83ACF0FDD006D007900055EAF0EBA31C
:10061D00F0ECA3F0EDA3F080198E04EFCC25E0CC27
:10062D0033FDEC2459F582ED3400F5837430F0E49C
:10063D00A3F00EBE00010FC3EE940AEF9400500319
:10064D000205817E007F008E057409C39D75F00241
:10065D00A42459F582740035F0F583E0FCA3E08CF9
:10066D0082C007C006120143D006D007EE4F700EB0
:10067D0075822EC007C006120143D006D0070EBEEC
:10068D0000010FC3EE9403EF940040BB9014B075BE
:10069D00F080020178AF82AE83ADF0FC90006DEF7B
:1006AD00F0EEA3F0EDA3F0ECA3F090006DE0FCA351
:1006BD00E0FDA3E0FEA3E0FF8C0E750F00751000AA
:1006CD007511008D008E018F027B00430070C37485
:1006DD008C9C740A9DE49EE49F5038C003C002C0F8
:1006ED0001C0001202629014B575F080120178D02D
:1006FD0000D001D002D00388078F8212026EAF0E98
:10070D008F8212026E1202689014BC75F080120175
:10071D007880FEC29088C5120410850EC512041093
:10072D00E5C5D29022AF83E582900071F0EFA3F082
:10073D00C29175C501120410900071E0FEA3E0FF97
:10074D004E700375C588BE0106BF000375C598BE02
:10075D000206BF000375C5A8BE0306BF000375C51D
:10076D00B8BE0406BF000375C5C8BE0506BF0003AD
:10077D0075C5D8BE0606BF000375C5E8BE0706BF22
:10078D00000375C5F8120410AFC57E0075C588C08D
:10079D0007C006120410D006D007ACC57D00EC2EA4
:1007AD00FEED3FFFD2915307038E828F83227E0091
:1007BD007F00BE132CBF0029EE2473FCEF3400FD27
:1007CD00EE2400F582EF3400F583E025E0FB900088
:1007DD0000E0235401FAEB42028C828D83EAF08013
:1007ED0031EE2473FCEF3400FDEE2400F582EF347E
:1007FD0000F583E025E0FB8E02EA042400F582E497
:10080D003400F583E0235401FAEB42028C828D8390
:10081D00EAF00EBE00010FC3EE9414EF9400409267
:10082D007E007F00EE2400FCEF3400FDEE2473F516
:10083D0082EF3400F583E0FB8C828D83F00EBE00D9
:10084D00010FC3EE9414EF940040D9227E007F0077
:10085D00BE132CBF0029EE2487FCEF3400FDEE24DF
:10086D0000F582EF3400F583E025E0FB900000E019
:10087D00235401FAEB42028C828D83EAF08031EE33
:10088D002487FCEF3400FDEE2400F582EF3400F5F3
:10089D0083E025E0FB8E02EA042400F582E43400B7
:1008AD00F583E0235401FAEB42028C828D83EAF04A
:1008BD000EBE00010FC3EE9414EF940040927E0023
:1008CD007F00EE2400FCEF3400FDEE2487F582EF6F
:1008DD003400F583E0FB8C828D83F00EBE00010F9A
:1008ED00C3EE9414EF940040D922AFF0AE83E582AD
:1008FD0090009BF0EEA3F0EFA3F0C20090009BE000
:10090D00FDA3E0FEA3E0FF7C0020004C7B00EB2D5F
:10091D00F8E43EF98F02888289838AF01213C4F8B5
:10092D00EB2400F582E43400F583E0FAE8B5020229
:10093D008015C007C006C005C0041207BBD004D087
:10094D0005D006D007800BBB0F02D2000BBB1000E9
:10095D0040BC0CBCA00040B1A20022120262901457
:10096D008A75F0801201787E007F00EE241EFCEF68
:10097D003400FDC007C006C005C004120375AB826C
:10098D00D004D005D006D0078C828D83EBF00EBE3F
:10099D0000010FC3EE9410EF940040CF120262904D
:1009AD0014CB75F0801201781202689014D575F091
:1009BD0080020178C29375C5C8120410D2939000BD
:1009CD009EE5C5F0E0F58222120443900001120469
:1009DD00197E007F00EE2400FCEF3400FDC007C03F
:1009ED0006C005C0041209C1AB82D004D005D006E3
:1009FD00D0078C828D83EBF00EBE00010FC3EE94F9
:100A0D0014EF940040CF120443900000020419909B
:100A1D00009FE580F0E0FF90009F740F5FF01202E1
:100A2D00629014DE75F08012017890009FE0FFF562
:100A3D0082C00712026E120268D007EF6011901487
:100A4D00EA75F0801201789007D012008D80099020
:100A5D0014F875F0801201789001F402008DD2B770
:100A6D00D284D285D286D287C2B5C2B6D294D2965E
:100A7D00D290D291D292D2B4D29390006412008DC2
:100A8D00020A1CD2B7D284D285D286D287D2939055
:100A9D00006412008DC2B722E5829000A0F0D286CC
:100AAD0090000A12008D9000A0E0F5C51204109080
:100ABD00000A12008DC2869000A0E5C5F0229000BC
:100ACD000A12008DC28590000A12008DD2852290E7
:100ADD00000A12008DC28490000A12008DD2842269
:100AED001204439000011204197E007F00EE241EB3
:100AFD00F582EF3400F583E0F582C007C006120AD7
:100B0D00A5D006D0070EBE00010FC3EE9410EF94D2
:100B1D000040DA120443900000020419E5829000AF
:100B2D00A1F0FFBF0204C2B5C2B6EF7004D2B5C2C8
:100B3D00B6BF0104D2B5D2B6BF0304C2B5D2B62238
:100B4D00C2B490000112008D75C58012041075C5D8
:100B5D000012041075C50012041075C500120410A2
:100B6D0090000112008DD2B490000A12008DC2B413
:100B7D0090000112008D75C50012041075C5031289
:100B8D00041075C5FF12041075C5041204109000F1
:100B9D000112008DD2B490000A12008DC2B49000E3
:100BAD000112008D75C52B12041075C500120410AD
:100BBD0075C50112041075C50E12041090000112B6
:100BCD00008DD2B490000A12008DC2B490000112B3
:100BDD00008D75C50012041075C50012041075C581
:100BED000112041075C50F12041090000112008D32
:100BFD00D2B490000A02008DC2B490000112008D93
:100C0D0075C58012041075C50012041075C500124B
:100C1D00041075C50012041090000112008DD2B49D
:100C2D0090000A12008DC2B490000112008D75C59E
:100C3D000012041075C50312041075C5FF120410BF
:100C4D0075C50412041090000112008DD2B49000ED
:100C5D000A12008DC2B490000112008D75C5681284
:100C6D00041075C50012041075C50012041075C569
:100C7D000E12041090000112008DD2B490000A02E1
:100C8D00008DAF83E5829000A7F0EFA3F09000A256
:100C9D00E0FDA3E0FEA3E0FF9000A5E0FBA3E0FCD8
:100CAD007A101AEA2DF512E43EF5138F149000A771
:100CBD00E0F8A3E0F98B158C169000CCE515F0E566
:100CCD0016A3F088828983C007C006C005C004C082
:100CDD0003C0021211EDA882A983D002D003D00463
:100CED00D005D006D007743028F88512828513837D
:100CFD008514F01211D2C374B988F063F08095F0A9
:100D0D00501B8512828513838514F01213C424079A
:100D1D00F98512828513838514F01211D29000A7E4
:100D2D00E0F8A3E0F99000B0E515F0E516A3F08822
:100D3D00828983C007C006C005C004C003C002126B
:100D4D000E9CE5828583F0D002D003D004D005D06F
:100D5D0006D0079000A7F0E5F0A3F09000A7E0F80B
:100D6D00A3E0F9486003020CAF7C008A038C020CEF
:100D7D00EA2DF512E43EF5138F148B020BEA2DF8D4
:100D8D00E43EF98F02888289838AF01213C4F885B4
:100D9D0012828513838514F01211D2BB100040CD41
:100DAD00EC2DFDE43EFE8D828E838FF0E40211D298
:100DBD00AF83E5829000AEF0EFA3F09000AEE0FEC1
:100DCD00A3E0FF30E7629000ACE0FCA3E0FDBC0ABD
:100DDD0057BD00549000A9E0F9A3E0FAA3E0FB8908
:100DED00828A838BF0742D1211D29000A97401297F
:100DFD00F0E43AA3F0EBA3F0C3E49EF517E49FF5FE
:100E0D00189000A9E0F8A3E0F9A3E0FB9000A2E898
:100E1D00F0E9A3F0EBA3F09000A5ECF0EDA3F085C5
:100E2D001782851883020C8F9000A9E0FBA3E0FCCC
:100E3D00A3E0FD9000ACE0F9A3E0FA9000A2EBF086
:100E4D00ECA3F0EDA3F09000A5E9F0EAA3F08E82FB
:100E5D008F83020C8F1200F790150975F080120127
:100E6D0078900000120419900000E4F5F01206A22B
:100E7D00120A6B12026290151975F08012017875C5
:0F0E8D008203120B2990000112008DC28780FE94
:101488000A00526571207465737420646174610088
:1014980074657374206461746120726561640063AB
:1014A8006F6D706C657465002047487A004552522C
:1014B8004F522100444143204F2F50207E20312E8F
:1014C80032560054657374206461746100726563F8
:1014D8006569766564005243207374617465203DC4
:1014E80020005265736574204661696C656421004B
:1014F8005265736574205375636365737366756CA1
:1015080000496E697469616C697A696E672E2E2E5E
:10151800004F6666736574207472696D2044555473
:02152800310090
:100E9C00AF83E5829000B2F0EFA3F09000B4E4F0E1
:100EAC00E4A3F09000B0E0FEA3E0FF7D109000B250
:100EBC00E0FBA3E0FC339201ECCB25E0CB33FC90C0
:100ECC0000B2EBF0ECA3F09000B4E0FBA3E0CB2578
:100EDC00E0CB33FC9000B4EBF0ECA3F030011290BB
:100EEC0000B4E0FBA3E0FC9000B474014BF0ECA365
:100EFC00F09000B4E0FBA3E0FCC3EB9EEC9F401D24
:100F0C009000B4EBC39EF0EC9FA3F09000B2E0FB1A
:100F1C00A3E0FC9000B274014BF0ECA3F0DD8E90DA
:100F2C0000B2E0FEA3E08E82F58322AF82AE83ADE9
:100F3C00F0FC9000BAEFF0EEA3F0EDA3F0ECA3F010
:100F4C009000BEE4F09000BAE0FCA3E0FDA3E0FE4C
:100F5C00A3E0FF7B009000B6E0F519A3E0F51AA31F
:100F6C00E0F51BA3E0F51C235401FA7074C003E5F3
:100F7C00192519F8E51A33F9E51B33FAE51C33FB8F
:100F8C009000B6E8F0E9A3F0EAA3F0EBA3F0900030
:100F9C00B6E0F519A3E0F51AA3E0F51BA3E0F51CE8
:100FAC00C3EC9519ED951AEE951BEF951CD00350DB
:100FBC0027E51CC313F51CE51B13F51BE51A13F5EC
:100FCC001AE51913F5199000B6F0E51AA3F0E51B14
:100FDC00A3F0E51CA3F080090B9000BEEBF0020F10
:100FEC00619000BEE0FF9000BAE0FBA3E0FCA3E040
:100FFC00FDA3E0FE9000B6E0F519A3E0F51AA3E01E
:10100C00F51BA3E0F51CC3EB9519EC951AED951B9C
:10101C00EE951C40179000BAEBC39519F0EC951A9D
:10102C00A3F0ED951BA3F0EE951CA3F09000B6E099
:10103C00FBA3E0FCA3E0FDA3E0C313FEED13FDEC6A
:10104C0013FCEB13FB9000B6F0ECA3F0EDA3F0EE69
:10105C00A3F08F061FEE708E9000BAE0FCA3E0FDAB
:10106C00A3E0FEA3E08C828D838EF022AF82AE8350
:10107C00ADF0FC9000C3EFF0EEA3F0EDA3F0ECA309
:10108C00F09000C7E4F0E4A3F0E4A3F0E4A3F09044
:10109C0000BFE0FCA3E0FDA3E0FEA3E0FF75192078
:1010AC009000C3E0F8A3E0F9A3E0FAA3E0FB3392CD
:1010BC0002E828F8E933F9EA33FAEB33FB9000C382
:1010CC00E8F0E9A3F0EAA3F0EBA3F09000C7E0F896
:1010DC00A3E0F9A3E0FAA3E0FBE828F8E933F9EA86
:1010EC0033FAEB33FB9000C7E8F0E9A3F0EAA3F086
:1010FC00EBA3F030021E9000C7E0F8A3E0F9A3E0E8
:10110C00FAA3E0FB9000C7740148F0E9A3F0EAA34E
:10111C00F0EBA3F09000C7E0F8A3E0F9A3E0FAA38A
:10112C00E0FBC3E89CE99DEA9EEB9F40319000C731
:10113C00E8C39CF0E99DA3F0EA9EA3F0EB9FA3F01B
:10114C009000C3E0F8A3E0F9A3E0FAA3E0FB900061
:10115C00C3740148F0E9A3F0EAA3F0EBA3F0D519AE
:10116C000280030210AC9000C3E0FCA3E0FDA3E0FE
:0A117C00FEA3E08C828D838EF0222A
:06006000E478FFF6D8FD74
:10003E007900E94400601B7A0090152A78D175A0EA
:10004E0000E493F2A308B8000205A0D9F4DAF27521
:02005E00A0FF01
:10118600FCABF0AA83A982749EC2D1F582121451D7
:1011960002129A7F9E1211C030D1030212BBC3EF16
:1011A6009582500974FFF5F0F583F58222790012D5
:1011B600140E89828A838BF0EC22AA82AB83A2F773
:1011C6003392D1F5826002D2F7ACF02220F71130CB
:1011D600F6138883A88220F509F6A8837583002272
:1011E60080FEF280F5F022AF83E5829000CEF0EF2C
:1011F600A3F09000D0E4F09000CEE0FEA3E0FF7DE7
:10120600009000CCE0FBA3E0FC235401FA7037EC1D
:10121600CB25E0CB33FC9000CCEBF0ECA3F09000B8
:10122600CCE0FBA3E0FCC3EE9BEF9C5011ECC31398
:10123600CB13CBFC9000CCEBF0ECA3F080080D9028
:1012460000D0EDF080BB9000D0E0FF9000CEE0FD36
:10125600A3E0FE9000CCE0FBA3E0FCC3ED9BEE9C7C
:10126600400B9000CEEDC39BF0EE9CA3F09000CC1B
:10127600E0FDA3E0C313CD13CDFE9000CCEDF0EE60
:10128600A3F08F061FEE70C39000CEE0FEA3E08EA3
:0412960082F5832238
:100066007800E84400600A790075A000E4F309D836
:10007600FC78D1E84400600C7901900000E4F0A31C
:04008600D8FCD9FACF
:10129A00B98003EA13B34010EA2401FAE43BFBE401
:1012AA003CFC50047C800582BC000EBB000BBA00DB
:1012BA0008E4F5F0F583F58222A2D1E582138CF0D9
:1012CA0092F78B838A8222E4F583F58275F080F4A3
:1012DA00A2D11322E4F583F58275F0C0747F22AAA5
:1012EA0082AB831213C46003A380F8C3E5829AF524
:1012FA0082E5839BF583221213E030D502B2D1BF77
:10130A000009BC00030212DE0212D1BC0003021261
:10131A00BBE583B4FF0BE582B4FF030212DE0212BF
:10132A00BBE582B4FF030212D1C395835007247F21
:10133A00400B0212BB24801450030212D1F582C35F
:10134A00ED9AEE9BEF9C40111582C3EA33F9EB3319
:10135A00FAEC33FBE433FC8005E4CCCBCAF9C08257
:10136A0075F019C3E99DEA9EEB9FEC9400D5F00253
:10137A00802D400EE99DF9EA9EFAEB9FFBEC940062
:10138A00FCC3B3E833F8E58233F582E58333F583AA
:10139A00C3E933F9EA33FAEB33FBEC33FC80C4B329
:1013AA00E4F938FAE43582FBE43583FCD082500450
:0A13BA0005827C801214510212B269
:0D003100758120121484E582600302002E08
:1013C40020F71430F6148883A88220F507E6A88352
:1013D40075830022E280F7E49322E022AA82AB83A1
:1013E400A2F73392D1F5826002D2F7ACF0E5812402
:1013F400F9F8E6FD08E6FE0886F008E6A2F733925F
:10140400D5F5836002D2F7AFF0226040F825825010
:101414000274FFF582E824F8501ECCCBCAF9E4CC60
:1014240024F85014CBCAF9E4CB24F8500BCAF9E4DD
:10143400CA24F8500379002224086010F8C3EC137E
:10144400FCEB13FBEA13FAE913F9D8F1227804EC64
:101454007011E58224F8500AF582E4C9CACBFCD89D
:10146400EF22EC7820058220E713D5820122C3E91C
:1014740033F9EA33FAEB33FBEC33FCD8EA15822276
:04148400758200224B
:00000001FF
