:040000000200313297
:01000B0032C2
:0100130032BA
:01001B0032B2
:0100230032AA
:03002B0002059833
:03008A0002002E43
:03002E000210803D
:10008D00AF83E582900005F0EFA3F0900000E0FD56
:10009D00A3E0FEA3E0FF900003E0FBA3E0FC7A10D9
:1000AD001AEA2DF508E43EF5098F0A900005E0F8EF
:1000BD00A3E0F98B0B8C0C9000D4E50BF0E50CA3B1
:1000CD00F088828983C007C006C005C004C003C084
:1000DD0002121422A882A983D002D003D004D00525
:1000ED00D006D007743028F8850882850983850AE3
:1000FD00F0121407C374B988F063F08095F0501BAB
:10010D00850882850983850AF01215F92407F9857A
:10011D000882850983850AF0121407900005E0F81E
:10012D00A3E0F99000B8E50BF0E50CA3F088828907
:10013D0083C007C006C005C004C003C0021210D1A1
:10014D00E5828583F0D002D003D004D005D006D04F
:10015D0007900005F0E5F0A3F0900005E0F8A3E0AE
:10016D00F94860030200AD7C008A038C020CEA2D75
:10017D00F508E43EF5098F0A8B020BEA2DF8E43EF3
:10018D00F98F02888289838AF01215F9F885088221
:10019D00850983850AF0121407BB100040CDEC2DA4
:1001AD00FDE43EFE8D828E838FF0E4021407AF8353
:1001BD00E58290000CF0EFA3F090000CE0FEA3E0C0
:1001CD00FF30E76290000AE0FCA3E0FDBC0A57BDDA
:1001DD000054900007E0F9A3E0FAA3E0FB89828ABE
:1001ED00838BF0742D121407900007740129F0E42D
:1001FD003AA3F0EBA3F0C3E49EF50DE49FF50E904A
:10020D000007E0F8A3E0F9A3E0FB900000E8F0E9B7
:10021D00A3F0EBA3F0900003ECF0EDA3F0850D82BD
:10022D00850E8302008D900007E0FBA3E0FCA3E0A8
:10023D00FD90000AE0F9A3E0FA900000EBF0ECA3CA
:10024D00F0EDA3F0900003E9F0EAA3F08E828F8326
:10025D0002008D7E1F7F001EBEFF011FEE4F70F747
:10026D0022AF83E582900050F0EFA3F0900050E0B4
:10027D00FEA3E0FF7C007D00C3EE9CEF64808DF05B
:10028D0063F08095F040147A647B011ABAFF011B6C
:10029D00EA4B70F70CBC00E00D80DD22E58290008A
:1002AD0052F0FFC4540FFE53060F74804EF5A08E0E
:1002BD00A0900001C00712026ED00753070F748083
:1002CD004FF5A08FA090000202026E75A000900065
:1002DD000112026E75A002D2A790000A12026EC220
:1002ED00A790000A12026E7582281202A9900001D1
:1002FD0012026E7582011202A990000112026E7532
:10030D0082801202A990000112026E75820E1202F5
:10031D00A990000102026EE582900053F0FFC454D3
:10032D000FFE53060F74A04EF5A074204EF5A0904D
:10033D000001C00712026ED00753070F74A04FF5CE
:10034D00A074204FF5A090000102026EAFF0AE83B5
:10035D00E582900054F0EEA3F0EFA3F0900054E08E
:10036D00FDA3E0FEA3E0FF7B007C00900054E0F8CD
:10037D00A3E0F9A3E0FA888289838AF0C007C0065A
:10038D00C005C004C00312151EE5828583F0D0039D
:10039D00D004D005D006D00724FFF9E5F034FFFADC
:1003AD00C3E99BEA9C4052BB101DBC001A7582C06C
:1003BD00C007C006C005C004C0031202A9D003D0F7
:1003CD0004D005D006D007EB2DF8EC3EF98F02884E
:1003DD008289838AF01215F9F582C007C006C0051F
:1003ED00C004C003120324D003D004D005D006D01E
:1003FD00070BBB00010C02037822AF83E58290004E
:10040D0057F0EFA3F0900057E0FEA3E0FF7C007DD6
:10041D0000C3EC9EED9F501D758210C007C006C035
:10042D0005C0041202A9D004D005D006D0070CBC1B
:10043D0000DF0D80DC227582010202A97582C002E7
:10044D0002A9E582900059F0FFC4540FFE24F65026
:10045D000990005B74372EF0800790005B74302E8E
:10046D00F090005BE0F582C007120324D00753071C
:10047D000FEF24F6500990005A74372FF080079033
:10048D00005A74302FF090005AE0F582020324AF29
:10049D0083E58290005CF0EFA3F090005CE0FEA39A
:1004AD00E0FF900007745EF07400A3F0E4A3F090F9
:1004BD00000A740AF0E4A3F08E828F831201BB90C0
:1004CD00005E75F000020359759B1C759AF37598C3
:1004DD00507587002210990280FB22AFF0AE83E5A4
:1004ED0082900060F0EEA3F0EFA3F0900060E0FDCD
:1004FD00A3E0FEA3E0FF7B007C00900060E0F8A38A
:10050D00E0F9A3E0FA888289838AF0C007C006C0AB
:10051D0005C004C00312151EE5828583F0D003D0FB
:10052D0004D005D006D00724FFF9E5F034FFFAC357
:10053D00E99BEA9C4031EB2DF8EC3EF98F02888265
:10054D0089838AF01215F9F599C007C006C005C058
:10055D0004C0031204E2D003D004D005D006D007A6
:10056D000BBB00960C809322E582900063F0F59909
:10057D000204E29016BD75F0801204E875820D023A
:10058D00057510980280FB85998222C0E0C082C05B
:10059D0083C007C0D075D000309811900064E599E4
:1005AD00F0C298900064E0FFF582800D10990280F2
:1005BD00057582008003758200D0D0D007D083D01E
:1005CD0082D0E0321204439016BF75F080120359A9
:1005DD007E007F00EE242CFCEF3400FDC007C0062A
:1005ED00C005C00412058FAB82D004D005D006D053
:1005FD00078C828D83EBF00EBE00010FC3EE9414B9
:10060D00EF940040CF1204439016CD75F080120385
:10061D00591204499016DC75F0800203597E007F53
:10062D0000EE240EF582EF3400F583E0F582C0076D
:10063D00C006120575D006D0070EBE00010FC3EE21
:10064D009414EF940040DA22AF83E582900065F0B8
:10065D00EFA3F0900065E0FEA3E0FF900007746744
:10066D00F07400A3F0E4A3F090000A740AF0E4A380
:10067D00F08E828F831201BB90006775F00002042B
:10068D00E8E5C4235401FF60F822AF83E5829000B2
:10069D0069F0EFA3F0900069E0FEA3E0FF4E700754
:1006AD0075C3BE43C34022BE0109BF000675C3BA60
:1006BD0043C3402253C3BF22C29290000A12026E5E
:1006CD0075C5A512068EE5C5D29222C29290000183
:1006DD0012026E75C50112068EE5C59000641202F8
:1006ED006E75C50112068E90004CE5C5F090006444
:1006FD0012026E75C50112068E90004BE5C5F09085
:10070D00006412026E75C50112068E90004AE5C591
:10071D00F0E5C5D29290004AE0FF7E0090004BE0DC
:10072D00FCE42FFFEC3EFE90004CE0FD7C008C02C3
:10073D008D037C007D008F00EEF93395E0FEFFED1B
:10074D0028FDEC39FCEB3EFBEA3F8D828C838BF070
:10075D001213BBAC82AD83AEF0FF749AC0E07499F6
:10076D00C0E0C0E0743EC0E08C828D838EF0EF124D
:10077D001536AC82AD83AEF0FFE58124FCF5818C9E
:10078D00828D838EF0EF0213CEAF82AE83ADF0FC7F
:10079D0090006BEFF0EEA3F0EDA3F0ECA3F0900062
:1007AD006FE4F0E4A3F0900071E4F0E4A3F09000A6
:1007BD0073E4F0E4A3F0900075E4F0E4A3F090008E
:1007CD0077E4F0E4A3F0900079E4F0E4A3F0900076
:1007DD007BE4F0E4A3F090007DE4F0E4A3F090005E
:1007ED007FE4F0E4A3F0900081E4F0E4A3F07E0058
:1007FD007F0090006BE0F511A3E0F512A3E0F51377
:10080D00A3E0F514E51145124513451470030208D4
:10081D00A48E00EFC825E0C833F9E8246FF50FE981
:10082D003400F5109000BE740AF0E4A3F0E4A3F0D8
:10083D00E4A3F08511828512838513F0E514C007BA
:10084D00C00612116CA882A983D006D007430030D0
:10085D00850F82851083E8F0E9A3F09000C7740A34
:10086D00F0E4A3F0E4A3F0E4A3F0851182851283F4
:10087D008513F0E514C007C0061212ADAA82AB8332
:10088D00ACF0FDD006D00790006BEAF0EBA3F0ECD6
:10089D00A3F0EDA3F080198E04EFCC25E0CC33FD51
:1008AD00EC246FF582ED3400F5837430F0E4A3F0A1
:1008BD000EBE00010FC3EE940AEF94005003020721
:1008CD00FF7E007F008E057409C39D75F002A42480
:1008DD006FF582740035F0F583E0FCA3E08C82C0E7
:1008ED0007C006120324D006D007EE4F700E758296
:1008FD002EC007C006120324D006D0070EBE00017D
:10090D000FC3EE9403EF940040BB9016E575F08095
:10091D00020359AF82AE83ADF0FC900083EFF0EE91
:10092D00A3F0EDA3F0ECA3F0900083E0FCA3E0FDB9
:10093D00A3E0FEA3E0FF8C15751600751700751862
:10094D00008D008E018F027B00747048F519891A95
:10095D008A1B8B1CC374729C740C9DE49EE49F5087
:10096D00281204439016EA75F080120359AB198BC7
:10097D008212044FA815888212044F120449901652
:10098D00F175F08012035980FEC3748C9C740A9D1E
:10099D00E49EE49F504312044390170075F08012BB
:1009AD000359A8198882C00012044FD000AF158FCB
:1009BD0082C007C00012044F12044990170875F049
:1009CD0080120359D000C29088C512068ED0078FB1
:1009DD00C512068EE5C5D29022C2908519C51206A4
:1009ED008E8515C512068EE5C5D29022AF83E582A0
:1009FD00900087F0EFA3F0C29175C50112068E909D
:100A0D000087E0FEA3E0FF4E700375C588BE0106AA
:100A1D00BF000375C598BE0206BF000375C5A8BE0D
:100A2D000306BF000375C5B8BE0406BF000375C538
:100A3D00C8BE0506BF000375C5D8BE0606BF0003B8
:100A4D0075C5E8BE0706BF000375C5F812068EAF63
:100A5D00C57E0075C588C007C00612068ED006D0AB
:100A6D0007ACC57D00EC2EFEED3FFFD29153070381
:100A7D008E828F83227E007F00BE132CBF0029EE55
:100A8D002489FCEF3400FDEE240EF582EF3400F5E1
:100A9D0083E025E0FB90000EE0235401FAEB4202C7
:100AAD008C828D83EAF08031EE2489FCEF3400FDD9
:100ABD00EE240EF582EF3400F583E025E0FB8E0287
:100ACD00EA04240EF582E43400F583E0235401FAA0
:100ADD00EB42028C828D83EAF00EBE00010FC3EE55
:100AED009414EF940040927E007F00EE240EFCEFF4
:100AFD003400FDEE2489F582EF3400F583E0FB8CA4
:100B0D00828D83F00EBE00010FC3EE9414EF94009E
:100B1D0040D9227E007F00BE132CBF0029EE249DFC
:100B2D00FCEF3400FDEE240EF582EF3400F583E08A
:100B3D0025E0FB90000EE0235401FAEB42028C827B
:100B4D008D83EAF08031EE249DFCEF3400FDEE2420
:100B5D000EF582EF3400F583E025E0FB8E02EA040A
:100B6D00240EF582E43400F583E0235401FAEB42C0
:100B7D00028C828D83EAF00EBE00010FC3EE941439
:100B8D00EF940040927E007F00EE240EFCEF3400C7
:100B9D00FDEE249DF582EF3400F583E0FB8C828D14
:100BAD0083F00EBE00010FC3EE9414EF940040D9F4
:100BBD0022C2017F0020013A7E00EE242CF582E452
:100BCD003400F583E0FDEE240EF582E43400F58368
:100BDD00E0FCEDB504028009C007120A82D007803F
:100BED000BBE0F02D2010EBE100040CE0FBFA000F3
:100BFD0040C3A20122C29375C5C812068ED293902E
:100C0D0000B1E5C5F0E0F582221206C19000011297
:100C1D000697D2947E007F00EE240EFCEF3400FD8B
:100C2D00C007C006C005C004120C02AB82D004D0B0
:100C3D0005D006D0078C828D83EBF00EBE00010F20
:100C4D00C3EE9414EF940040CF0206C1C29375C554
:100C5D00C812068ED2939000B2E5C5F0E0F582225F
:100C6D001206C1900001120697C2947E007F00EE1D
:100C7D00240EFCEF3400FDC007C006C005C00412F1
:100C8D000C59AB82D004D005D006D0078C828D8351
:100C9D00EBF00EBE00010FC3EE9414EF940040CFA5
:100CAD000206C19000B3E580F0E0FF9000B3740F31
:100CBD005FF012044390171775F0801203599000DE
:100CCD00B3E0FFF582C00712044F120449D007EFBD
:100CDD00600B90172375F08012035980099017311E
:100CED0075F0801203599001F402026E9000B4E584
:100CFD0080F0E0FF9000B4740F5FF0120443901782
:100D0D001775F0801203599000B4E0F58202044F7C
:100D1D00D2B7D284D285D286D287C2B5C2B6D2948A
:100D2D00D296D290D291D292D2B4D2939000641234
:100D3D00026E020CB0D2B7D284D285C286D287C2DF
:100D4D00B5C2B6D294D296D290D291D292D2B4D21A
:100D5D009390006412026E020CB0D2B7D284D28589
:100D6D00D286D287D29390006412026EC2B722E56A
:100D7D00829000B5F0C28690000A12026E9000B506
:100D8D00E0F5C512068E90000A12026ED286900012
:100D9D00B5E5C5F022E5829000B6F0D28690000A46
:100DAD0012026E9000B6E0F5C512068E90000A1282
:100DBD00026EC2869000B6E5C5F0221206C1900003
:100DCD00011206977E007F00EE242CF582EF340091
:100DDD00F583E0F582C007C006120D7CD006D00762
:100DED000EBE00010FC3EE9410EF940040DA120610
:100DFD00C19000000206971206C1900001120697DD
:100E0D007E007F00EE242CF582EF3400F583E0F5B3
:100E1D0082C007C006120DA2D006D0070EBE00017B
:100E2D000FC3EE9410EF940040DA1206C19000004B
:100E3D0002069790000A12026EC28590000A1202F5
:100E4D006ED2852290000A12026EC28490000A12A0
:100E5D00026ED28422E5829000B7F0FFBF0204C279
:100E6D00B5C2B6EF7004D2B5C2B6BF0104D2B5D2C9
:100E7D00B6BF0304C2B5D2B622C2B49000011202AD
:100E8D006E75C58012068E75C50012068E75C5006D
:100E9D0012068E75C50012068E90000112026ED2DA
:100EAD00B490000A12026EC2B490000112026E7567
:100EBD00C50012068E75C50312068E75C5FF120686
:100ECD008E75C50412068E90000112026ED2B4907A
:100EDD00000A12026EC2B490000112026E75C52B8B
:100EED0012068E75C50012068E75C50112068E7519
:100EFD00C50E12068E90000112026ED2B490000A39
:100F0D0012026EC2B490000112026E75C500120677
:100F1D008E75C50012068E75C50112068E75C50F2C
:100F2D0012068E90000112026ED2B490000A0202D7
:100F3D006EC2B490000112026E75C58012068E75D8
:100F4D00C50012068E75C50012068E75C5001206F7
:100F5D008E90000112026ED2B490000A12026EC27F
:100F6D00B490000112026E75C50012068E75C50390
:100F7D0012068E75C5FF12068E75C50412068E906B
:100F8D00000112026ED2B490000A12026EC2B49029
:100F9D00000112026E75C56812068E75C500120627
:100FAD008E75C50012068E75C50E12068E90000147
:100FBD0012026ED2B490000A02026EC2B490000109
:100FCD0012026E75C58012068E75C50012068E75DD
:100FDD00C50012068E75C50012068E900001120214
:100FED006ED2B490000A12026EC2B49000011202C9
:100FFD006E75C50012068E75C50312068E75C5FF7A
:10100D0012068E75C50412068E90000112026ED264
:10101D00B490000A12026EC2B490000112026E75F5
:10102D00C52B12068E75C50012068E75C5011206EA
:10103D008E75C50E12068E90000112026ED2B490FE
:10104D00000A12026EC2B490000112026E75C50044
:10105D0012068E75C50012068E75C50112068E75A7
:10106D00C50F12068E90000112026ED2B490000AC6
:10107D0002026E1202D890174275F0801203599039
:10108D000000120697900000E4F5F0120920120DF1
:10109D001D120E861204431204D590175275F0805E
:1010AD0012035912058F12044390176775F08012C1
:1010BD000359758203120E6290000112026EC287EF
:0410CD00C2B780FE28
:1016BD000A00526571207465737420646174610051
:1016CD007465737420646174612072656164006374
:1016DD006F6D706C657465002047487A00455252F5
:1016ED004F522100444143204F2F50207E20312E58
:1016FD003456005761726E696E6700444143204F46
:10170D002F50203E20312E325600524320737461EB
:10171D007465203D20005265736574204661696CC7
:10172D006564210052657365742053756363657339
:10173D007366756C00496E697469616C697A696E5E
:10174D00672E2E2E00536574204A756D7065727369
:10175D0020616E642070696E67004F6666736574F4
:0B176D00207472696D20445554310057
:1010D100AF83E5829000BAF0EFA3F09000BCE4F09A
:1010E100E4A3F09000B8E0FEA3E0FF7D109000BA09
:1010F100E0FBA3E0FC339202ECCB25E0CB33FC9088
:1011010000BAEBF0ECA3F09000BCE0FBA3E0CB2530
:10111100E0CB33FC9000BCEBF0ECA3F0300212907A
:1011210000BCE0FBA3E0FC9000BC74014BF0ECA31D
:10113100F09000BCE0FBA3E0FCC3EB9EEC9F401DE4
:101141009000BCEBC39EF0EC9FA3F09000BAE0FBD3
:10115100A3E0FC9000BA74014BF0ECA3F0DD8E909B
:1011610000BAE0FEA3E08E82F58322AF82AE83ADAA
:10117100F0FC9000C2EFF0EEA3F0EDA3F0ECA3F0D1
:101181009000C6E4F09000C2E0FCA3E0FDA3E0FE05
:10119100A3E0FF7B009000BEE0F521A3E0F522A3D0
:1011A100E0F523A3E0F524235401FA7074C003E5AC
:1011B100212521F8E52233F9E52333FAE52433FB30
:1011C1009000BEE8F0E9A3F0EAA3F0EBA3F09000F1
:1011D100BEE0F521A3E0F522A3E0F523A3E0F52489
:1011E100C3EC9521ED9522EE9523EF9524D0035084
:1011F10027E524C313F524E52313F523E52213F58D
:1012010022E52113F5219000BEF0E522A3F0E523AC
:10121100A3F0E524A3F080090B9000C6EBF00211C6
:10122100969000C6E0FF9000C2E0FBA3E0FCA3E0C3
:10123100FDA3E0FE9000BEE0F521A3E0F522A3E0CE
:10124100F523A3E0F524C3EB9521EC9522ED95233D
:10125100EE952440179000C2EBC39521F0EC952246
:10126100A3F0ED9523A3F0EE9524A3F09000BEE04A
:10127100FBA3E0FCA3E0FDA3E0C313FEED13FDEC33
:1012810013FCEB13FB9000BEF0ECA3F0EDA3F0EE2A
:10129100A3F08F061FEE708E9000C2E0FCA3E0FD6C
:1012A100A3E0FEA3E08C828D838EF022AF82AE8319
:1012B100ADF0FC9000CBEFF0EEA3F0EDA3F0ECA3CA
:1012C100F09000CFE4F0E4A3F0E4A3F0E4A3F09005
:1012D10000C7E0FCA3E0FDA3E0FEA3E0FF75212031
:1012E1009000CBE0F8A3E0F9A3E0FAA3E0FB33928E
:1012F10003E828F8E933F9EA33FAEB33FB9000CB42
:10130100E8F0E9A3F0EAA3F0EBA3F09000CFE0F856
:10131100A3E0F9A3E0FAA3E0FBE828F8E933F9EA4E
:1013210033FAEB33FB9000CFE8F0E9A3F0EAA3F046
:10133100EBA3F030031E9000CFE0F8A3E0F9A3E0A7
:10134100FAA3E0FB9000CF740148F0E9A3F0EAA30F
:10135100F0EBA3F09000CFE0F8A3E0F9A3E0FAA34B
:10136100E0FBC3E89CE99DEA9EEB9F40319000CFF2
:10137100E8C39CF0E99DA3F0EA9EA3F0EB9FA3F0E4
:101381009000CBE0F8A3E0F9A3E0FAA3E0FB900022
:10139100CB740148F0E9A3F0EAA3F0EBA3F0D52167
:1013A1000280030212E19000CBE0FCA3E0FDA3E088
:0A13B100FEA3E08C828D838EF022F3
:06006000E478FFF6D8FD74
:10003E007900E94400601B7A0090177878D975A092
:10004E0000E493F2A308B8000205A0D9F4DAF27521
:02005E00A0FF01
:1013BB00FCABF0AA83A982749EC2D1F58212168669
:1013CB000214CF7F9E1213F530D1030214F0C3EF3A
:1013DB009582500974FFF5F0F583F582227900129E
:1013EB00164389828A838BF0EC22AA82AB83A2F705
:1013FB003392D1F5826002D2F7ACF02220F7113094
:10140B00F6138883A88220F509F6A883758300223A
:10141B0080FEF280F5F022AF83E5829000D6F0EFEC
:10142B00A3F09000D8E4F09000D6E0FEA3E0FF7D9F
:10143B00009000D4E0FBA3E0FC235401FA7037ECDE
:10144B00CB25E0CB33FC9000D4EBF0ECA3F0900079
:10145B00D4E0FBA3E0FCC3EE9BEF9C5011ECC31359
:10146B00CB13CBFC9000D4EBF0ECA3F080080D90E9
:10147B0000D8EDF080BB9000D8E0FF9000D6E0FDE7
:10148B00A3E0FE9000D4E0FBA3E0FCC3ED9BEE9C3D
:10149B00400B9000D6EDC39BF0EE9CA3F09000D4D4
:1014AB00E0FDA3E0C313CD13CDFE9000D4EDF0EE21
:1014BB00A3F08F061FEE70C39000D6E0FEA3E08E64
:0414CB0082F5832201
:100066007800E84400600A790075A000E4F309D836
:10007600FC78D9E84400600C7901900000E4F0A314
:04008600D8FCD9FACF
:1014CF00B98003EA13B34010EA2401FAE43BFBE4CA
:1014DF003CFC50047C800582BC000EBB000BBA00A4
:1014EF0008E4F5F0F583F58222A2D1E582138CF0A2
:1014FF0092F78B838A8222E4F583F58275F080F46C
:10150F00A2D11322E4F583F58275F0C0747F22AA6D
:10151F0082AB831215F96003A380F8C3E5829AF5B5
:10152F0082E5839BF5832212161530D502B2D1BF07
:10153F000009BC0003021513021506BC00030214B8
:10154F00F0E583B4FF0BE582B4FF03021513021419
:10155F00F0E582B4FF03021506C395835007247F7D
:10156F00400B0214F02480145003021506F582C3B9
:10157F00ED9AEE9BEF9C40111582C3EA33F9EB33E2
:10158F00FAEC33FBE433FC8005E4CCCBCAF9C08220
:10159F0075F019C3E99DEA9EEB9FEC9400D5F0021C
:1015AF00802D400EE99DF9EA9EFAEB9FFBEC94002B
:1015BF00FCC3B3E833F8E58233F582E58333F58373
:1015CF00C3E933F9EA33FAEB33FBEC33FC80C4B3F2
:1015DF00E4F938FAE43582FBE43583FCD082500419
:0A15EF0005827C801216860214E7C4
:0D0031007581241216B9E582600302002ECD
:1015F90020F71430F6148883A88220F507E6A8831B
:1016090075830022E280F7E49322E022AA82AB8369
:10161900A2F73392D1F5826002D2F7ACF0E58124CA
:10162900F9F8E6FD08E6FE0886F008E6A2F7339227
:10163900D5F5836002D2F7AFF0226040F8258250D9
:101649000274FFF582E824F8501ECCCBCAF9E4CC29
:1016590024F85014CBCAF9E4CB24F8500BCAF9E4A6
:10166900CA24F8500379002224086010F8C3EC1347
:10167900FCEB13FBEA13FAE913F9D8F1227804EC2D
:101689007011E58224F8500AF582E4C9CACBFCD866
:10169900EF22EC7820058220E713D5820122C3E9E5
:1016A90033F9EA33FAEB33FBEC33FCD8EA1582223F
:0416B9007582002214
:00000001FF
