:040000000200313297
:01000B0032C2
:0100130032BA
:01001B0032B2
:0100230032AA
:03002B0002037E4F
:03008A0002002E43
:03002E00020D358B
:10008D00AF83E582900042F0EFA3F0900042E0FED6
:10009D00A3E0FF7C007D00C3EE9CEF64808DF063D8
:1000AD00F08095F040147A647B011ABAFF011BEAC7
:1000BD004B70F70CBC00E00D80DD22E58290004412
:1000CD00F0FFC4540FFE53060F74804EF5A08EA0A2
:1000DD00900001C00712008DD00753070F74804F99
:1000ED00F5A08FA090000202008D75A00090000178
:1000FD0012008D75A002D2A790000A12008DC2A722
:10010D0090000A12008D7582281200C8900001120D
:10011D00008D7582011200C890000112008D75824C
:10012D00801200C890000112008D75820E1200C859
:10013D0090000102008DE582900045F0FFC4540F40
:10014D00FE53060F74A04EF5A074204EF5A090003E
:10015D0001C00712008DD00753070F74A04FF5A0F3
:10016D0074204FF5A090000102008DAFF0AE83E535
:10017D0082900046F0EEA3F0EFA3F0900046E0FD74
:10018D00A3E0FEA3E0FF7B007C00900046E0F8A317
:10019D00E0F9A3E0FA888289838AF0C007C006C01F
:1001AD0005C004C00312130FE5828583F0D003D080
:1001BD0004D005D006D00724FFF9E5F034FFFAC3CB
:1001CD00E99BEA9C4052BB101DBC001A7582C0C051
:1001DD0007C006C005C004C0031200C8D003D00478
:1001ED00D005D006D007EB2DF8EC3EF98F028882B2
:1001FD0089838AF01213EAF582C007C006C005C0D4
:10020D0004C003120143D003D004D005D006D0079B
:10021D000BBB00010C02019722AF83E582900049D0
:10022D00F0EFA3F0900049E0FEA3E0FF7C007D001D
:10023D00C3EC9EED9F501D758210C007C006C00512
:10024D00C0041200C8D004D005D006D0070CBC00E5
:10025D00DF0D80DC227582010200C87582C00200AC
:10026D00C8E58290004BF0FFC4540FFE24F65009F0
:10027D0090004D74372EF0800790004D74302EF0A5
:10028D0090004DE0F582C007120143D00753070FD0
:10029D00EF24F6500990004C74372FF08007900032
:1002AD004C74302FF090004CE0F582020143759BA9
:1002BD001C759AF37598507587002210990280FB72
:1002CD0022AFF0AE83E58290004EF0EEA3F0EFA3E7
:1002DD00F090004EE0FDA3E0FEA3E0FF7B007C006C
:1002ED0090004EE0F8A3E0F9A3E0FA888289838AB2
:1002FD00F0C007C006C005C004C00312130FE5828D
:10030D008583F0D003D004D005D006D00724FFF9A3
:10031D00E5F034FFFAC3E99BEA9C4031EB2DF8EC94
:10032D003EF98F02888289838AF01213EAF599C00B
:10033D0007C006C005C004C0031202C8D003D00414
:10034D00D005D006D0070BBB00960C809322E5821A
:10035D00900051F0F5990202C89014AE75F080121C
:10036D0002CE75820D02035B10980280FB85998287
:10037D0022C0E0C082C083C007C0D075D0003098C5
:10038D0011900052E599F0C298900052E0FFF5826D
:10039D00800D10990280057582008003758200D052
:1003AD00D0D007D083D082D0E032C29290000A1212
:1003BD00008D75C5A5120612E5C5D29222C2929086
:1003CD00000112008D75C501120612E5C59000647D
:1003DD0012008D75C50112061290003EE5C5F09014
:1003ED00006412008D75C50112061290003DE5C521
:1003FD00F090006412008D75C50112061290003C3C
:10040D00E5C5F0E5C5D29290003CE0FF7E0090007E
:10041D003DE0FCE42FFFEC3EFE90003EE0FD7C0055
:10042D008C028D037C007D008F00EEF93395E0FE8C
:10043D00FFED28FDEC39FCEB3EFBEA3F8D828C8312
:10044D008BF012118CAC82AD83AEF0FF749AC0E0CC
:10045D007499C0E0C0E0743EC0E08C828D838EF054
:10046D00EF121327AC82AD83AEF0FFE58124FCF5CE
:10047D00818C828D838EF0EF02119FAF82AE83ADA2
:10048D00F0FC900053EFF0EEA3F0EDA3F0ECA3F031
:10049D00900057E4F0E4A3F0900059E4F0E4A3F0E9
:1004AD0090005BE4F0E4A3F090005DE4F0E4A3F0D1
:1004BD0090005FE4F0E4A3F0900061E4F0E4A3F0B9
:1004CD00900063E4F0E4A3F0900065E4F0E4A3F0A1
:1004DD00900067E4F0E4A3F0900069E4F0E4A3F089
:1004ED007E007F00900053E0F50AA3E0F50BA3E03A
:1004FD00F50CA3E0F50DE50A450B450C450D700314
:10050D000205968E00EFC825E0C833F9E82457F5AB
:10051D0008E93400F5099000B7740AF0E4A3F0E49B
:10052D00A3F0E4A3F0850A82850B83850CF0E50D1D
:10053D00C007C006120F3DA882A983D006D007437D
:10054D000030850882850983E8F0E9A3F09000C0AA
:10055D00740AF0E4A3F0E4A3F0E4A3F0850A828525
:10056D000B83850CF0E50DC007C00612107EAA8224
:10057D00AB83ACF0FDD006D007900053EAF0EBA3AF
:10058D00F0ECA3F0EDA3F080198E04EFCC25E0CCB8
:10059D0033FDEC2457F582ED3400F5837430F0E42F
:1005AD00A3F00EBE00010FC3EE940AEF94005003AA
:1005BD000204F17E007F008E057409C39D75F00263
:1005CD00A42457F582740035F0F583E0FCA3E08C8C
:1005DD0082C007C006120143D006D007EE4F700E41
:1005ED0075822EC007C006120143D006D0070EBE7D
:1005FD0000010FC3EE9403EF940040BB9014B0754F
:10060D00F080020178E5C4235401FF60F822AF8326
:10061D00E58290006BF0EFA3F090006BE0FEA3E09D
:10062D00FF4E700775C33143C34022BE0109BF00A1
:10063D000675C3B243C3402253C3BF22AF82AE83FC
:10064D00ADF0FC90006DEFF0EEA3F0EDA3F0ECA398
:10065D00F090006DE0FCA3E0FDA3E0FEA3E0FF8CB5
:10066D000E750F007510007511008D008E018F0233
:10067D007B00430070C3748C9C740A9DE49EE49FC0
:10068D005038C003C002C001C0001202629014B500
:10069D0075F080120178D000D001D002D003880708
:1006AD008F8212026EAF0E8F8212026E120268904E
:1006BD0014BC75F08012017880FEC29088C51206B8
:1006CD0012850EC5120612E5C5D29022AF83E582C2
:1006DD00900071F0EFA3F0C29175C5011206129052
:1006ED000071E0FEA3E0FF4E700375C588BE0106E4
:1006FD00BF000375C598BE0206BF000375C5A8BE31
:10070D000306BF000375C5B8BE0406BF000375C55B
:10071D00C8BE0506BF000375C5D8BE0606BF0003DB
:10072D0075C5E8BE0706BF000375C5F8120612AF02
:10073D00C57E0075C588C007C006120612D006D04A
:10074D0007ACC57D00EC2EFEED3FFFD291530703A4
:10075D008E828F83227E007F00BE132CBF0029EE78
:10076D002473FCEF3400FDEE2400F582EF3400F528
:10077D0083E025E0FB900000E0235401FAEB4202F8
:10078D008C828D83EAF08031EE2473FCEF3400FD12
:10079D00EE2400F582EF3400F583E025E0FB8E02B8
:1007AD00EA042400F582E43400F583E0235401FAD1
:1007BD00EB42028C828D83EAF00EBE00010FC3EE78
:1007CD009414EF940040927E007F00EE2400FCEF25
:1007DD003400FDEE2473F582EF3400F583E0FB8CDD
:1007ED00828D83F00EBE00010FC3EE9414EF9400C2
:1007FD0040D9227E007F00BE132CBF0029EE248736
:10080D00FCEF3400FDEE2400F582EF3400F583E0BB
:10081D0025E0FB900000E0235401FAEB42028C82AC
:10082D008D83EAF08031EE2487FCEF3400FDEE2459
:10083D0000F582EF3400F583E025E0FB8E02EA043B
:10084D002400F582E43400F583E0235401FAEB42F1
:10085D00028C828D83EAF00EBE00010FC3EE94145C
:10086D00EF940040927E007F00EE2400FCEF3400F8
:10087D00FDEE2487F582EF3400F583E0FB8C828D4D
:10088D0083F00EBE00010FC3EE9414EF940040D917
:10089D0022AFF0AE83E58290009BF0EEA3F0EFA3C4
:1008AD00F0C20090009BE0FDA3E0FEA3E0FF7C0002
:1008BD0020004C7B00EB2DF8E43EF98F02888289F5
:1008CD00838AF01213EAF8EB2400F582E43400F584
:1008DD0083E0FAE8B502028015C007C006C005C066
:1008ED0004120762D004D005D006D007800BBB0FD1
:1008FD0002D2000BBB100040BC0CBCA00040B1A24A
:10090D0000221202629014CB75F0801201787E00E5
:10091D007F00EE241EFCEF3400FDC007C006C005AD
:10092D00C004120375AB82D004D005D006D0078C5D
:10093D00828D83EBF00EBE00010FC3EE9410EF9489
:10094D000040CF1202629014D975F0801201781216
:10095D0002689014E375F080020178C29375C5C8E2
:10096D00120612D29390009EE5C5F0E0F582221298
:10097D00064590000112061B7E007F00EE2400FC50
:10098D00EF3400FDC007C006C005C004120968ABF6
:10099D0082D004D005D006D0078C828D83EBF00E6B
:1009AD00BE00010FC3EE9414EF940040CF12064524
:1009BD0090000002061B90009FE580F0E0FF900084
:1009CD009F740F5FF012026290009FE0FF601D9018
:1009DD0014EC75F0801201781202689014FA75F01B
:1009ED00801201789007D012008D80159015067534
:1009FD00F08012017812026890151475F0801201C2
:100A0D00789001F402008DD2B7D284D285D286D2ED
:100A1D0087C2B5C2B6D294D296D290D291D292D28A
:100A2D00B4D2939003E812008D0209C3D2B7D284D9
:100A3D00D285D286D287D2939003E812008DC2B7A9
:100A4D0022E5829000A0F0D28690000A12008D90CF
:100A5D0000A0E0F5C512061290000A12008DC286A4
:100A6D009000A0E5C5F02290000A12008DC285907D
:100A7D00000A12008DD2852290000A12008DC284C8
:100A8D0090000A12008DD2842212064590000112A8
:100A9D00061B7E007F00EE241EF582EF3400F583E9
:100AAD00E0F582C007C006120A4ED006D0070EBE72
:100ABD0000010FC3EE9410EF940040DA120645903A
:100ACD00000002061B90000112061BC2B49000012B
:100ADD0012008D75C58012061275C50012061275AD
:100AED00C50012061275C500120612900001120003
:100AFD008DD2B490000A12008DC2B4900001120084
:100B0D008D75C50012061275C50312061275C5083E
:100B1D0012061275C50412061290000112008DD234
:100B2D00B490000A12008DC2B490000112008D75B0
:100B3D00C52B12061275C50012061275C5011206D7
:100B4D001275C50E12061290000112008DD2B490CE
:100B5D00000A02008DAF83E5829000A6F0EFA3F0AE
:100B6D009000A1E0FDA3E0FEA3E0FF9000A4E0FB58
:100B7D00A3E0FC7A101AEA2DF512E43EF5138F145A
:100B8D009000A6E0F8A3E0F98B158C169000CFE548
:100B9D0015F0E516A3F088828983C007C006C0054D
:100BAD00C004C003C002121213A882A983D002D0C0
:100BBD0003D004D005D006D007743028F8851282F2
:100BCD008513838514F01211D8C374B988F063F0BE
:100BDD008095F0501B8512828513838514F01213B6
:100BED00EA2407F98512828513838514F01211D832
:100BFD009000A6E0F8A3E0F99000B1E515F0E51638
:100C0D00A3F088828983C007C006C005C004C00355
:100C1D00C002120EA2E5828583F0D002D003D0046B
:100C2D00D005D006D0079000A6F0E5F0A3F0900017
:100C3D00A6E0F8A3E0F9486003020B827C008A036A
:100C4D008C020CEA2DF512E43EF5138F148B020B7A
:100C5D00EA2DF8E43EF98F02888289838AF0121317
:100C6D00EAF88512828513838514F01211D8BB1012
:100C7D000040CDEC2DFDE43EFE8D828E838FF0E4A1
:100C8D000211D8AF83E5829000ADF0EFA3F0900094
:100C9D00ADE0FEA3E0FF30E7629000ABE0FCA3E027
:100CAD00FDBC0A57BD00549000A8E0F9A3E0FAA3DB
:100CBD00E0FB89828A838BF0742D1211D89000A8E5
:100CCD00740129F0E43AA3F0EBA3F0C3E49EF51709
:100CDD00E49FF5189000A8E0F8A3E0F9A3E0FB90DD
:100CED0000A1E8F0E9A3F0EBA3F09000A4ECF0ED87
:100CFD00A3F0851782851883020B629000A8E0FB94
:100D0D00A3E0FCA3E0FD9000ABE0F9A3E0FA9000B6
:100D1D00A1EBF0ECA3F0EDA3F09000A4E9F0EAA3B1
:100D2D00F08E828F83020B621200F790152275F000
:100D3D0080120178120A1490000012061B120AD2BA
:100D4D0012026290153275F08012017812026890CD
:100D5D00154075F0801201789003E812008D120293
:100D6D006290155175F0801201781202BB1203B713
:100D7D007F00BF18004003020E8E8F19751A007484
:100D8D00012519FBE4351AFC9000CDEBF0ECA3F036
:100D9D0090006EC0071211F3AB82AC838B008C01F7
:100DAD007A007E00888289838AF0EEC004C0031227
:100DBD0006499003E812008DD003D0048B058C03F7
:100DCD00C005C0031203751203CAA982AA83ACF031
:100DDD00FED003D005C006C005C004C003C002C0CC
:100DED000112026290156A75F0801201789000A8C8
:100DFD0074AFF07400A3F0E4A3F09000AB740AF0AC
:100E0D00E4A3F0851982851A83120C909000AF75BA
:100E1D00F00012017890156D75F080120178D001F7
:100E2D00D002D003D004D005D00689828A838CF0FD
:100E3D00EEC005C003120488120375D003D005D08F
:100E4D00078F82C007C005C00312035BD0038B82DE
:100E5D0012035BD0058D8212035B90003CE0F5829E
:100E6D0012035B90003DE0F58212035B90003EE0C3
:100E7D00F58212035B9003E812008DD0070F020D6F
:100E8D007F12026290157075F080120178901388B0
:050E9D0012008D80FE33
:1014AE000A002047487A004552524F5221004441CB
:1014BE0043204F2F50207E20312E32560052657120
:1014CE0020746573742064617461005465737420B4
:1014DE0064617461007265636569766564002020DD
:1014EE0020436869702052657365740020202020A7
:1014FE004661696C65642100202020436869702074
:10150E005245534554002020205375636365737311
:10151E0066756C00496E697469616C697A696E678B
:10152E002E2E2E002020204F7363696C6C61746F19
:10153E007200436861726163746572697A6174697D
:10154E006F6E0057616974696E6720666F7220480E
:10155E006F737420746F2070696E6700662800299F
:10156E003D005465737420436F6D706C65746564D3
:01157E00006C
:100EA200AF83E5829000B3F0EFA3F09000B5E4F0D9
:100EB200E4A3F09000B1E0FEA3E0FF7D109000B348
:100EC200E0FBA3E0FC339202ECCB25E0CB33FC90B9
:100ED20000B3EBF0ECA3F09000B5E0FBA3E0CB2570
:100EE200E0CB33FC9000B5EBF0ECA3F030021290B3
:100EF20000B5E0FBA3E0FC9000B574014BF0ECA35D
:100F0200F09000B5E0FBA3E0FCC3EB9EEC9F401D1C
:100F12009000B5EBC39EF0EC9FA3F09000B3E0FB12
:100F2200A3E0FC9000B374014BF0ECA3F0DD8E90D3
:100F320000B3E0FEA3E08E82F58322AF82AE83ADE2
:100F4200F0FC9000BBEFF0EEA3F0EDA3F0ECA3F009
:100F52009000BFE4F09000BBE0FCA3E0FDA3E0FE44
:100F6200A3E0FF7B009000B7E0F51BA3E0F51CA314
:100F7200E0F51DA3E0F51E235401FA7074C003E5E9
:100F82001B251BF8E51C33F9E51D33FAE51E33FB7F
:100F92009000B7E8F0E9A3F0EAA3F0EBA3F0900029
:100FA200B7E0F51BA3E0F51CA3E0F51DA3E0F51ED9
:100FB200C3EC951BED951CEE951DEF951ED00350CD
:100FC20027E51EC313F51EE51D13F51DE51C13F5DC
:100FD2001CE51B13F51B9000B7F0E51CA3F0E51D03
:100FE200A3F0E51EA3F080090B9000BFEBF0020F07
:100FF200679000BFE0FF9000BBE0FBA3E0FCA3E032
:10100200FDA3E0FE9000B7E0F51BA3E0F51CA3E012
:10101200F51DA3E0F51EC3EB951BEC951CED951D8C
:10102200EE951E40179000BBEBC3951BF0EC951C90
:10103200A3F0ED951DA3F0EE951EA3F09000B7E08E
:10104200FBA3E0FCA3E0FDA3E0C313FEED13FDEC64
:1010520013FCEB13FB9000B7F0ECA3F0EDA3F0EE62
:10106200A3F08F061FEE708E9000BBE0FCA3E0FDA4
:10107200A3E0FEA3E08C828D838EF022AF82AE834A
:10108200ADF0FC9000C4EFF0EEA3F0EDA3F0ECA302
:10109200F09000C8E4F0E4A3F0E4A3F0E4A3F0903D
:1010A20000C0E0FCA3E0FDA3E0FEA3E0FF751B206F
:1010B2009000C4E0F8A3E0F9A3E0FAA3E0FB3392C6
:1010C20003E828F8E933F9EA33FAEB33FB9000C47A
:1010D200E8F0E9A3F0EAA3F0EBA3F09000C8E0F88F
:1010E200A3E0F9A3E0FAA3E0FBE828F8E933F9EA80
:1010F20033FAEB33FB9000C8E8F0E9A3F0EAA3F07F
:10110200EBA3F030031E9000C8E0F8A3E0F9A3E0DF
:10111200FAA3E0FB9000C8740148F0E9A3F0EAA347
:10112200F0EBA3F09000C8E0F8A3E0F9A3E0FAA383
:10113200E0FBC3E89CE99DEA9EEB9F40319000C82A
:10114200E8C39CF0E99DA3F0EA9EA3F0EB9FA3F015
:101152009000C4E0F8A3E0F9A3E0FAA3E0FB90005A
:10116200C4740148F0E9A3F0EAA3F0EBA3F0D51BA5
:101172000280030210B29000C4E0FCA3E0FDA3E0F1
:0A118200FEA3E08C828D838EF02224
:06006000E478FFF6D8FD74
:10003E007900E94400601B7A0090157F78D475A092
:10004E0000E493F2A308B8000205A0D9F4DAF27521
:02005E00A0FF01
:10118C00FCABF0AA83A982749EC2D1F582121477AB
:10119C000212C07F9E1211C630D1030212E1C3EFBE
:1011AC009582500974FFF5F0F583F58222790012CF
:1011BC00143489828A838BF0EC22AA82AB83A2F747
:1011CC003392D1F5826002D2F7ACF02220F71130C5
:1011DC00F6138883A88220F509F6A883758300226C
:1011EC0080FEF280F5F022AA83AB828BF09000CDCA
:1011FC00E0A4F8A9F08AF0E0A429F98BF0A3E0A40C
:10120C0029F58388822222AF83E5829000D1F0EF0A
:10121C00A3F09000D3E4F09000D1E0FEA3E0FF7DBA
:10122C00009000CFE0FBA3E0FC235401FA7037ECF4
:10123C00CB25E0CB33FC9000CFEBF0ECA3F090008F
:10124C00CFE0FBA3E0FCC3EE9BEF9C5011ECC3136F
:10125C00CB13CBFC9000CFEBF0ECA3F080080D90FF
:10126C0000D3EDF080BB9000D3E0FF9000D1E0FD07
:10127C00A3E0FE9000CFE0FBA3E0FCC3ED9BEE9C53
:10128C00400B9000D1EDC39BF0EE9CA3F09000CFEF
:10129C00E0FDA3E0C313CD13CDFE9000CFEDF0EE37
:1012AC00A3F08F061FEE70C39000D1E0FEA3E08E7A
:0412BC0082F5832212
:100066007800E84400600A790075A000E4F309D836
:10007600FC78D4E84400600C7901900000E4F0A319
:04008600D8FCD9FACF
:1012C000B98003EA13B34010EA2401FAE43BFBE4DB
:1012D0003CFC50047C800582BC000EBB000BBA00B5
:1012E00008E4F5F0F583F58222A2D1E582138CF0B3
:1012F00092F78B838A8222E4F583F58275F080F47D
:10130000A2D11322E4F583F58275F0C0747F22AA7E
:1013100082AB831213EA6003A380F8C3E5829AF5D7
:1013200082E5839BF5832212140630D502B2D1BF29
:101330000009BC00030213040212F7BC00030212EE
:10134000E1E583B4FF0BE582B4FF0302130402124C
:10135000E1E582B4FF030212F7C395835007247FAF
:10136000400B0212E124801450030212F7F582C3ED
:10137000ED9AEE9BEF9C40111582C3EA33F9EB33F3
:10138000FAEC33FBE433FC8005E4CCCBCAF9C08231
:1013900075F019C3E99DEA9EEB9FEC9400D5F0022D
:1013A000802D400EE99DF9EA9EFAEB9FFBEC94003C
:1013B000FCC3B3E833F8E58233F582E58333F58384
:1013C000C3E933F9EA33FAEB33FBEC33FC80C4B303
:1013D000E4F938FAE43582FBE43583FCD08250042A
:0A13E00005827C801214770212D8F7
:0D0031007581201214AAE582600302002EE2
:1013EA0020F71430F6148883A88220F507E6A8832C
:1013FA0075830022E280F7E49322E022AA82AB837B
:10140A00A2F73392D1F5826002D2F7ACF0E58124DB
:10141A00F9F8E6FD08E6FE0886F008E6A2F7339238
:10142A00D5F5836002D2F7AFF0226040F8258250EA
:10143A000274FFF582E824F8501ECCCBCAF9E4CC3A
:10144A0024F85014CBCAF9E4CB24F8500BCAF9E4B7
:10145A00CA24F8500379002224086010F8C3EC1358
:10146A00FCEB13FBEA13FAE913F9D8F1227804EC3E
:10147A007011E58224F8500AF582E4C9CACBFCD877
:10148A00EF22EC7820058220E713D5820122C3E9F6
:10149A0033F9EA33FAEB33FBEC33FCD8EA15822250
:0414AA007582002225
:00000001FF
