:040000000200313297
:01000B0032C2
:0100130032BA
:01001B0032B2
:0100230032AA
:03002B0002037E4F
:03008A0002002E43
:03002E00020E1EA1
:10008D00AF83E582900042F0EFA3F0900042E0FED6
:10009D00A3E0FF7C007D00C3EE9CEF64808DF063D8
:1000AD00F08095F040147A647B011ABAFF011BEAC7
:1000BD004B70F70CBC00E00D80DD22E58290004412
:1000CD00F0FFC4540FFE53060F74804EF5A08EA0A2
:1000DD00900001C00712008DD00753070F74804F99
:1000ED00F5A08FA090000202008D75A00090000178
:1000FD0012008D75A002D2A790000A12008DC2A722
:10010D0090000A12008D7582281200C8900001120D
:10011D00008D7582011200C890000112008D75824C
:10012D00801200C890000112008D75820E1200C859
:10013D0090000102008DE582900045F0FFC4540F40
:10014D00FE53060F74A04EF5A074204EF5A090003E
:10015D0001C00712008DD00753070F74A04FF5A0F3
:10016D0074204FF5A090000102008DAFF0AE83E535
:10017D0082900046F0EEA3F0EFA3F0900046E0FD74
:10018D00A3E0FEA3E0FF7B007C00900046E0F8A317
:10019D00E0F9A3E0FA888289838AF0C007C006C01F
:1001AD0005C004C0031213FAE5828583F0D003D095
:1001BD0004D005D006D00724FFF9E5F034FFFAC3CB
:1001CD00E99BEA9C4052BB101DBC001A7582C0C051
:1001DD0007C006C005C004C0031200C8D003D00478
:1001ED00D005D006D007EB2DF8EC3EF98F028882B2
:1001FD0089838AF01214D5F582C007C006C005C0E8
:10020D0004C003120143D003D004D005D006D0079B
:10021D000BBB00010C02019722AF83E582900049D0
:10022D00F0EFA3F0900049E0FEA3E0FF7C007D001D
:10023D00C3EC9EED9F501D758210C007C006C00512
:10024D00C0041200C8D004D005D006D0070CBC00E5
:10025D00DF0D80DC227582010200C87582C00200AC
:10026D00C8E58290004BF0FFC4540FFE24F65009F0
:10027D0090004D74372EF0800790004D74302EF0A5
:10028D0090004DE0F582C007120143D00753070FD0
:10029D00EF24F6500990004C74372FF08007900032
:1002AD004C74302FF090004CE0F582020143759BA9
:1002BD001C759AF37598507587002210990280FB72
:1002CD0022AFF0AE83E58290004EF0EEA3F0EFA3E7
:1002DD00F090004EE0FDA3E0FEA3E0FF7B007C006C
:1002ED0090004EE0F8A3E0F9A3E0FA888289838AB2
:1002FD00F0C007C006C005C004C0031213FAE582A2
:10030D008583F0D003D004D005D006D00724FFF9A3
:10031D00E5F034FFFAC3E99BEA9C4031EB2DF8EC94
:10032D003EF98F02888289838AF01214D5F599C01F
:10033D0007C006C005C004C0031202C8D003D00414
:10034D00D005D006D0070BBB00960C809322E5821A
:10035D00900051F0F5990202C890159975F0801230
:10036D0002CE75820D02035B10980280FB85998287
:10037D0022C0E0C082C083C007C0D075D0003098C5
:10038D0011900052E599F0C298900052E0FFF5826D
:10039D00800D10990280057582008003758200D052
:1003AD00D0D007D083D082D0E032E5C4235401FFF2
:1003BD0060F822AF83E582900053F0EFA3F0900038
:1003CD0053E0FEA3E0FF4E700775C3BE43C340224A
:1003DD00BE0109BF000675C3BA43C3402253C3BF54
:1003ED0022C29290000A12008D75C5A51203B7E5C1
:1003FD00C5D29222C29290000112008D75C50112D4
:10040D0003B7E5C590006412008D75C5011203B7E1
:10041D0090003EE5C5F090006412008D75C5011287
:10042D0003B790003DE5C5F090006412008D75C5D1
:10043D00011203B790003CE5C5F0E5C5D2929000DE
:10044D003CE0FF7E0090003DE0FCE42FFFEC3EFE23
:10045D0090003EE0FD7C008C028D037C007D008FC2
:10046D0000EEF93395E0FEFFED28FDEC39FCEB3E97
:10047D00FBEA3F8D828C838BF0121277AC82AD83B9
:10048D00AEF0FF749AC0E07499C0E0C0E0743EC055
:10049D00E08C828D838EF0EF121412AC82AD83AEA0
:1004AD00F0FFE58124FCF5818C828D838EF0EF02C7
:1004BD00128AAF82AE83ADF0FC900055EFF0EEA343
:1004CD00F0EDA3F0ECA3F0900059E4F0E4A3F0906C
:1004DD00005BE4F0E4A3F090005DE4F0E4A3F090A1
:1004ED00005FE4F0E4A3F0900061E4F0E4A3F09089
:1004FD000063E4F0E4A3F0900065E4F0E4A3F09071
:10050D000067E4F0E4A3F0900069E4F0E4A3F09058
:10051D00006BE4F0E4A3F07E007F00900055E0F561
:10052D000AA3E0F50BA3E0F50CA3E0F50DE50A45F4
:10053D000B450C450D70030205CD8E00EFC825E06F
:10054D00C833F9E82459F508E93400F5099000B9E4
:10055D00740AF0E4A3F0E4A3F0E4A3F0850A828525
:10056D000B83850CF0E50DC007C006121028A8827C
:10057D00A983D006D007430030850882850983E81A
:10058D00F0E9A3F09000C2740AF0E4A3F0E4A3F044
:10059D00E4A3F0850A82850B83850CF0E50DC00779
:1005AD00C006121169AA82AB83ACF0FDD006D0074C
:1005BD00900055EAF0EBA3F0ECA3F0EDA3F0801959
:1005CD008E04EFCC25E0CC33FDEC2459F582ED34CF
:1005DD0000F5837430F0E4A3F00EBE00010FC3EEFE
:1005ED00940AEF940050030205287E007F008E05CB
:1005FD007409C39D75F002A42459F582740035F079
:10060D00F583E0FCA3E08C82C007C006120143D045
:10061D0006D007EE4F700E75822EC007C006120170
:10062D0043D006D0070EBE00010FC3EE9403EF9426
:10063D000040BB90159B75F080020178AF82AE83B0
:10064D00ADF0FC90006DEFF0EEA3F0EDA3F0ECA398
:10065D00F090006DE0FCA3E0FDA3E0FEA3E0FF8CB5
:10066D000E750F007510007511008D008E018F0233
:10067D007B00430070C3748C9C740A9DE49EE49FC0
:10068D005038C003C002C001C0001202629015A014
:10069D0075F080120178D000D001D002D003880708
:1006AD008F8212026EAF0E8F8212026E120268904E
:1006BD0015A775F08012017880FEC29088C51203CF
:1006CD00B7850EC51203B7E5C5D29022AF83E5827B
:1006DD00900071F0EFA3F0C29175C5011203B790B0
:1006ED000071E0FEA3E0FF4E700375C588BE0106E4
:1006FD00BF000375C598BE0206BF000375C5A8BE31
:10070D000306BF000375C5B8BE0406BF000375C55B
:10071D00C8BE0506BF000375C5D8BE0606BF0003DB
:10072D0075C5E8BE0706BF000375C5F81203B7AF60
:10073D00C57E0075C588C007C0061203B7D006D0A8
:10074D0007ACC57D00EC2EFEED3FFFD291530703A4
:10075D008E828F83227E007F00BE132CBF0029EE78
:10076D002473FCEF3400FDEE2400F582EF3400F528
:10077D0083E025E0FB900000E0235401FAEB4202F8
:10078D008C828D83EAF08031EE2473FCEF3400FD12
:10079D00EE2400F582EF3400F583E025E0FB8E02B8
:1007AD00EA042400F582E43400F583E0235401FAD1
:1007BD00EB42028C828D83EAF00EBE00010FC3EE78
:1007CD009414EF940040927E007F00EE2400FCEF25
:1007DD003400FDEE2473F582EF3400F583E0FB8CDD
:1007ED00828D83F00EBE00010FC3EE9414EF9400C2
:1007FD0040D9227E007F00BE132CBF0029EE248736
:10080D00FCEF3400FDEE2400F582EF3400F583E0BB
:10081D0025E0FB900000E0235401FAEB42028C82AC
:10082D008D83EAF08031EE2487FCEF3400FDEE2459
:10083D0000F582EF3400F583E025E0FB8E02EA043B
:10084D002400F582E43400F583E0235401FAEB42F1
:10085D00028C828D83EAF00EBE00010FC3EE94145C
:10086D00EF940040927E007F00EE2400FCEF3400F8
:10087D00FDEE2487F582EF3400F583E0FB8C828D4D
:10088D0083F00EBE00010FC3EE9414EF940040D917
:10089D0022AFF0AE83E58290009BF0EEA3F0EFA3C4
:1008AD00F0C20090009BE0FDA3E0FEA3E0FF7C0002
:1008BD0020004C7B00EB2DF8E43EF98F02888289F5
:1008CD00838AF01214D5F8EB2400F582E43400F598
:1008DD0083E0FAE8B502028015C007C006C005C066
:1008ED0004120762D004D005D006D007800BBB0FD1
:1008FD0002D2000BBB100040BC0CBCA00040B1A24A
:10090D0000221202629015B675F0801201787E00F9
:10091D007F00EE241EFCEF3400FDC007C006C005AD
:10092D00C004120375AB82D004D005D006D0078C5D
:10093D00828D83EBF00EBE00010FC3EE9410EF9489
:10094D000040CF1202629015C475F080120178122A
:10095D0002689015CE75F080020178C29375C5C8F6
:10096D001203B7D29390009EE5C5F0E0F5822212F6
:10097D0003EA9000011203C07E007F00EE2400FC0C
:10098D00EF3400FDC007C006C005C004120968ABF6
:10099D0082D004D005D006D0078C828D83EBF00E6B
:1009AD00BE00010FC3EE9414EF940040CF1203EA82
:1009BD009000000203C090009FE580F0E0FF9000E2
:1009CD009F740F5FF01202629015D775F0801201BF
:1009DD007890009FE0FFF582C00712026E12026848
:1009ED00D007EF60119015E375F080120178900734
:1009FD00D012008D80099015F175F080120178905C
:100A0D0001F402008DD2B7D284D285D286D287C2AC
:100A1D00B5C2B6D294D296D290D291D292D2B4D24D
:100A2D009390006412008D0209C3D2B7D284D2858F
:100A3D00D286D287D29390006412008DC2B722E580
:100A4D00829000A0F0D28690000A12008D9000A036
:100A5D00E0F5C51203B790000A12008DC286900012
:100A6D00A0E5C5F02290000A12008DC28590000A03
:100A7D0012008DD2852290000A12008DC284900042
:100A8D000A12008DD284221203EA9000011203C0D3
:100A9D007E007F00EE241EF582EF3400F583E0F535
:100AAD0082C007C006120A4CD006D0070EBE000148
:100ABD000FC3EE9410EF940040DA1203EA90000099
:100ACD000203C0AF83E5829000A1F0EFA3F0900088
:100ADD00A1E0FEA3E0FF4E7004C2B5C2B6BE010791
:100AED00BF0004D2B5C2B6BE0307BF0004D2B5D253
:100AFD00B6BE0207BF0004C2B5D2B622C2B4900082
:100B0D000112008D75C5801203B775C5001203B7AC
:100B1D0075C5001203B775C5001203B79000011219
:100B2D00008DD2B490000A12008DC2B49000011253
:100B3D00008D75C5001203B775C5031203B775C5D2
:100B4D00FF1203B775C5041203B790000112008D93
:100B5D00D2B490000A12008DC2B490000112008D23
:100B6D0075C52B1203B775C5001203B775C50112F4
:100B7D0003B775C50E1203B790000112008DD2B4E4
:100B8D0090000A12008DC2B490000112008D75C53F
:100B9D00001203B775C5001203B775C5011203B76F
:100BAD0075C50F1203B790000112008DD2B49000DD
:100BBD000A02008DC2B490000112008D75C580121D
:100BCD0003B775C5001203B775C5001203B775C518
:100BDD00001203B790000112008DD2B490000A12DA
:100BED00008DC2B490000112008D75C5001203B7BF
:100BFD0075C5031203B775C5FF1203B775C504128A
:100C0D0003B790000112008DD2B490000A12008D2E
:100C1D00C2B490000112008D75C5681203B775C579
:100C2D00001203B775C5001203B775C50E1203B7D1
:100C3D0090000112008DD2B490000A02008DAF8396
:100C4D00E5829000A8F0EFA3F09000A3E0FDA3E0F3
:100C5D00FEA3E0FF9000A6E0FBA3E0FC7A101AEAE9
:100C6D002DF512E43EF5138F149000A8E0F8A3E0E3
:100C7D00F98B158C169000D1E515F0E516A3F088CB
:100C8D00828983C007C006C005C004C003C002121C
:100C9D0012FEA882A983D002D003D004D005D006BD
:100CAD00D007743028F88512828513838514F012CD
:100CBD0012C3C374B988F063F08095F0501B851290
:100CCD00828513838514F01214D52407F9851282B9
:100CDD008513838514F01212C39000A8E0F8A3E0E9
:100CED00F99000B3E515F0E516A3F088828983C06D
:100CFD0007C006C005C004C003C002120F8DE582F7
:100D0D008583F0D002D003D004D005D006D0079053
:100D1D0000A8F0E5F0A3F09000A8E0F8A3E0F948F2
:100D2D006003020C6B7C008A038C020CEA2DF51219
:100D3D00E43EF5138F148B020BEA2DF8E43EF98F88
:100D4D0002888289838AF01214D5F8851282851360
:100D5D00838514F01212C3BB100040CDEC2DFDE4C1
:100D6D003EFE8D828E838FF0E40212C3AF83E58247
:100D7D009000AFF0EFA3F09000AFE0FEA3E0FF30E6
:100D8D00E7629000ADE0FCA3E0FDBC0A57BD005446
:100D9D009000AAE0F9A3E0FAA3E0FB89828A838B95
:100DAD00F0742D1212C39000AA740129F0E43AA335
:100DBD00F0EBA3F0C3E49EF517E49FF5189000AA9D
:100DCD00E0F8A3E0F9A3E0FB9000A3E8F0E9A3F0BD
:100DDD00EBA3F09000A6ECF0EDA3F085178285183B
:100DED0083020C4B9000AAE0FBA3E0FCA3E0FD9076
:100DFD0000ADE0F9A3E0FA9000A3EBF0ECA3F0ED69
:100E0D00A3F09000A6E9F0EAA3F08E828F83020C86
:100E1D004B1200F790160275F080120178120A122B
:100E2D009000001203C0120B091202629016127587
:100E3D00F08012017812026890162075F080120170
:100E4D00789003E812008D12026290163175F080D1
:100E5D001201781202BB1203EEC2877F00BF180089
:100E6D004003020F798F19751A0074012519FBE4DF
:100E7D00351AFC9000CFEBF0ECA3F090006EC0079C
:100E8D001212DEAB82AC838B008C017A007E00885F
:100E9D008289838AF0EEC004C0031206499003E8EC
:100EAD0012008DD003D0048B058C03C005C0031236
:100EBD000375120401A982AA83ACF0FED003D005FC
:100ECD00C006C005C004C003C002C001120262907A
:100EDD00164A75F0801201789000AA74B1F0740072
:100EED00A3F0E4A3F09000AD740AF0E4A3F085192B
:100EFD0082851A83120D799000B175F00012017878
:100F0D0090164D75F080120178D001D002D003D02B
:100F1D0004D005D00689828A838CF0EEC005C0030B
:100F2D001204BF120375D003D005D0078F82C007FE
:100F3D00C005C00312035BD0038B8212035BD00587
:100F4D008D8212035B90003CE0F58212035B9000F2
:100F5D003DE0F58212035B90003EE0F58212035BEB
:100F6D009003E812008DD0070F020E6A12026290F4
:100F7D00165075F08012017890138812008D80FE46
:101599000A002047487A004552524F5221004441DF
:1015A90043204F2F50207E20312E32560052657134
:1015B90020746573742064617461005465737420C8
:1015C900646174610072656365697665640052439C
:1015D900207374617465203D200052657365742021
:1015E9004661696C656421005265736574205375A1
:1015F900636365737366756C00496E697469616CC0
:10160900697A696E672E2E2E002020204F73636938
:101619006C6C61746F7200436861726163746572A6
:10162900697A6174696F6E0057616974696E6720C0
:10163900666F7220486F737420746F2070696E67CB
:1016490000662800293D005465737420436F6D704E
:061659006C65746564007D
:100F8D00AF83E5829000B5F0EFA3F09000B7E4F0E9
:100F9D00E4A3F09000B3E0FEA3E0FF7D109000B558
:100FAD00E0FBA3E0FC339202ECCB25E0CB33FC90CD
:100FBD0000B5EBF0ECA3F09000B7E0FBA3E0CB2580
:100FCD00E0CB33FC9000B7EBF0ECA3F030021290C5
:100FDD0000B7E0FBA3E0FC9000B774014BF0ECA36D
:100FED00F09000B7E0FBA3E0FCC3EB9EEC9F401D2F
:100FFD009000B7EBC39EF0EC9FA3F09000B5E0FB23
:10100D00A3E0FC9000B574014BF0ECA3F0DD8E90E5
:10101D0000B5E0FEA3E08E82F58322AF82AE83ADF4
:10102D00F0FC9000BDEFF0EEA3F0EDA3F0ECA3F01B
:10103D009000C1E4F09000BDE0FCA3E0FDA3E0FE54
:10104D00A3E0FF7B009000B9E0F51BA3E0F51CA326
:10105D00E0F51DA3E0F51E235401FA7074C003E5FD
:10106D001B251BF8E51C33F9E51D33FAE51E33FB93
:10107D009000B9E8F0E9A3F0EAA3F0EBA3F090003B
:10108D00B9E0F51BA3E0F51CA3E0F51DA3E0F51EEB
:10109D00C3EC951BED951CEE951DEF951ED00350E1
:1010AD0027E51EC313F51EE51D13F51DE51C13F5F0
:1010BD001CE51B13F51B9000B9F0E51CA3F0E51D15
:1010CD00A3F0E51EA3F080090B9000C1EBF0021018
:1010DD00529000C1E0FF9000BDE0FBA3E0FCA3E057
:1010ED00FDA3E0FE9000B9E0F51BA3E0F51CA3E025
:1010FD00F51DA3E0F51EC3EB951BEC951CED951DA1
:10110D00EE951E40179000BDEBC3951BF0EC951CA2
:10111D00A3F0ED951DA3F0EE951EA3F09000B9E0A0
:10112D00FBA3E0FCA3E0FDA3E0C313FEED13FDEC78
:10113D0013FCEB13FB9000B9F0ECA3F0EDA3F0EE74
:10114D00A3F08F061FEE708E9000BDE0FCA3E0FDB6
:10115D00A3E0FEA3E08C828D838EF022AF82AE835E
:10116D00ADF0FC9000C6EFF0EEA3F0EDA3F0ECA314
:10117D00F09000CAE4F0E4A3F0E4A3F0E4A3F0904F
:10118D0000C2E0FCA3E0FDA3E0FEA3E0FF751B2081
:10119D009000C6E0F8A3E0F9A3E0FAA3E0FB3392D8
:1011AD0003E828F8E933F9EA33FAEB33FB9000C68C
:1011BD00E8F0E9A3F0EAA3F0EBA3F09000CAE0F8A1
:1011CD00A3E0F9A3E0FAA3E0FBE828F8E933F9EA94
:1011DD0033FAEB33FB9000CAE8F0E9A3F0EAA3F091
:1011ED00EBA3F030031E9000CAE0F8A3E0F9A3E0F2
:1011FD00FAA3E0FB9000CA740148F0E9A3F0EAA35A
:10120D00F0EBA3F09000CAE0F8A3E0F9A3E0FAA395
:10121D00E0FBC3E89CE99DEA9EEB9F40319000CA3C
:10122D00E8C39CF0E99DA3F0EA9EA3F0EB9FA3F029
:10123D009000C6E0F8A3E0F9A3E0FAA3E0FB90006C
:10124D00C6740148F0E9A3F0EAA3F0EBA3F0D51BB7
:10125D0002800302119D9000C6E0FCA3E0FDA3E017
:0A126D00FEA3E08C828D838EF02238
:06006000E478FFF6D8FD74
:10003E007900E94400601B7A0090165F78D675A0AF
:10004E0000E493F2A308B8000205A0D9F4DAF27521
:02005E00A0FF01
:10127700FCABF0AA83A982749EC2D1F582121562D3
:101287000213AB7F9E1212B130D1030213CCC3EF0E
:101297009582500974FFF5F0F583F58222790012E3
:1012A700151F89828A838BF0EC22AA82AB83A2F76F
:1012B7003392D1F5826002D2F7ACF02220F71130D9
:1012C700F6138883A88220F509F6A8837583002280
:1012D70080FEF280F5F022AA83AB828BF09000CFDC
:1012E700E0A4F8A9F08AF0E0A429F98BF0A3E0A420
:1012F70029F58388822222AF83E5829000D3F0EF1D
:10130700A3F09000D5E4F09000D3E0FEA3E0FF7DCA
:10131700009000D1E0FBA3E0FC235401FA7037EC06
:10132700CB25E0CB33FC9000D1EBF0ECA3F09000A1
:10133700D1E0FBA3E0FCC3EE9BEF9C5011ECC31381
:10134700CB13CBFC9000D1EBF0ECA3F080080D9011
:1013570000D5EDF080BB9000D5E0FF9000D3E0FD15
:10136700A3E0FE9000D1E0FBA3E0FCC3ED9BEE9C65
:10137700400B9000D3EDC39BF0EE9CA3F09000D1FF
:10138700E0FDA3E0C313CD13CDFE9000D1EDF0EE49
:10139700A3F08F061FEE70C39000D3E0FEA3E08E8C
:0413A70082F5832226
:100066007800E84400600A790075A000E4F309D836
:10007600FC78D6E84400600C7901900000E4F0A317
:04008600D8FCD9FACF
:1013AB00B98003EA13B34010EA2401FAE43BFBE4EF
:1013BB003CFC50047C800582BC000EBB000BBA00C9
:1013CB0008E4F5F0F583F58222A2D1E582138CF0C7
:1013DB0092F78B838A8222E4F583F58275F080F491
:1013EB00A2D11322E4F583F58275F0C0747F22AA93
:1013FB0082AB831214D56003A380F8C3E5829AF500
:10140B0082E5839BF583221214F130D502B2D1BF52
:10141B000009BC00030213EF0213E2BC000302132A
:10142B00CCE583B4FF0BE582B4FF030213EF021389
:10143B00CCE582B4FF030213E2C395835007247FEC
:10144B00400B0213CC24801450030213E2F582C329
:10145B00ED9AEE9BEF9C40111582C3EA33F9EB3307
:10146B00FAEC33FBE433FC8005E4CCCBCAF9C08245
:10147B0075F019C3E99DEA9EEB9FEC9400D5F00241
:10148B00802D400EE99DF9EA9EFAEB9FFBEC940050
:10149B00FCC3B3E833F8E58233F582E58333F58398
:1014AB00C3E933F9EA33FAEB33FBEC33FC80C4B317
:1014BB00E4F938FAE43582FBE43583FCD08250043E
:0A14CB0005827C801215620213C333
:0D003100758120121595E582600302002EF6
:1014D50020F71430F6148883A88220F507E6A88340
:1014E50075830022E280F7E49322E022AA82AB838F
:1014F500A2F73392D1F5826002D2F7ACF0E58124F0
:10150500F9F8E6FD08E6FE0886F008E6A2F733924C
:10151500D5F5836002D2F7AFF0226040F8258250FE
:101525000274FFF582E824F8501ECCCBCAF9E4CC4E
:1015350024F85014CBCAF9E4CB24F8500BCAF9E4CB
:10154500CA24F8500379002224086010F8C3EC136C
:10155500FCEB13FBEA13FAE913F9D8F1227804EC52
:101565007011E58224F8500AF582E4C9CACBFCD88B
:10157500EF22EC7820058220E713D5820122C3E90A
:1015850033F9EA33FAEB33FBEC33FCD8EA15822264
:041595007582002239
:00000001FF
