:040000000200313297
:01000B0032C2
:0100130032BA
:01001B0032B2
:0100230032AA
:03002B0002058A41
:03008A0002002E43
:03002E00020E6D52
:10008D00AF83E582900005F0EFA3F0900000E0FD56
:10009D00A3E0FEA3E0FF900003E0FBA3E0FC7A10D9
:1000AD001AEA2DF508E43EF5098F0A900005E0F8EF
:1000BD00A3E0F98B0B8C0C9000D2E50BF0E50CA3B3
:1000CD00F088828983C007C006C005C004C003C084
:1000DD000212133FA882A983D002D003D004D00509
:1000ED00D006D007743028F8850882850983850AE3
:1000FD00F0121304C374B988F063F08095F0501BAF
:10010D00850882850983850AF01215162407F9855D
:10011D000882850983850AF0121304900005E0F822
:10012D00A3E0F99000B4E50BF0E50CA3F08882890B
:10013D0083C007C006C005C004C003C002120FCEA5
:10014D00E5828583F0D002D003D004D005D006D04F
:10015D0007900005F0E5F0A3F0900005E0F8A3E0AE
:10016D00F94860030200AD7C008A038C020CEA2D75
:10017D00F508E43EF5098F0A8B020BEA2DF8E43EF3
:10018D00F98F02888289838AF0121516F885088204
:10019D00850983850AF0121304BB100040CDEC2DA8
:1001AD00FDE43EFE8D828E838FF0E4021304AF8357
:1001BD00E58290000CF0EFA3F090000CE0FEA3E0C0
:1001CD00FF30E76290000AE0FCA3E0FDBC0A57BDDA
:1001DD000054900007E0F9A3E0FAA3E0FB89828ABE
:1001ED00838BF0742D121304900007740129F0E431
:1001FD003AA3F0EBA3F0C3E49EF50DE49FF50E904A
:10020D000007E0F8A3E0F9A3E0FB900000E8F0E9B7
:10021D00A3F0EBA3F0900003ECF0EDA3F0850D82BD
:10022D00850E8302008D900007E0FBA3E0FCA3E0A8
:10023D00FD90000AE0F9A3E0FA900000EBF0ECA3CA
:10024D00F0EDA3F0900003E9F0EAA3F08E828F8326
:10025D0002008DAF83E582900050F0EFA3F0900087
:10026D0050E0FEA3E0FF7C007D00C3EE9CEF6480B8
:10027D008DF063F08095F040147A647B011ABAFF1B
:10028D00011BEA4B70F70CBC00E00D80DD22E5820E
:10029D00900052F0FFC4540FFE53060F74804EF5BC
:1002AD00A08EA0900001C007120260D00753070F67
:1002BD0074804FF5A08FA090000202026075A0001F
:1002CD0090000112026075A002D2A790000A1202DE
:1002DD0060C2A790000A12026075822812029B90DC
:1002ED00000112026075820112029B900001120240
:1002FD006075828012029B90000112026075820E61
:10030D0012029B900001020260E582900053F0FF03
:10031D00C4540FFE53060F74A04EF5A074204EF575
:10032D00A0900001C007120260D00753070F74A000
:10033D004FF5A074204FF5A0900001020260AFF0C0
:10034D00AE83E582900054F0EEA3F0EFA3F09000A1
:10035D0054E0FDA3E0FEA3E0FF7B007C0090005481
:10036D00E0F8A3E0F9A3E0FA888289838AF0C00758
:10037D00C006C005C004C00312143BE5828583F09E
:10038D00D003D004D005D006D00724FFF9E5F03412
:10039D00FFFAC3E99BEA9C4052BB101DBC001A75C5
:1003AD0082C0C007C006C005C004C00312029BD0A6
:1003BD0003D004D005D006D007EB2DF8EC3EF98F15
:1003CD0002888289838AF0121516F582C007C0064D
:1003DD00C005C004C003120316D003D004D005D04D
:1003ED0006D0070BBB00010C02036A22AF83E58226
:1003FD00900057F0EFA3F0900057E0FEA3E0FF7CD4
:10040D00007D00C3EC9EED9F501D758210C007C08E
:10041D0006C005C00412029BD004D005D006D0073B
:10042D000CBC00DF0D80DC2275820102029B7582FF
:10043D00C002029BE582900059F0FFC4540FFE24C8
:10044D00F6500990005B74372EF0800790005B74B6
:10045D00302EF090005BE0F582C007120316D00736
:10046D0053070FEF24F6500990005A74372FF08080
:10047D000790005A74302FF090005AE0F582020375
:10048D0016AF83E58290005CF0EFA3F090005CE086
:10049D00FEA3E0FF900007745EF07400A3F0E4A3E8
:1004AD00F090000A740AF0E4A3F08E828F8312019B
:1004BD00BB90005E75F00002034B759B1C759AF3A3
:1004CD007598507587002210990280FB22AFF0AE0F
:1004DD0083E582900060F0EEA3F0EFA3F090006052
:1004ED00E0FDA3E0FEA3E0FF7B007C00900060E058
:1004FD00F8A3E0F9A3E0FA888289838AF0C007C0E7
:10050D0006C005C004C00312143BE5828583F0D0FC
:10051D0003D004D005D006D00724FFF9E5F034FF51
:10052D00FAC3E99BEA9C4031EB2DF8EC3EF98F02C2
:10053D00888289838AF0121516F599C007C006C006
:10054D0005C004C0031204D4D003D004D005D006D6
:10055D00D0070BBB00960C809322E582900063F0D0
:10056D00F5990204D49015DA75F0801204DA7582CB
:10057D000D02056710980280FB85998222C0E0C0AC
:10058D0082C083C007C0D075D00030981190006430
:10059D00E599F0C298900064E0FFF582800D109906
:1005AD000280057582008003758200D0D0D007D0FF
:1005BD0083D082D0E0321204359015DC75F08012B4
:1005CD00034B7E007F00EE242CFCEF3400FDC007B2
:1005DD00C006C005C004120581AB82D004D005D081
:1005ED0006D0078C828D83EBF00EBE00010FC3EE9B
:1005FD009414EF940040CF1204359015EA75F080F5
:10060D0012034B12043B9015F975F08002034B7EDB
:10061D00007F00EE240EF582EF3400F583E0F582C5
:10062D00C007C006120567D006D0070EBE00010F29
:10063D00C3EE9414EF940040DA22E5C4235401FF75
:10064D0060F822AF83E582900065F0EFA3F0900093
:10065D0065E0FEA3E0FF4E700775C3BE43C34022A5
:10066D00BE0109BF000675C3BA43C3402253C3BFC1
:10067D0022C29290000A12026075C5A5120647E5C6
:10068D00C5D29222C29290000112026075C501126C
:10069D000647E5C590006412026075C50112064754
:1006AD0090004CE5C5F090006412026075C5011212
:1006BD00064790004BE5C5F090006412026075C5C9
:1006CD000112064790004AE5C5F0E5C5D2929000AB
:1006DD004AE0FF7E0090004BE0FCE42FFFEC3EFE75
:1006ED0090004CE0FD7C008C028D037C007D008F22
:1006FD0000EEF93395E0FEFFED28FDEC39FCEB3E05
:10070D00FBEA3F8D828C838BF01212B8AC82AD83E5
:10071D00AEF0FF749AC0E07499C0E0C0E0743EC0C2
:10072D00E08C828D838EF0EF121453AC82AD83AECC
:10073D00F0FFE58124FCF5818C828D838EF0EF0234
:10074D0012CBAF82AE83ADF0FC900067EFF0EEA35D
:10075D00F0EDA3F0ECA3F090006BE4F0E4A3F090C7
:10076D00006DE4F0E4A3F090006FE4F0E4A3F090EA
:10077D000071E4F0E4A3F0900073E4F0E4A3F090D2
:10078D000075E4F0E4A3F0900077E4F0E4A3F090BA
:10079D000079E4F0E4A3F090007BE4F0E4A3F090A2
:1007AD00007DE4F0E4A3F07E007F00900067E0F5AB
:1007BD0011A3E0F512A3E0F513A3E0F514E511453F
:1007CD001245134514700302085D8E00EFC825E035
:1007DD00C833F9E8246BF50FE93400F5109000BA31
:1007ED00740AF0E4A3F0E4A3F0E4A3F0851182858C
:1007FD0012838513F0E514C007C006121069A88294
:10080D00A983D006D007430030850F82851083E879
:10081D00F0E9A3F09000C3740AF0E4A3F0E4A3F0B0
:10082D00E4A3F08511828512838513F0E514C007CA
:10083D00C0061211AAAA82AB83ACF0FDD006D00778
:10084D00900067EAF0EBA3F0ECA3F0EDA3F08019B4
:10085D008E04EFCC25E0CC33FDEC246BF582ED342A
:10086D0000F5837430F0E4A3F00EBE00010FC3EE6B
:10087D00940AEF940050030207B87E007F008E05A6
:10088D007409C39D75F002A4246BF582740035F0D4
:10089D00F583E0FCA3E08C82C007C006120316D0DE
:1008AD0006D007EE4F700E75822EC007C0061203DC
:1008BD0016D006D0070EBE00010FC3EE9403EF94C1
:1008CD000040BB90160275F08002034BAF82AE83E1
:1008DD00ADF0FC90007FEFF0EEA3F0EDA3F0ECA3F4
:1008ED00F090007FE0FCA3E0FDA3E0FEA3E0FF8C11
:1008FD00157516007517007518008D008E018F0285
:10090D007B00430070C3748C9C740A9DE49EE49F2D
:10091D005038C003C002C001C00012043590160744
:10092D0075F08012034BD000D001D002D0038807A0
:10093D008F82120441AF158F8212044112043B9035
:10094D00160E75F08012034B80FEC29088C51206FC
:10095D00478515C5120647E5C5D29022AF83E582BE
:10096D00900083F0EFA3F0C29175C5011206479078
:10097D000083E0FEA3E0FF4E700375C588BE01063F
:10098D00BF000375C598BE0206BF000375C5A8BE9E
:10099D000306BF000375C5B8BE0406BF000375C5C9
:1009AD00C8BE0506BF000375C5D8BE0606BF000349
:1009BD0075C5E8BE0706BF000375C5F8120647AF3B
:1009CD00C57E0075C588C007C006120647D006D083
:1009DD0007ACC57D00EC2EFEED3FFFD29153070312
:1009ED008E828F83227E007F00BE132CBF0029EEE6
:1009FD002485FCEF3400FDEE240EF582EF3400F576
:100A0D0083E025E0FB90000EE0235401FAEB420257
:100A1D008C828D83EAF08031EE2485FCEF3400FD6D
:100A2D00EE240EF582EF3400F583E025E0FB8E0217
:100A3D00EA04240EF582E43400F583E0235401FA30
:100A4D00EB42028C828D83EAF00EBE00010FC3EEE5
:100A5D009414EF940040927E007F00EE240EFCEF84
:100A6D003400FDEE2485F582EF3400F583E0FB8C38
:100A7D00828D83F00EBE00010FC3EE9414EF94002F
:100A8D0040D9227E007F00BE132CBF0029EE249991
:100A9D00FCEF3400FDEE240EF582EF3400F583E01B
:100AAD0025E0FB90000EE0235401FAEB42028C820C
:100ABD008D83EAF08031EE2499FCEF3400FDEE24B5
:100ACD000EF582EF3400F583E025E0FB8E02EA049B
:100ADD00240EF582E43400F583E0235401FAEB4251
:100AED00028C828D83EAF00EBE00010FC3EE9414CA
:100AFD00EF940040927E007F00EE240EFCEF340058
:100B0D00FDEE2499F582EF3400F583E0FB8C828DA8
:100B1D0083F00EBE00010FC3EE9414EF940040D984
:100B2D0022AFF0AE83E5829000ADF0EEA3F0EFA31F
:100B3D00F0C2009000ADE0FDA3E0FEA3E0FF7C005D
:100B4D0020004C7B00EB2DF8E43EF98F0288828962
:100B5D00838AF0121516F8EB240EF582E43400F5B5
:100B6D0083E0FAE8B502028015C007C006C005C0D3
:100B7D00041209F2D004D005D006D007800BBB0FAC
:100B8D0002D2000BBB100040BC0CBCA00040B1A2B7
:100B9D000022C29375C5C8120647D2939000B0E5E6
:100BAD00C5F0E0F5822212067A9000011206507E01
:100BBD00007F00EE240EFCEF3400FDC007C006C020
:100BCD0005C004120B9FAB82D004D005D006D00710
:100BDD008C828D83EBF00EBE00010FC3EE9414EFEB
:100BED00940040CF12067A9000000206509000B19A
:100BFD00E580F0E0FF9000B1740F5FF012043590C6
:100C0D00161D75F08012034B9000B1E0FFF582C008
:100C1D000712044112043BD007EF6011901629759D
:100C2D00F08012034B9007D01202608009901637A6
:100C3D0075F08012034B9001F4020260D2B7D2849A
:100C4D00D285D286D287C2B5C2B6D294D296D29070
:100C5D00D291D292D2B4D293900064120260020B60
:100C6D00FAD2B7D284D285D286D287D2939000643D
:100C7D00120260C2B722E5829000B2F0D2869000D7
:100C8D000A1202609000B2E0F5C512064790000A04
:100C9D00120260C2869000B2E5C5F02290000A12E1
:100CAD000260C28590000A120260D2852290000A6D
:100CBD00120260C28490000A120260D284221206CF
:100CCD007A9000011206507E007F00EE242CF582F2
:100CDD00EF3400F583E0F582C007C006120C83D017
:100CED0006D0070EBE00010FC3EE9410EF94004026
:100CFD00DA12067A900000020650E5829000B3F0F9
:100D0D00FFBF0204C2B5C2B6EF7004D2B5C2B6BF02
:100D1D000104D2B5D2B6BF0304C2B5D2B622C2B455
:100D2D0090000112026075C58012064775C500124C
:100D3D00064775C50012064775C500120647900097
:100D4D0001120260D2B490000A120260C2B4900087
:100D5D000112026075C50012064775C503120647DC
:100D6D0075C5FF12064775C504120647900001129E
:100D7D000260D2B490000A120260C2B49000011257
:100D8D00026075C52B12064775C50012064775C55D
:100D9D000112064775C50E1206479000011202603A
:100DAD00D2B490000A120260C2B490000112026027
:100DBD0075C50012064775C50012064775C50112A7
:100DCD00064775C50F120647900001120260D2B496
:100DDD0090000A020260C2B490000112026075C553
:100DED008012064775C50012064775C500120647E5
:100DFD0075C500120647900001120260D2B4900032
:100E0D000A120260C2B490000112026075C5001290
:100E1D00064775C50312064775C5FF12064775C50A
:100E2D0004120647900001120260D2B490000A121B
:100E3D000260C2B490000112026075C568120647C7
:100E4D0075C50012064775C50012064775C50E1209
:100E5D000647900001120260D2B490000A020260AF
:100E6D001202CA90164875F08012034B120C49906D
:100E7D000000120650900000E4F5F01208D9120D92
:100E8D002B12043590165875F08012034B12043B4B
:100E9D0090166675F08012034B9003E812026012F3
:100EAD00043590167775F08012034B1204C71206A5
:100EBD007EC2877F00BF18004003020FBA8F057EE8
:100ECD00000DBD00010E9000D0EDF0EEA3F09000EE
:100EDD006EC00712131FAD82AE838D018E027B0093
:100EED007C0089828A838BF0ECC006C0051208D97C
:100EFD009003E8120260D005D0068D038E058D1982
:100F0D00C003120581120691A982AA83ACF0FED00E
:100F1D0003C006C004C003C002C001120435901600
:100F2D009075F08012034BD001D002D003D004D0C5
:100F3D0006D0078F007D0088828D83C007C006C054
:100F4D0004C003C002C00112048E90169375F08088
:100F5D0012034BD001D002D003D004D00689828A6F
:100F6D00838CF0EEC00312074F120581D003D0071A
:100F7D008F82C007C003120567851982120567D0DD
:100F8D00038B8212056790004AE0F5821205679087
:100F9D00004BE0F58212056790004CE0F5821205DA
:100FAD00679003E8120260D0070F020EC2120435DB
:100FBD0090169675F08012034B9013881202608084
:010FCD00FE25
:1015DA000A00526571207465737420646174610035
:1015EA007465737420646174612072656164006358
:1015FA006F6D706C657465002047487A00455252D9
:10160A004F522100444143204F2F50207E20312E3B
:10161A003256005243207374617465203D20005293
:10162A0065736574204661696C656421005265734F
:10163A006574205375636365737366756C00496ED0
:10164A00697469616C697A696E672E2E2E00202092
:10165A00204F7363696C6C61746F720043686172C6
:10166A006163746572697A6174696F6E0057616942
:10167A0074696E6720666F7220486F737420746F86
:10168A002070696E6700662800293D0054657374EE
:0B169A0020436F6D706C657465640088
:100FCE00AF83E5829000B6F0EFA3F09000B8E4F0A6
:100FDE00E4A3F09000B4E0FEA3E0FF7D109000B615
:100FEE00E0FBA3E0FC339201ECCB25E0CB33FC908D
:100FFE0000B6EBF0ECA3F09000B8E0FBA3E0CB253D
:10100E00E0CB33FC9000B8EBF0ECA3F03001129083
:10101E0000B8E0FBA3E0FC9000B874014BF0ECA329
:10102E00F09000B8E0FBA3E0FCC3EB9EEC9F401DEC
:10103E009000B8EBC39EF0EC9FA3F09000B6E0FBDF
:10104E00A3E0FC9000B674014BF0ECA3F0DD8E90A3
:10105E0000B6E0FEA3E08E82F58322AF82AE83ADB2
:10106E00F0FC9000BEEFF0EEA3F0EDA3F0ECA3F0D9
:10107E009000C2E4F09000BEE0FCA3E0FDA3E0FE11
:10108E00A3E0FF7B009000BAE0F51AA3E0F51BA3E6
:10109E00E0F51CA3E0F51D235401FA7074C003E5BE
:1010AE001A251AF8E51B33F9E51C33FAE51D33FB57
:1010BE009000BAE8F0E9A3F0EAA3F0EBA3F09000F9
:1010CE00BAE0F51AA3E0F51BA3E0F51CA3E0F51DAD
:1010DE00C3EC951AED951BEE951CEF951DD00350A4
:1010EE0027E51DC313F51DE51C13F51CE51B13F5B4
:1010FE001BE51A13F51A9000BAF0E51BA3F0E51CD8
:10110E00A3F0E51DA3F080090B9000C2EBF00210D6
:10111E00939000C2E0FF9000BEE0FBA3E0FCA3E0D2
:10112E00FDA3E0FE9000BAE0F51AA3E0F51BA3E0E4
:10113E00F51CA3E0F51DC3EB951AEC951BED951C64
:10114E00EE951D40179000BEEBC3951AF0EC951B63
:10115E00A3F0ED951CA3F0EE951DA3F09000BAE060
:10116E00FBA3E0FCA3E0FDA3E0C313FEED13FDEC37
:10117E0013FCEB13FB9000BAF0ECA3F0EDA3F0EE32
:10118E00A3F08F061FEE708E9000BEE0FCA3E0FD74
:10119E00A3E0FEA3E08C828D838EF022AF82AE831D
:1011AE00ADF0FC9000C7EFF0EEA3F0EDA3F0ECA3D2
:1011BE00F09000CBE4F0E4A3F0E4A3F0E4A3F0900D
:1011CE0000C3E0FCA3E0FDA3E0FEA3E0FF751A2040
:1011DE009000C7E0F8A3E0F9A3E0FAA3E0FB339296
:1011EE0002E828F8E933F9EA33FAEB33FB9000C74B
:1011FE00E8F0E9A3F0EAA3F0EBA3F09000CBE0F85F
:10120E00A3E0F9A3E0FAA3E0FBE828F8E933F9EA52
:10121E0033FAEB33FB9000CBE8F0E9A3F0EAA3F04E
:10122E00EBA3F030021E9000CBE0F8A3E0F9A3E0B0
:10123E00FAA3E0FB9000CB740148F0E9A3F0EAA317
:10124E00F0EBA3F09000CBE0F8A3E0F9A3E0FAA353
:10125E00E0FBC3E89CE99DEA9EEB9F40319000CBFA
:10126E00E8C39CF0E99DA3F0EA9EA3F0EB9FA3F0E8
:10127E009000C7E0F8A3E0F9A3E0FAA3E0FB90002A
:10128E00C7740148F0E9A3F0EAA3F0EBA3F0D51A76
:10129E000280030211DE9000C7E0FCA3E0FDA3E094
:0A12AE00FEA3E08C828D838EF022F7
:06006000E478FFF6D8FD74
:10003E007900E94400601B7A009016A578D775A068
:10004E0000E493F2A308B8000205A0D9F4DAF27521
:02005E00A0FF01
:1012B800FCABF0AA83A982749EC2D1F5821215A351
:1012C8000213EC7F9E1212F230D10302140DC3EF09
:1012D8009582500974FFF5F0F583F58222790012A2
:1012E800156089828A838BF0EC22AA82AB83A2F7ED
:1012F8003392D1F5826002D2F7ACF02220F7113098
:10130800F6138883A88220F509F6A883758300223E
:1013180080FEF280F5F022AA83AB828BF09000D099
:10132800E0A4F8A9F08AF0E0A429F98BF0A3E0A4DE
:1013380029F58388822222AF83E5829000D4F0EFDA
:10134800A3F09000D6E4F09000D4E0FEA3E0FF7D87
:10135800009000D2E0FBA3E0FC235401FA7037ECC4
:10136800CB25E0CB33FC9000D2EBF0ECA3F090005F
:10137800D2E0FBA3E0FCC3EE9BEF9C5011ECC3133F
:10138800CB13CBFC9000D2EBF0ECA3F080080D90CF
:1013980000D6EDF080BB9000D6E0FF9000D4E0FDD1
:1013A800A3E0FE9000D2E0FBA3E0FCC3ED9BEE9C23
:1013B800400B9000D4EDC39BF0EE9CA3F09000D2BC
:1013C800E0FDA3E0C313CD13CDFE9000D2EDF0EE07
:1013D800A3F08F061FEE70C39000D4E0FEA3E08E4A
:0413E80082F58322E5
:100066007800E84400600A790075A000E4F309D836
:10007600FC78D7E84400600C7901900000E4F0A316
:04008600D8FCD9FACF
:1013EC00B98003EA13B34010EA2401FAE43BFBE4AE
:1013FC003CFC50047C800582BC000EBB000BBA0088
:10140C0008E4F5F0F583F58222A2D1E582138CF085
:10141C0092F78B838A8222E4F583F58275F080F44F
:10142C00A2D11322E4F583F58275F0C0747F22AA51
:10143C0082AB831215166003A380F8C3E5829AF57C
:10144C0082E5839BF5832212153230D502B2D1BFCF
:10145C000009BC0003021430021423BC0003021464
:10146C000DE583B4FF0BE582B4FF030214300214C4
:10147C000DE582B4FF03021423C395835007247F28
:10148C00400B02140D2480145003021423F582C364
:10149C00ED9AEE9BEF9C40111582C3EA33F9EB33C6
:1014AC00FAEC33FBE433FC8005E4CCCBCAF9C08204
:1014BC0075F019C3E99DEA9EEB9FEC9400D5F00200
:1014CC00802D400EE99DF9EA9EFAEB9FFBEC94000F
:1014DC00FCC3B3E833F8E58233F582E58333F58357
:1014EC00C3E933F9EA33FAEB33FBEC33FC80C4B3D6
:1014FC00E4F938FAE43582FBE43583FCD0825004FD
:0A150C0005827C801215A30214046E
:0D0031007581201215D6E582600302002EB5
:1015160020F71430F6148883A88220F507E6A883FE
:1015260075830022E280F7E49322E022AA82AB834D
:10153600A2F73392D1F5826002D2F7ACF0E58124AE
:10154600F9F8E6FD08E6FE0886F008E6A2F733920B
:10155600D5F5836002D2F7AFF0226040F8258250BD
:101566000274FFF582E824F8501ECCCBCAF9E4CC0D
:1015760024F85014CBCAF9E4CB24F8500BCAF9E48A
:10158600CA24F8500379002224086010F8C3EC132B
:10159600FCEB13FBEA13FAE913F9D8F1227804EC11
:1015A6007011E58224F8500AF582E4C9CACBFCD84A
:1015B600EF22EC7820058220E713D5820122C3E9C9
:1015C60033F9EA33FAEB33FBEC33FCD8EA15822223
:0415D60075820022F8
:00000001FF
