:040000000200313297
:01000B0032C2
:0100130032BA
:01001B0032B2
:0100230032AA
:03002B0002058A41
:03008A0002002E43
:03002E00020F9628
:10008D00AF83E582900005F0EFA3F0900000E0FD56
:10009D00A3E0FEA3E0FF900003E0FBA3E0FC7A10D9
:1000AD001AEA2DF508E43EF5098F0A900005E0F8EF
:1000BD00A3E0F98B0B8C0C9000D3E50BF0E50CA3B2
:1000CD00F088828983C007C006C005C004C003C084
:1000DD000212137DA882A983D002D003D004D005CB
:1000ED00D006D007743028F8850882850983850AE3
:1000FD00F0121362C374B988F063F08095F0501B51
:10010D00850882850983850AF01215542407F9851F
:10011D000882850983850AF0121362900005E0F8C4
:10012D00A3E0F99000B7E50BF0E50CA3F088828908
:10013D0083C007C006C005C004C003C00212102C46
:10014D00E5828583F0D002D003D004D005D006D04F
:10015D0007900005F0E5F0A3F0900005E0F8A3E0AE
:10016D00F94860030200AD7C008A038C020CEA2D75
:10017D00F508E43EF5098F0A8B020BEA2DF8E43EF3
:10018D00F98F02888289838AF0121554F8850882C6
:10019D00850983850AF0121362BB100040CDEC2D4A
:1001AD00FDE43EFE8D828E838FF0E4021362AF83F9
:1001BD00E58290000CF0EFA3F090000CE0FEA3E0C0
:1001CD00FF30E76290000AE0FCA3E0FDBC0A57BDDA
:1001DD000054900007E0F9A3E0FAA3E0FB89828ABE
:1001ED00838BF0742D121362900007740129F0E4D3
:1001FD003AA3F0EBA3F0C3E49EF50DE49FF50E904A
:10020D000007E0F8A3E0F9A3E0FB900000E8F0E9B7
:10021D00A3F0EBA3F0900003ECF0EDA3F0850D82BD
:10022D00850E8302008D900007E0FBA3E0FCA3E0A8
:10023D00FD90000AE0F9A3E0FA900000EBF0ECA3CA
:10024D00F0EDA3F0900003E9F0EAA3F08E828F8326
:10025D0002008DAF83E582900050F0EFA3F0900087
:10026D0050E0FEA3E0FF7C007D00C3EE9CEF6480B8
:10027D008DF063F08095F040147A647B011ABAFF1B
:10028D00011BEA4B70F70CBC00E00D80DD22E5820E
:10029D00900052F0FFC4540FFE53060F74804EF5BC
:1002AD00A08EA0900001C007120260D00753070F67
:1002BD0074804FF5A08FA090000202026075A0001F
:1002CD0090000112026075A002D2A790000A1202DE
:1002DD0060C2A790000A12026075822812029B90DC
:1002ED00000112026075820112029B900001120240
:1002FD006075828012029B90000112026075820E61
:10030D0012029B900001020260E582900053F0FF03
:10031D00C4540FFE53060F74A04EF5A074204EF575
:10032D00A0900001C007120260D00753070F74A000
:10033D004FF5A074204FF5A0900001020260AFF0C0
:10034D00AE83E582900054F0EEA3F0EFA3F09000A1
:10035D0054E0FDA3E0FEA3E0FF7B007C0090005481
:10036D00E0F8A3E0F9A3E0FA888289838AF0C00758
:10037D00C006C005C004C003121479E5828583F060
:10038D00D003D004D005D006D00724FFF9E5F03412
:10039D00FFFAC3E99BEA9C4052BB101DBC001A75C5
:1003AD0082C0C007C006C005C004C00312029BD0A6
:1003BD0003D004D005D006D007EB2DF8EC3EF98F15
:1003CD0002888289838AF0121554F582C007C0060F
:1003DD00C005C004C003120316D003D004D005D04D
:1003ED0006D0070BBB00010C02036A22AF83E58226
:1003FD00900057F0EFA3F0900057E0FEA3E0FF7CD4
:10040D00007D00C3EC9EED9F501D758210C007C08E
:10041D0006C005C00412029BD004D005D006D0073B
:10042D000CBC00DF0D80DC2275820102029B7582FF
:10043D00C002029BE582900059F0FFC4540FFE24C8
:10044D00F6500990005B74372EF0800790005B74B6
:10045D00302EF090005BE0F582C007120316D00736
:10046D0053070FEF24F6500990005A74372FF08080
:10047D000790005A74302FF090005AE0F582020375
:10048D0016AF83E58290005CF0EFA3F090005CE086
:10049D00FEA3E0FF900007745EF07400A3F0E4A3E8
:1004AD00F090000A740AF0E4A3F08E828F8312019B
:1004BD00BB90005E75F00002034B759B1C759AF3A3
:1004CD007598507587002210990280FB22AFF0AE0F
:1004DD0083E582900060F0EEA3F0EFA3F090006052
:1004ED00E0FDA3E0FEA3E0FF7B007C00900060E058
:1004FD00F8A3E0F9A3E0FA888289838AF0C007C0E7
:10050D0006C005C004C003121479E5828583F0D0BE
:10051D0003D004D005D006D00724FFF9E5F034FF51
:10052D00FAC3E99BEA9C4031EB2DF8EC3EF98F02C2
:10053D00888289838AF0121554F599C007C006C0C8
:10054D0005C004C0031204D4D003D004D005D006D6
:10055D00D0070BBB00960C809322E582900063F0D0
:10056D00F5990204D490161875F0801204DA75828C
:10057D000D02056710980280FB85998222C0E0C0AC
:10058D0082C083C007C0D075D00030981190006430
:10059D00E599F0C298900064E0FFF582800D109906
:1005AD000280057582008003758200D0D0D007D0FF
:1005BD0083D082D0E03212043590161A75F0801275
:1005CD00034B7E007F00EE242CFCEF3400FDC007B2
:1005DD00C006C005C004120581AB82D004D005D081
:1005ED0006D0078C828D83EBF00EBE00010FC3EE9B
:1005FD009414EF940040CF12043590162875F080B6
:10060D0012034B12043B90163775F08002034B7E9C
:10061D00007F00EE240EF582EF3400F583E0F582C5
:10062D00C007C006120567D006D0070EBE00010F29
:10063D00C3EE9414EF940040DA22AF83E58290006C
:10064D0065F0EFA3F0900065E0FEA3E0FF900007DA
:10065D007467F07400A3F0E4A3F090000A740AF03C
:10066D00E4A3F08E828F831201BB90006775F000BA
:10067D000204DAE5C4235401FF60F822AF83E5825A
:10068D00900069F0EFA3F0900069E0FEA3E0FF4E4B
:10069D00700775C3BE43C34022BE0109BF00067576
:1006AD00C3BA43C3402253C3BF22C29290000A1261
:1006BD00026075C5A5120680E5C5D29222C2929040
:1006CD00000112026075C501120680E5C590006437
:1006DD0012026075C50112068090004CE5C5F090C0
:1006ED00006412026075C50112068090004BE5C5CD
:1006FD00F090006412026075C50112068090004AE8
:10070D00E5C5F0E5C5D29290004AE0FF7E0090006D
:10071D004BE0FCE42FFFEC3EFE90004CE0FD7C0036
:10072D008C028D037C007D008F00EEF93395E0FE89
:10073D00FFED28FDEC39FCEB3EFBEA3F8D828C830F
:10074D008BF0121316AC82AD83AEF0FF749AC0E03D
:10075D007499C0E0C0E0743EC0E08C828D838EF051
:10076D00EF121491AC82AD83AEF0FFE58124FCF560
:10077D00818C828D838EF0EF021329AF82AE83AD13
:10078D00F0FC90006BEFF0EEA3F0EDA3F0ECA3F016
:10079D0090006FE4F0E4A3F0900071E4F0E4A3F0B6
:1007AD00900073E4F0E4A3F0900075E4F0E4A3F09E
:1007BD00900077E4F0E4A3F0900079E4F0E4A3F086
:1007CD0090007BE4F0E4A3F090007DE4F0E4A3F06E
:1007DD0090007FE4F0E4A3F0900081E4F0E4A3F056
:1007ED007E007F0090006BE0F511A3E0F512A3E011
:1007FD00F513A3E0F514E5114512451345147003E7
:10080D000208968E00EFC825E0C833F9E8246FF58D
:10081D000FE93400F5109000BD740AF0E4A3F0E484
:10082D00A3F0E4A3F08511828512838513F0E514FE
:10083D00C007C0061210C7A882A983D006D00743EF
:10084D000030850F82851083E8F0E9A3F09000C693
:10085D00740AF0E4A3F0E4A3F0E4A3F0851182851B
:10086D0012838513F0E514C007C006121208AA8280
:10087D00AB83ACF0FDD006D00790006BEAF0EBA394
:10088D00F0ECA3F0EDA3F080198E04EFCC25E0CCB5
:10089D0033FDEC246FF582ED3400F5837430F0E414
:1008AD00A3F00EBE00010FC3EE940AEF94005003A7
:1008BD000207F17E007F008E057409C39D75F0025D
:1008CD00A4246FF582740035F0F583E0FCA3E08C71
:1008DD0082C007C006120316D006D007EE4F700E69
:1008ED0075822EC007C006120316D006D0070EBEA5
:1008FD0000010FC3EE9403EF940040BB90164075BA
:10090D00F08002034BAF82AE83ADF0FC900083EF1D
:10091D00F0EEA3F0EDA3F0ECA3F0900083E0FCA3C8
:10092D00E0FDA3E0FEA3E0FF8C1575160075170022
:10093D007518008D008E018F027B00747048F519BB
:10094D00891A8A1B8B1CC374729C740C9DE49EE4E3
:10095D009F502812043590164575F08012034BAB4D
:10096D00198B82120441A815888212044112043B8E
:10097D0090164C75F08012034B80FEC3748C9C74E2
:10098D000A9DE49EE49F504312043590165B75F06A
:10099D008012034BA8198882C000120441D000AF09
:1009AD00158F82C007C00012044112043B901663DC
:1009BD0075F08012034BD000C29088C5120680D00E
:1009CD00078FC5120680E5C5D29022C2908519C544
:1009DD001206808515C5120680E5C5D29022AF831B
:1009ED00E582900087F0EFA3F0C29175C501120664
:1009FD0080900087E0FEA3E0FF4E700375C588BEB2
:100A0D000106BF000375C598BE0206BF000375C57C
:100A1D00A8BE0306BF000375C5B8BE0406BF00031C
:100A2D0075C5C8BE0506BF000375C5D8BE0606BF91
:100A3D00000375C5E8BE0706BF000375C5F81206AD
:100A4D0080AFC57E0075C588C007C006120680D070
:100A5D0006D007ACC57D00EC2EFEED3FFFD29153C5
:100A6D0007038E828F83227E007F00BE132CBF0072
:100A7D0029EE2489FCEF3400FDEE240EF582EF34CF
:100A8D0000F583E025E0FB90000EE0235401FAEB26
:100A9D0042028C828D83EAF08031EE2489FCEF34A2
:100AAD0000FDEE240EF582EF3400F583E025E0FB2A
:100ABD008E02EA04240EF582E43400F583E023541B
:100ACD0001FAEB42028C828D83EAF00EBE00010F1B
:100ADD00C3EE9414EF940040927E007F00EE240E3E
:100AED00FCEF3400FDEE2489F582EF3400F583E050
:100AFD00FB8C828D83F00EBE00010FC3EE9414EFBC
:100B0D00940040D9227E007F00BE132CBF0029EE39
:100B1D00249DFCEF3400FDEE240EF582EF3400F53C
:100B2D0083E025E0FB90000EE0235401FAEB420236
:100B3D008C828D83EAF08031EE249DFCEF3400FD34
:100B4D00EE240EF582EF3400F583E025E0FB8E02F6
:100B5D00EA04240EF582E43400F583E0235401FA0F
:100B6D00EB42028C828D83EAF00EBE00010FC3EEC4
:100B7D009414EF940040927E007F00EE240EFCEF63
:100B8D003400FDEE249DF582EF3400F583E0FB8CFF
:100B9D00828D83F00EBE00010FC3EE9414EF94000E
:100BAD0040D922C2017F0020013A7E00EE242CF5AF
:100BBD0082E43400F583E0FDEE240EF582E434008A
:100BCD00F583E0FCEDB504028009C007120A74D06C
:100BDD0007800BBE0F02D2010EBE100040CE0FBF1C
:100BED00A00040C3A20122C29375C5C8120680D2CF
:100BFD00939000B1E5C5F0E0F582221206B39000A6
:100C0D0001120689D2947E007F00EE240EFCEF3493
:100C1D0000FDC007C006C005C004120BF4AB82D0A6
:100C2D0004D005D006D0078C828D83EBF00EBE006C
:100C3D00010FC3EE9414EF940040CF0206B3C2939C
:100C4D0075C5C8120680D2939000B2E5C5F0E0F5E7
:100C5D0082221206B3900001120689C2947E007F93
:100C6D0000EE240EFCEF3400FDC007C006C005C029
:100C7D0004120C4BAB82D004D005D006D0078C8269
:100C8D008D83EBF00EBE00010FC3EE9414EF9400B4
:100C9D0040CF0206B39000B3E580F0E0FF9000B3C3
:100CAD00740F5FF012043590167275F08012034BBD
:100CBD009000B3E0FFF582C00712044112043BD04F
:100CCD0007EF600B90167E75F08012034B80099034
:100CDD00168C75F08012034B9001F4020260D2B7AE
:100CED00D284D285D286D287C2B5C2B6D294D296DC
:100CFD00D290D291D292D2B4D2939000641202606B
:100D0D00020CA2D2B7D284D285C286D287C2B5C216
:100D1D00B6D294D296D290D291D292D2B4D293909E
:100D2D000064120260020CA2D2B7D284D285D286A0
:100D3D00D287D293900064120260C2B722E58290EE
:100D4D0000B4F0C28690000A1202609000B4E0F583
:100D5D00C512068090000A120260D2869000B4E59A
:100D6D00C5F022E5829000B5F0D28690000A1202FD
:100D7D00609000B5E0F5C512068090000A12026081
:100D8D00C2869000B5E5C5F0221206B3900001129F
:100D9D0006897E007F00EE242CF582EF3400F5836A
:100DAD00E0F582C007C006120D4AD006D0070EBE70
:100DBD0000010FC3EE9410EF940040DA1206B390C9
:100DCD0000000206891206B39000011206897E000A
:100DDD007F00EE242CF582EF3400F583E0F582C020
:100DED0007C006120D70D006D0070EBE00010FC34E
:100DFD00EE9410EF940040DA1206B3900000020654
:100E0D008990000A120260C28590000A120260D217
:100E1D00852290000A120260C28490000A120260BC
:100E2D00D28422E5829000B6F0FFBF0204C2B5C2A3
:100E3D00B6EF7004D2B5C2B6BF0104D2B5D2B6BFFB
:100E4D000304C2B5D2B622C2B4900001120260757D
:100E5D00C58012068075C50012068075C500120684
:100E6D008075C500120680900001120260D2B49008
:100E7D00000A120260C2B490000112026075C50032
:100E8D0012068075C50312068075C5FF12068075A2
:100E9D00C504120680900001120260D2B490000ABF
:100EAD00120260C2B490000112026075C52B1206C9
:100EBD008075C50012068075C50112068075C50EB8
:100ECD00120680900001120260D2B490000A120244
:100EDD0060C2B490000112026075C50012068075E3
:100EED00C50012068075C50112068075C50F120664
:100EFD0080900001120260D2B490000A020260C21A
:100F0D00B490000112026075C58012068075C5008F
:100F1D0012068075C50012068075C50012068090F8
:100F2D000001120260D2B490000A120260C2B490A5
:100F3D00000112026075C50012068075C503120608
:100F4D008075C5FF12068075C504120680900001DC
:100F5D00120260D2B490000A120260C2B490000175
:100F6D0012026075C56812068075C500120680757F
:100F7D00C50012068075C50E120680900001120282
:100F8D0060D2B490000A0202601202CA90169D75DA
:100F9D00F08012034B120CEB9000001206899000AA
:100FAD0000E4F5F0120912120F0C1204351204C7E9
:100FBD009016AD75F08012034B1205811204359019
:100FCD0016C275F08012034B12043B9016CE75F0CD
:100FDD008012034B9003E81202609004BAE4F5F01E
:100FED00120912C2B7C2871204359016DF75F08050
:100FFD0012034B12043B9016EA75F08012034B90CE
:10100D0003E81202601204359016F375F080120396
:0F101D004B1206CA1207889003E812026080F295
:101618000A005265712074657374206461746100F6
:101628007465737420646174612072656164006319
:101638006F6D706C657465002047487A004552529A
:101648004F522100444143204F2F50207E20312EFD
:101658003456005761726E696E6700444143204FEB
:101668002F50203E20312E32560052432073746191
:101678007465203D20005265736574204661696C6D
:1016880065642100526573657420537563636573DF
:101698007366756C00496E697469616C697A696E04
:1016A800672E2E2E00536574204A756D706572730F
:1016B80020616E642070696E6700506861736520F0
:1016C8004E6F69736500436861726163746572691E
:1016D8007A6174696F6E004F7363696C6C61746FC3
:1016E80072006269617320736574004D656173757A
:0C16F800726520537065637472756D009C
:10102C00AF83E5829000B9F0EFA3F09000BBE4F041
:10103C00E4A3F09000B7E0FEA3E0FF7D109000B9B0
:10104C00E0FBA3E0FC339202ECCB25E0CB33FC902D
:10105C0000B9EBF0ECA3F09000BBE0FBA3E0CB25D8
:10106C00E0CB33FC9000BBEBF0ECA3F03002129021
:10107C0000BBE0FBA3E0FC9000BB74014BF0ECA3C5
:10108C00F09000BBE0FBA3E0FCC3EB9EEC9F401D8B
:10109C009000BBEBC39EF0EC9FA3F09000B9E0FB7B
:1010AC00A3E0FC9000B974014BF0ECA3F0DD8E9042
:1010BC0000B9E0FEA3E08E82F58322AF82AE83AD51
:1010CC00F0FC9000C1EFF0EEA3F0EDA3F0ECA3F078
:1010DC009000C5E4F09000C1E0FCA3E0FDA3E0FEAD
:1010EC00A3E0FF7B009000BDE0F521A3E0F522A377
:1010FC00E0F523A3E0F524235401FA7074C003E552
:10110C00212521F8E52233F9E52333FAE52433FBD5
:10111C009000BDE8F0E9A3F0EAA3F0EBA3F0900097
:10112C00BDE0F521A3E0F522A3E0F523A3E0F5242F
:10113C00C3EC9521ED9522EE9523EF9524D0035029
:10114C0027E524C313F524E52313F523E52213F532
:10115C0022E52113F5219000BDF0E522A3F0E52353
:10116C00A3F0E524A3F080090B9000C5EBF002106E
:10117C00F19000C5E0FF9000C1E0FBA3E0FCA3E010
:10118C00FDA3E0FE9000BDE0F521A3E0F522A3E075
:10119C00F523A3E0F524C3EB9521EC9522ED9523E3
:1011AC00EE952440179000C1EBC39521F0EC9522ED
:1011BC00A3F0ED9523A3F0EE9524A3F09000BDE0F1
:1011CC00FBA3E0FCA3E0FDA3E0C313FEED13FDECD9
:1011DC0013FCEB13FB9000BDF0ECA3F0EDA3F0EED1
:1011EC00A3F08F061FEE708E9000C1E0FCA3E0FD13
:1011FC00A3E0FEA3E08C828D838EF022AF82AE83BF
:10120C00ADF0FC9000CAEFF0EEA3F0EDA3F0ECA370
:10121C00F09000CEE4F0E4A3F0E4A3F0E4A3F090AB
:10122C0000C6E0FCA3E0FDA3E0FEA3E0FF752120D7
:10123C009000CAE0F8A3E0F9A3E0FAA3E0FB339234
:10124C0003E828F8E933F9EA33FAEB33FB9000CAE8
:10125C00E8F0E9A3F0EAA3F0EBA3F09000CEE0F8FD
:10126C00A3E0F9A3E0FAA3E0FBE828F8E933F9EAF4
:10127C0033FAEB33FB9000CEE8F0E9A3F0EAA3F0ED
:10128C00EBA3F030031E9000CEE0F8A3E0F9A3E04E
:10129C00FAA3E0FB9000CE740148F0E9A3F0EAA3B6
:1012AC00F0EBA3F09000CEE0F8A3E0F9A3E0FAA3F2
:1012BC00E0FBC3E89CE99DEA9EEB9F40319000CE99
:1012CC00E8C39CF0E99DA3F0EA9EA3F0EB9FA3F08A
:1012DC009000CAE0F8A3E0F9A3E0FAA3E0FB9000C9
:1012EC00CA740148F0E9A3F0EAA3F0EBA3F0D5210E
:1012FC0002800302123C9000CAE0FCA3E0FDA3E0D4
:0A130C00FEA3E08C828D838EF02298
:06006000E478FFF6D8FD74
:10003E007900E94400601B7A0090170478D875A007
:10004E0000E493F2A308B8000205A0D9F4DAF27521
:02005E00A0FF01
:10131600FCABF0AA83A982749EC2D1F5821215E1B4
:1013260002142A7F9E12135030D10302144BC3EFCE
:101336009582500974FFF5F0F583F5822279001243
:10134600159E89828A838BF0EC22AA82AB83A2F750
:101356003392D1F5826002D2F7ACF02220F7113039
:10136600F6138883A88220F509F6A88375830022E0
:1013760080FEF280F5F022AF83E5829000D5F0EF93
:10138600A3F09000D7E4F09000D5E0FEA3E0FF7D47
:10139600009000D3E0FBA3E0FC235401FA7037EC85
:1013A600CB25E0CB33FC9000D3EBF0ECA3F0900020
:1013B600D3E0FBA3E0FCC3EE9BEF9C5011ECC31300
:1013C600CB13CBFC9000D3EBF0ECA3F080080D9090
:1013D60000D7EDF080BB9000D7E0FF9000D5E0FD90
:1013E600A3E0FE9000D3E0FBA3E0FCC3ED9BEE9CE4
:1013F600400B9000D5EDC39BF0EE9CA3F09000D37C
:10140600E0FDA3E0C313CD13CDFE9000D3EDF0EEC7
:10141600A3F08F061FEE70C39000D5E0FEA3E08E0A
:0414260082F58322A6
:100066007800E84400600A790075A000E4F309D836
:10007600FC78D8E84400600C7901900000E4F0A315
:04008600D8FCD9FACF
:10142A00B98003EA13B34010EA2401FAE43BFBE46F
:10143A003CFC50047C800582BC000EBB000BBA0049
:10144A0008E4F5F0F583F58222A2D1E582138CF047
:10145A0092F78B838A8222E4F583F58275F080F411
:10146A00A2D11322E4F583F58275F0C0747F22AA13
:10147A0082AB831215546003A380F8C3E5829AF500
:10148A0082E5839BF5832212157030D502B2D1BF53
:10149A000009BC000302146E021461BC00030214AA
:1014AA004BE583B4FF0BE582B4FF0302146E02140A
:1014BA004BE582B4FF03021461C395835007247F6E
:1014CA00400B02144B2480145003021461F582C3AA
:1014DA00ED9AEE9BEF9C40111582C3EA33F9EB3388
:1014EA00FAEC33FBE433FC8005E4CCCBCAF9C082C6
:1014FA0075F019C3E99DEA9EEB9FEC9400D5F002C2
:10150A00802D400EE99DF9EA9EFAEB9FFBEC9400D0
:10151A00FCC3B3E833F8E58233F582E58333F58318
:10152A00C3E933F9EA33FAEB33FBEC33FC80C4B397
:10153A00E4F938FAE43582FBE43583FCD0825004BE
:0A154A0005827C801215E1021442B4
:0D003100758124121614E582600302002E72
:1015540020F71430F6148883A88220F507E6A883C0
:1015640075830022E280F7E49322E022AA82AB830F
:10157400A2F73392D1F5826002D2F7ACF0E5812470
:10158400F9F8E6FD08E6FE0886F008E6A2F73392CD
:10159400D5F5836002D2F7AFF0226040F82582507F
:1015A4000274FFF582E824F8501ECCCBCAF9E4CCCF
:1015B40024F85014CBCAF9E4CB24F8500BCAF9E44C
:1015C400CA24F8500379002224086010F8C3EC13ED
:1015D400FCEB13FBEA13FAE913F9D8F1227804ECD3
:1015E4007011E58224F8500AF582E4C9CACBFCD80C
:1015F400EF22EC7820058220E713D5820122C3E98B
:1016040033F9EA33FAEB33FBEC33FCD8EA158222E4
:0416140075820022B9
:00000001FF
