:040000000200313297
:01000B0032C2
:0100130032BA
:01001B0032B2
:0100230032AA
:03002B0002058A41
:03008A0002002E43
:03002E00020F536B
:10008D00AF83E582900005F0EFA3F0900000E0FD56
:10009D00A3E0FEA3E0FF900003E0FBA3E0FC7A10D9
:1000AD001AEA2DF508E43EF5098F0A900005E0F8EF
:1000BD00A3E0F98B0B8C0C9000D5E50BF0E50CA3B0
:1000CD00F088828983C007C006C005C004C003C084
:1000DD0002121425A882A983D002D003D004D00522
:1000ED00D006D007743028F8850882850983850AE3
:1000FD00F01213EAC374B988F063F08095F0501BC9
:10010D00850882850983850AF01215FC2407F98577
:10011D000882850983850AF01213EA900005E0F83C
:10012D00A3E0F99000B7E50BF0E50CA3F088828908
:10013D0083C007C006C005C004C003C0021210B4BE
:10014D00E5828583F0D002D003D004D005D006D04F
:10015D0007900005F0E5F0A3F0900005E0F8A3E0AE
:10016D00F94860030200AD7C008A038C020CEA2D75
:10017D00F508E43EF5098F0A8B020BEA2DF8E43EF3
:10018D00F98F02888289838AF01215FCF88508821E
:10019D00850983850AF01213EABB100040CDEC2DC2
:1001AD00FDE43EFE8D828E838FF0E40213EAAF8371
:1001BD00E58290000CF0EFA3F090000CE0FEA3E0C0
:1001CD00FF30E76290000AE0FCA3E0FDBC0A57BDDA
:1001DD000054900007E0F9A3E0FAA3E0FB89828ABE
:1001ED00838BF0742D1213EA900007740129F0E44B
:1001FD003AA3F0EBA3F0C3E49EF50DE49FF50E904A
:10020D000007E0F8A3E0F9A3E0FB900000E8F0E9B7
:10021D00A3F0EBA3F0900003ECF0EDA3F0850D82BD
:10022D00850E8302008D900007E0FBA3E0FCA3E0A8
:10023D00FD90000AE0F9A3E0FA900000EBF0ECA3CA
:10024D00F0EDA3F0900003E9F0EAA3F08E828F8326
:10025D0002008DAF83E582900050F0EFA3F0900087
:10026D0050E0FEA3E0FF7C007D00C3EE9CEF6480B8
:10027D008DF063F08095F040147A647B011ABAFF1B
:10028D00011BEA4B70F70CBC00E00D80DD22E5820E
:10029D00900052F0FFC4540FFE53060F74804EF5BC
:1002AD00A08EA0900001C007120260D00753070F67
:1002BD0074804FF5A08FA090000202026075A0001F
:1002CD0090000112026075A002D2A790000A1202DE
:1002DD0060C2A790000A12026075822812029B90DC
:1002ED00000112026075820112029B900001120240
:1002FD006075828012029B90000112026075820E61
:10030D0012029B900001020260E582900053F0FF03
:10031D00C4540FFE53060F74A04EF5A074204EF575
:10032D00A0900001C007120260D00753070F74A000
:10033D004FF5A074204FF5A0900001020260AFF0C0
:10034D00AE83E582900054F0EEA3F0EFA3F09000A1
:10035D0054E0FDA3E0FEA3E0FF7B007C0090005481
:10036D00E0F8A3E0F9A3E0FA888289838AF0C00758
:10037D00C006C005C004C003121521E5828583F0B7
:10038D00D003D004D005D006D00724FFF9E5F03412
:10039D00FFFAC3E99BEA9C4052BB101DBC001A75C5
:1003AD0082C0C007C006C005C004C00312029BD0A6
:1003BD0003D004D005D006D007EB2DF8EC3EF98F15
:1003CD0002888289838AF01215FCF582C007C00667
:1003DD00C005C004C003120316D003D004D005D04D
:1003ED0006D0070BBB00010C02036A22AF83E58226
:1003FD00900057F0EFA3F0900057E0FEA3E0FF7CD4
:10040D00007D00C3EC9EED9F501D758210C007C08E
:10041D0006C005C00412029BD004D005D006D0073B
:10042D000CBC00DF0D80DC2275820102029B7582FF
:10043D00C002029BE582900059F0FFC4540FFE24C8
:10044D00F6500990005B74372EF0800790005B74B6
:10045D00302EF090005BE0F582C007120316D00736
:10046D0053070FEF24F6500990005A74372FF08080
:10047D000790005A74302FF090005AE0F582020375
:10048D0016AF83E58290005CF0EFA3F090005CE086
:10049D00FEA3E0FF900007745EF07400A3F0E4A3E8
:1004AD00F090000A740AF0E4A3F08E828F8312019B
:1004BD00BB90005E75F00002034B759B1C759AF3A3
:1004CD007598507587002210990280FB22AFF0AE0F
:1004DD0083E582900060F0EEA3F0EFA3F090006052
:1004ED00E0FDA3E0FEA3E0FF7B007C00900060E058
:1004FD00F8A3E0F9A3E0FA888289838AF0C007C0E7
:10050D0006C005C004C003121521E5828583F0D015
:10051D0003D004D005D006D00724FFF9E5F034FF51
:10052D00FAC3E99BEA9C4031EB2DF8EC3EF98F02C2
:10053D00888289838AF01215FCF599C007C006C020
:10054D0005C004C0031204D4D003D004D005D006D6
:10055D00D0070BBB00960C809322E582900063F0D0
:10056D00F5990204D49016C075F0801204DA7582E4
:10057D000D02056710980280FB85998222C0E0C0AC
:10058D0082C083C007C0D075D00030981190006430
:10059D00E599F0C298900064E0FFF582800D109906
:1005AD000280057582008003758200D0D0D007D0FF
:1005BD0083D082D0E0321204359016C275F08012CD
:1005CD00034B7E007F00EE242CFCEF3400FDC007B2
:1005DD00C006C005C004120581AB82D004D005D081
:1005ED0006D0078C828D83EBF00EBE00010FC3EE9B
:1005FD009414EF940040CF1204359016D075F0800E
:10060D0012034B12043B9016DF75F08002034B7EF4
:10061D00007F00EE240EF582EF3400F583E0F582C5
:10062D00C007C006120567D006D0070EBE00010F29
:10063D00C3EE9414EF940040DA22AF83E58290006C
:10064D0065F0EFA3F0900065E0FEA3E0FF900007DA
:10065D007467F07400A3F0E4A3F090000A740AF03C
:10066D00E4A3F08E828F831201BB90006775F000BA
:10067D000204DAE5C4235401FF60F822AF83E5825A
:10068D00900069F0EFA3F0900069E0FEA3E0FF4E4B
:10069D00700775C3BE43C34022BE0109BF00067576
:1006AD00C3BA43C3402253C3BF22C29290000A1261
:1006BD00026075C5A5120680E5C5D29222C2929040
:1006CD00000112026075C501120680E5C590006437
:1006DD0012026075C50112068090004CE5C5F090C0
:1006ED00006412026075C50112068090004BE5C5CD
:1006FD00F090006412026075C50112068090004AE8
:10070D00E5C5F0E5C5D29290004AE0FF7E0090006D
:10071D004BE0FCE42FFFEC3EFE90004CE0FD7C0036
:10072D008C028D037C007D008F00EEF93395E0FE89
:10073D00FFED28FDEC39FCEB3EFBEA3F8D828C830F
:10074D008BF012139EAC82AD83AEF0FF749AC0E0B5
:10075D007499C0E0C0E0743EC0E08C828D838EF051
:10076D00EF121539AC82AD83AEF0FFE58124FCF5B7
:10077D00818C828D838EF0EF0213B1AF82AE83AD8B
:10078D00F0FC90006BEFF0EEA3F0EDA3F0ECA3F016
:10079D0090006FE4F0E4A3F0900071E4F0E4A3F0B6
:1007AD00900073E4F0E4A3F0900075E4F0E4A3F09E
:1007BD00900077E4F0E4A3F0900079E4F0E4A3F086
:1007CD0090007BE4F0E4A3F090007DE4F0E4A3F06E
:1007DD0090007FE4F0E4A3F0900081E4F0E4A3F056
:1007ED007E007F0090006BE0F511A3E0F512A3E011
:1007FD00F513A3E0F514E5114512451345147003E7
:10080D000208968E00EFC825E0C833F9E8246FF58D
:10081D000FE93400F5109000BD740AF0E4A3F0E484
:10082D00A3F0E4A3F08511828512838513F0E514FE
:10083D00C007C00612114FA882A983D006D0074366
:10084D000030850F82851083E8F0E9A3F09000C693
:10085D00740AF0E4A3F0E4A3F0E4A3F0851182851B
:10086D0012838513F0E514C007C006121290AA82F8
:10087D00AB83ACF0FDD006D00790006BEAF0EBA394
:10088D00F0ECA3F0EDA3F080198E04EFCC25E0CCB5
:10089D0033FDEC246FF582ED3400F5837430F0E414
:1008AD00A3F00EBE00010FC3EE940AEF94005003A7
:1008BD000207F17E007F008E057409C39D75F0025D
:1008CD00A4246FF582740035F0F583E0FCA3E08C71
:1008DD0082C007C006120316D006D007EE4F700E69
:1008ED0075822EC007C006120316D006D0070EBEA5
:1008FD0000010FC3EE9403EF940040BB9016E87512
:10090D00F08002034BAF82AE83ADF0FC900083EF1D
:10091D00F0EEA3F0EDA3F0ECA3F0900083E0FCA3C8
:10092D00E0FDA3E0FEA3E0FF8C1575160075170022
:10093D007518008D008E018F027B00430070C3740B
:10094D008C9C740A9DE49EE49F5038C003C002C085
:10095D0001C0001204359016ED75F08012034BD0D6
:10096D0000D001D002D00388078F82120441AF1549
:10097D008F8212044112043B9016F475F08012031D
:10098D004B80FEC29088C51206808515C512068063
:10099D00E5C5D29022AF83E582900087F0EFA3F0FA
:1009AD00C29175C501120680900087E0FEA3E0FF9D
:1009BD004E700375C588BE0106BF000375C598BE90
:1009CD000206BF000375C5A8BE0306BF000375C5AB
:1009DD00B8BE0406BF000375C5C8BE0506BF00033B
:1009ED0075C5D8BE0606BF000375C5E8BE0706BFB0
:1009FD00000375C5F8120680AFC57E0075C588C0A9
:100A0D0007C006120680D006D007ACC57D00EC2EBF
:100A1D00FEED3FFFD2915307038E828F83227E001E
:100A2D007F00BE132CBF0029EE2489FCEF3400FD9E
:100A3D00EE240EF582EF3400F583E025E0FB900007
:100A4D000EE0235401FAEB42028C828D83EAF08092
:100A5D0031EE2489FCEF3400FDEE240EF582EF34E7
:100A6D0000F583E025E0FB8E02EA04240EF582E416
:100A7D003400F583E0235401FAEB42028C828D831E
:100A8D00EAF00EBE00010FC3EE9414EF94004092F5
:100A9D007E007F00EE240EFCEF3400FDEE2489F580
:100AAD0082EF3400F583E0FB8C828D83F00EBE0067
:100ABD00010FC3EE9414EF940040D9227E007F0005
:100ACD00BE132CBF0029EE249DFCEF3400FDEE2457
:100ADD000EF582EF3400F583E025E0FB90000EE08B
:100AED00235401FAEB42028C828D83EAF08031EEC1
:100AFD00249DFCEF3400FDEE240EF582EF3400F55D
:100B0D0083E025E0FB8E02EA04240EF582E4340036
:100B1D00F583E0235401FAEB42028C828D83EAF0D7
:100B2D000EBE00010FC3EE9414EF940040927E00B0
:100B3D007F00EE240EFCEF3400FDEE249DF582EFD8
:100B4D003400F583E0FB8C828D83F00EBE00010F27
:100B5D00C3EE9414EF940040D922C2017F0020010E
:100B6D003A7E00EE242CF582E43400F583E0FDEEB0
:100B7D00240EF582E43400F583E0FCEDB50402802B
:100B8D0009C007120A2BD007800BBE0F02D2010E2F
:100B9D00BE100040CE0FBFA00040C3A20122C293E1
:100BAD0075C5C8120680D2939000B1E5C5F0E0F589
:100BBD0082221206B3900001120689D2947E007F24
:100BCD0000EE240EFCEF3400FDC007C006C005C0CA
:100BDD0004120BABAB82D004D005D006D0078C82AB
:100BED008D83EBF00EBE00010FC3EE9414EF940055
:100BFD0040CF0206B3C29375C5C8120680D293903A
:100C0D0000B2E5C5F0E0F582221206B390000112A4
:100C1D000689C2947E007F00EE240EFCEF3400FDA9
:100C2D00C007C006C005C004120C02AB82D004D0B0
:100C3D0005D006D0078C828D83EBF00EBE00010F20
:100C4D00C3EE9414EF940040CF0206B39000B3E5C9
:100C5D0080F0E0FF9000B3740F5FF0120435901731
:100C6D000375F08012034B9000B3E0FFF582C007CF
:100C7D0012044112043BD007EF601190170F75F06D
:100C8D008012034B9007D0120260800990171D75DA
:100C9D00F08012034B9001F4020260D2B7D284D2DD
:100CAD0085D286D287C2B5C2B6D294D296D290D210
:100CBD0091D292D2B4D293900064120260020C5978
:100CCD00D2B7D284D285C286D287C2B5C2B6D294EB
:100CDD00D296D290D291D292D2B4D2939000641285
:100CED000260020C59D2B7D284D285D286D287D275
:100CFD0093900064120260C2B722E5829000B4F0B6
:100D0D00C28690000A1202609000B4E0F5C512068A
:100D1D008090000A120260D2869000B4E5C5F022E0
:100D2D00E5829000B5F0D28690000A120260900024
:100D3D00B5E0F5C512068090000A120260C28690D9
:100D4D0000B5E5C5F0221206B39000011206897EAA
:100D5D00007F00EE242CF582EF3400F583E0F58260
:100D6D00C007C006120D07D006D0070EBE00010F3A
:100D7D00C3EE9410EF940040DA1206B39000000217
:100D8D0006891206B39000011206897E007F00EEDF
:100D9D00242CF582EF3400F583E0F582C007C00600
:100DAD00120D2DD006D0070EBE00010FC3EE94100C
:100DBD00EF940040DA1206B390000002068990000D
:100DCD000A120260C28590000A120260D28522903A
:100DDD00000A120260C28490000A120260D28422BC
:100DED00E5829000B6F0FFBF0204C2B5C2B6EF7047
:100DFD0004D2B5C2B6BF0104D2B5D2B6BF0304C288
:100E0D00B5D2B622C2B490000112026075C580122F
:100E1D00068075C50012068075C50012068075C561
:100E2D0000120680900001120260D2B490000A12E6
:100E3D000260C2B490000112026075C500120680F6
:100E4D0075C50312068075C5FF12068075C504129F
:100E5D000680900001120260D2B490000A12026066
:100E6D00C2B490000112026075C52B12068075C5C3
:100E7D000012068075C50112068075C50E1206801A
:100E8D00900001120260D2B490000A120260C2B446
:100E9D0090000112026075C50012068075C5001222
:100EAD00068075C50112068075C50F12068090006B
:100EBD0001120260D2B490000A020260C2B4900026
:100ECD000112026075C58012068075C5001206807C
:100EDD0075C50012068075C50012068090000112BE
:100EED000260D2B490000A120260C2B490000112E6
:100EFD00026075C50012068075C50312068075C5A2
:100F0D00FF12068075C50412068090000112026062
:100F1D00D2B490000A120260C2B4900001120260B5
:100F2D0075C56812068075C50012068075C500125C
:100F3D00068075C50E120680900001120260D2B4B3
:100F4D0090000A0202601202CA90172E75F08012EC
:100F5D00034B120CA8900000120689900000E4F5D6
:100F6D00F0120912120E1112043590173E75F08011
:100F7D0012034B12043B90174C75F08012034B90EB
:100F8D0003E812026012043590175D75F0801203AC
:100F9D004B1204C71206B7C2877F00BF180040036B
:100FAD000210A08F057E000DBD00010E9000D3ED47
:100FBD00F0EEA3F090006EC007121405AD82AE8363
:100FCD008D018E027B007C0089828A838BF0ECC0C0
:100FDD0006C0051209129003E8120260D005D00672
:100FED008D038E058D19C0031205811206CAA982C3
:100FFD00AA83ACF0FED003C006C004C003C002C07B
:10100D000112043590177675F08012034BD001D084
:10101D0002D003D004D006D0078F007D0088828DCA
:10102D0083C007C006C004C003C002C00112048EF5
:10103D0090177975F08012034BD001D002D003D0F8
:10104D0004D00689828A838CF0EEC00312078812C1
:10105D000581D003D0078F82C007C00312056785B5
:10106D001982120567D0038B8212056790004AE042
:10107D00F58212056790004BE0F58212056790002E
:10108D004CE0F5821205679003E8120260D0070F5D
:10109D00020FA812043590177C75F08012034B9047
:0710AD00138812026080FEAF
:1016C0000A0052657120746573742064617461004E
:1016D0007465737420646174612072656164006371
:1016E0006F6D706C657465002047487A00455252F2
:1016F0004F522100444143204F2F50207E20312E55
:101700003256005243207374617465203D200052AC
:1017100065736574204661696C6564210052657368
:101720006574205375636365737366756C00496EE9
:10173000697469616C697A696E672E2E2E002020AB
:10174000204F7363696C6C61746F720043686172DF
:101750006163746572697A6174696F6E005761695B
:1017600074696E6720666F7220486F737420746F9F
:101770002070696E6700662800293D005465737407
:0B17800020436F6D706C6574656400A1
:1010B400AF83E5829000B9F0EFA3F09000BBE4F0B9
:1010C400E4A3F09000B7E0FEA3E0FF7D109000B928
:1010D400E0FBA3E0FC339202ECCB25E0CB33FC90A5
:1010E40000B9EBF0ECA3F09000BBE0FBA3E0CB2550
:1010F400E0CB33FC9000BBEBF0ECA3F03002129099
:1011040000BBE0FBA3E0FC9000BB74014BF0ECA33C
:10111400F09000BBE0FBA3E0FCC3EB9EEC9F401D02
:101124009000BBEBC39EF0EC9FA3F09000B9E0FBF2
:10113400A3E0FC9000B974014BF0ECA3F0DD8E90B9
:1011440000B9E0FEA3E08E82F58322AF82AE83ADC8
:10115400F0FC9000C1EFF0EEA3F0EDA3F0ECA3F0EF
:101164009000C5E4F09000C1E0FCA3E0FDA3E0FE24
:10117400A3E0FF7B009000BDE0F51AA3E0F51BA3FC
:10118400E0F51CA3E0F51D235401FA7074C003E5D7
:101194001A251AF8E51B33F9E51C33FAE51D33FB70
:1011A4009000BDE8F0E9A3F0EAA3F0EBA3F090000F
:1011B400BDE0F51AA3E0F51BA3E0F51CA3E0F51DC3
:1011C400C3EC951AED951BEE951CEF951DD00350BD
:1011D40027E51DC313F51DE51C13F51CE51B13F5CD
:1011E4001BE51A13F51A9000BDF0E51BA3F0E51CEE
:1011F400A3F0E51DA3F080090B9000C5EBF00211EC
:10120400799000C5E0FF9000C1E0FBA3E0FCA3E0FF
:10121400FDA3E0FE9000BDE0F51AA3E0F51BA3E0FA
:10122400F51CA3E0F51DC3EB951AEC951BED951C7D
:10123400EE951D40179000C1EBC3951AF0EC951B79
:10124400A3F0ED951CA3F0EE951DA3F09000BDE076
:10125400FBA3E0FCA3E0FDA3E0C313FEED13FDEC50
:1012640013FCEB13FB9000BDF0ECA3F0EDA3F0EE48
:10127400A3F08F061FEE708E9000C1E0FCA3E0FD8A
:10128400A3E0FEA3E08C828D838EF022AF82AE8336
:10129400ADF0FC9000CAEFF0EEA3F0EDA3F0ECA3E8
:1012A400F09000CEE4F0E4A3F0E4A3F0E4A3F09023
:1012B40000C6E0FCA3E0FDA3E0FEA3E0FF751A2056
:1012C4009000CAE0F8A3E0F9A3E0FAA3E0FB3392AC
:1012D40003E828F8E933F9EA33FAEB33FB9000CA60
:1012E400E8F0E9A3F0EAA3F0EBA3F09000CEE0F875
:1012F400A3E0F9A3E0FAA3E0FBE828F8E933F9EA6C
:1013040033FAEB33FB9000CEE8F0E9A3F0EAA3F064
:10131400EBA3F030031E9000CEE0F8A3E0F9A3E0C5
:10132400FAA3E0FB9000CE740148F0E9A3F0EAA32D
:10133400F0EBA3F09000CEE0F8A3E0F9A3E0FAA369
:10134400E0FBC3E89CE99DEA9EEB9F40319000CE10
:10135400E8C39CF0E99DA3F0EA9EA3F0EB9FA3F001
:101364009000CAE0F8A3E0F9A3E0FAA3E0FB900040
:10137400CA740148F0E9A3F0EAA3F0EBA3F0D51A8C
:101384000280030212C49000CAE0FCA3E0FDA3E0C3
:0A139400FEA3E08C828D838EF02210
:06006000E478FFF6D8FD74
:10003E007900E94400601B7A0090178B78DA75A07E
:10004E0000E493F2A308B8000205A0D9F4DAF27521
:02005E00A0FF01
:10139E00FCABF0AA83A982749EC2D1F58212168983
:1013AE000214D27F9E1213D830D1030214F3C3EF6E
:1013BE009582500974FFF5F0F583F58222790012BB
:1013CE00164689828A838BF0EC22AA82AB83A2F71F
:1013DE003392D1F5826002D2F7ACF02220F71130B1
:1013EE00F6138883A88220F509F6A8837583002258
:1013FE0080FEF280F5F022AA83AB828BF09000D3B0
:10140E00E0A4F8A9F08AF0E0A429F98BF0A3E0A4F7
:10141E0029F58388822222AF83E5829000D7F0EFF0
:10142E00A3F09000D9E4F09000D7E0FEA3E0FF7D9A
:10143E00009000D5E0FBA3E0FC235401FA7037ECDA
:10144E00CB25E0CB33FC9000D5EBF0ECA3F0900075
:10145E00D5E0FBA3E0FCC3EE9BEF9C5011ECC31355
:10146E00CB13CBFC9000D5EBF0ECA3F080080D90E5
:10147E0000D9EDF080BB9000D9E0FF9000D7E0FDE1
:10148E00A3E0FE9000D5E0FBA3E0FCC3ED9BEE9C39
:10149E00400B9000D7EDC39BF0EE9CA3F09000D5CF
:1014AE00E0FDA3E0C313CD13CDFE9000D5EDF0EE1D
:1014BE00A3F08F061FEE70C39000D7E0FEA3E08E60
:0414CE0082F58322FE
:100066007800E84400600A790075A000E4F309D836
:10007600FC78DAE84400600C7901900000E4F0A313
:04008600D8FCD9FACF
:1014D200B98003EA13B34010EA2401FAE43BFBE4C7
:1014E2003CFC50047C800582BC000EBB000BBA00A1
:1014F20008E4F5F0F583F58222A2D1E582138CF09F
:1015020092F78B838A8222E4F583F58275F080F468
:10151200A2D11322E4F583F58275F0C0747F22AA6A
:1015220082AB831215FC6003A380F8C3E5829AF5AF
:1015320082E5839BF5832212161830D502B2D1BF01
:101542000009BC0003021516021509BC00030214AF
:10155200F3E583B4FF0BE582B4FF03021516021410
:10156200F3E582B4FF03021509C395835007247F74
:10157200400B0214F32480145003021509F582C3B0
:10158200ED9AEE9BEF9C40111582C3EA33F9EB33DF
:10159200FAEC33FBE433FC8005E4CCCBCAF9C0821D
:1015A20075F019C3E99DEA9EEB9FEC9400D5F00219
:1015B200802D400EE99DF9EA9EFAEB9FFBEC940028
:1015C200FCC3B3E833F8E58233F582E58333F58370
:1015D200C3E933F9EA33FAEB33FBEC33FC80C4B3EF
:1015E200E4F938FAE43582FBE43583FCD082500416
:0A15F20005827C801216890214EABB
:0D0031007581201216BCE582600302002ECE
:1015FC0020F71430F6148883A88220F507E6A88318
:10160C0075830022E280F7E49322E022AA82AB8366
:10161C00A2F73392D1F5826002D2F7ACF0E58124C7
:10162C00F9F8E6FD08E6FE0886F008E6A2F7339224
:10163C00D5F5836002D2F7AFF0226040F8258250D6
:10164C000274FFF582E824F8501ECCCBCAF9E4CC26
:10165C0024F85014CBCAF9E4CB24F8500BCAF9E4A3
:10166C00CA24F8500379002224086010F8C3EC1344
:10167C00FCEB13FBEA13FAE913F9D8F1227804EC2A
:10168C007011E58224F8500AF582E4C9CACBFCD863
:10169C00EF22EC7820058220E713D5820122C3E9E2
:1016AC0033F9EA33FAEB33FBEC33FCD8EA1582223C
:0416BC007582002211
:00000001FF
