:040000000200313297
:01000B0032C2
:0100130032BA
:01001B0032B2
:0100230032AA
:03002B0002058A41
:03008A0002002E43
:03002E00020F9628
:10008D00AF83E582900005F0EFA3F0900000E0FD56
:10009D00A3E0FEA3E0FF900003E0FBA3E0FC7A10D9
:1000AD001AEA2DF521E43EF5228F23900005E0F8A4
:1000BD00A3E0F98B248C259000D5E524F0E525A34C
:1000CD00F088828983C007C006C005C004C003C084
:1000DD000212151DA882A983D002D003D004D00529
:1000ED00D006D007743028F8852182852283852398
:1000FD00F01214E2C374B988F063F08095F0501BD0
:10010D008521828522838523F01216F42407F98533
:10011D0021828522838523F01214E2900005E0F8F8
:10012D00A3E0F99000B7E524F0E525A3F0888289D6
:10013D0083C007C006C005C004C003C0021211ACC5
:10014D00E5828583F0D002D003D004D005D006D04F
:10015D0007900005F0E5F0A3F0900005E0F8A3E0AE
:10016D00F94860030200AD7C008A038C020CEA2D75
:10017D00F521E43EF5228F238B020BEA2DF8E43EA8
:10018D00F98F02888289838AF01216F4F88521820C
:10019D008522838523F01214E2BB100040CDEC2D97
:1001AD00FDE43EFE8D828E838FF0E40214E2AF8378
:1001BD00E58290000CF0EFA3F090000CE0FEA3E0C0
:1001CD00FF30E76290000AE0FCA3E0FDBC0A57BDDA
:1001DD000054900007E0F9A3E0FAA3E0FB89828ABE
:1001ED00838BF0742D1214E2900007740129F0E452
:1001FD003AA3F0EBA3F0C3E49EF526E49FF5279018
:10020D000007E0F8A3E0F9A3E0FB900000E8F0E9B7
:10021D00A3F0EBA3F0900003ECF0EDA3F0852682A4
:10022D0085278302008D900007E0FBA3E0FCA3E08F
:10023D00FD90000AE0F9A3E0FA900000EBF0ECA3CA
:10024D00F0EDA3F0900003E9F0EAA3F08E828F8326
:10025D0002008DAF83E582900050F0EFA3F0900087
:10026D0050E0FEA3E0FF7C007D00C3EE9CEF6480B8
:10027D008DF063F08095F040147A647B011ABAFF1B
:10028D00011BEA4B70F70CBC00E00D80DD22E5820E
:10029D00900052F0FFC4540FFE53060F74804EF5BC
:1002AD00A08EA0900001C007120260D00753070F67
:1002BD0074804FF5A08FA090000202026075A0001F
:1002CD0090000112026075A002D2A790000A1202DE
:1002DD0060C2A790000A12026075822812029B90DC
:1002ED00000112026075820112029B900001120240
:1002FD006075828012029B90000112026075820E61
:10030D0012029B900001020260E582900053F0FF03
:10031D00C4540FFE53060F74A04EF5A074204EF575
:10032D00A0900001C007120260D00753070F74A000
:10033D004FF5A074204FF5A0900001020260AFF0C0
:10034D00AE83E582900054F0EEA3F0EFA3F09000A1
:10035D0054E0FDA3E0FEA3E0FF7B007C0090005481
:10036D00E0F8A3E0F9A3E0FA888289838AF0C00758
:10037D00C006C005C004C003121619E5828583F0BE
:10038D00D003D004D005D006D00724FFF9E5F03412
:10039D00FFFAC3E99BEA9C4052BB101DBC001A75C5
:1003AD0082C0C007C006C005C004C00312029BD0A6
:1003BD0003D004D005D006D007EB2DF8EC3EF98F15
:1003CD0002888289838AF01216F4F582C007C0066E
:1003DD00C005C004C003120316D003D004D005D04D
:1003ED0006D0070BBB00010C02036A22AF83E58226
:1003FD00900057F0EFA3F0900057E0FEA3E0FF7CD4
:10040D00007D00C3EC9EED9F501D758210C007C08E
:10041D0006C005C00412029BD004D005D006D0073B
:10042D000CBC00DF0D80DC2275820102029B7582FF
:10043D00C002029BE582900059F0FFC4540FFE24C8
:10044D00F6500990005B74372EF0800790005B74B6
:10045D00302EF090005BE0F582C007120316D00736
:10046D0053070FEF24F6500990005A74372FF08080
:10047D000790005A74302FF090005AE0F582020375
:10048D0016AF83E58290005CF0EFA3F090005CE086
:10049D00FEA3E0FF900007745EF07400A3F0E4A3E8
:1004AD00F090000A740AF0E4A3F08E828F8312019B
:1004BD00BB90005E75F00002034B759B1C759AF3A3
:1004CD007598507587002210990280FB22AFF0AE0F
:1004DD0083E582900060F0EEA3F0EFA3F090006052
:1004ED00E0FDA3E0FEA3E0FF7B007C00900060E058
:1004FD00F8A3E0F9A3E0FA888289838AF0C007C0E7
:10050D0006C005C004C003121619E5828583F0D01C
:10051D0003D004D005D006D00724FFF9E5F034FF51
:10052D00FAC3E99BEA9C4031EB2DF8EC3EF98F02C2
:10053D00888289838AF01216F4F599C007C006C027
:10054D0005C004C0031204D4D003D004D005D006D6
:10055D00D0070BBB00960C809322E582900063F0D0
:10056D00F5990204D49017B875F0801204DA7582EB
:10057D000D02056710980280FB85998222C0E0C0AC
:10058D0082C083C007C0D075D00030981190006430
:10059D00E599F0C298900064E0FFF582800D109906
:1005AD000280057582008003758200D0D0D007D0FF
:1005BD0083D082D0E0321204359017BA75F08012D4
:1005CD00034B7E007F00EE242CFCEF3400FDC007B2
:1005DD00C006C005C004120581AB82D004D005D081
:1005ED0006D0078C828D83EBF00EBE00010FC3EE9B
:1005FD009414EF940040CF1204359017C875F08015
:10060D0012034B12043B9017D775F08002034B7EFB
:10061D00007F00EE240EF582EF3400F583E0F582C5
:10062D00C007C006120567D006D0070EBE00010F29
:10063D00C3EE9414EF940040DA22AF83E58290006C
:10064D0065F0EFA3F0900065E0FEA3E0FF900007DA
:10065D007467F07400A3F0E4A3F090000A740AF03C
:10066D00E4A3F08E828F831201BB90006775F000BA
:10067D000204DAE5C4235401FF60F822AF83E5825A
:10068D00900069F0EFA3F0900069E0FEA3E0FF4E4B
:10069D00700775C3BE43C34022BE0109BF00067576
:1006AD00C3BA43C3402253C3BF22C29290000A1261
:1006BD00026075C5A5120680E5C5D29222C2929040
:1006CD00000112026075C501120680E5C590006437
:1006DD0012026075C50112068090004CE5C5F090C0
:1006ED00006412026075C50112068090004BE5C5CD
:1006FD00F090006412026075C50112068090004AE8
:10070D00E5C5F0E5C5D29290004AE0FF7E0090006D
:10071D004BE0FCE42FFFEC3EFE90004CE0FD7C0036
:10072D008C028D037C007D008F00EEF93395E0FE89
:10073D00FFED28FDEC39FCEB3EFBEA3F8D828C830F
:10074D008BF0121496AC82AD83AEF0FF749AC0E0BC
:10075D007499C0E0C0E0743EC0E08C828D838EF051
:10076D00EF121631AC82AD83AEF0FFE58124FCF5BE
:10077D00818C828D838EF0EF0214A9AF82AE83AD92
:10078D00F0FC90006BEFF0EEA3F0EDA3F0ECA3F016
:10079D0090006FE4F0E4A3F0900071E4F0E4A3F0B6
:1007AD00900073E4F0E4A3F0900075E4F0E4A3F09E
:1007BD00900077E4F0E4A3F0900079E4F0E4A3F086
:1007CD0090007BE4F0E4A3F090007DE4F0E4A3F06E
:1007DD0090007FE4F0E4A3F0900081E4F0E4A3F056
:1007ED007E007F0090006BE0F52AA3E0F52BA3E0DF
:1007FD00F52CA3E0F52DE52A452B452C452D700351
:10080D000208968E00EFC825E0C833F9E8246FF58D
:10081D0028E93400F5299000BD740AF0E4A3F0E452
:10082D00A3F0E4A3F0852A82852B83852CF0E52D9A
:10083D00C007C006121247A882A983D006D007436D
:10084D000030852882852983E8F0E9A3F09000C661
:10085D00740AF0E4A3F0E4A3F0E4A3F0852A828502
:10086D002B83852CF0E52DC007C006121388AA82B4
:10087D00AB83ACF0FDD006D00790006BEAF0EBA394
:10088D00F0ECA3F0EDA3F080198E04EFCC25E0CCB5
:10089D0033FDEC246FF582ED3400F5837430F0E414
:1008AD00A3F00EBE00010FC3EE940AEF94005003A7
:1008BD000207F17E007F008E057409C39D75F0025D
:1008CD00A4246FF582740035F0F583E0FCA3E08C71
:1008DD0082C007C006120316D006D007EE4F700E69
:1008ED0075822EC007C006120316D006D0070EBEA5
:1008FD0000010FC3EE9403EF940040BB9017E07519
:10090D00F08002034BAF82AE83ADF0FC900083EF1D
:10091D00F0EEA3F0EDA3F0ECA3F0900083E0FCA3C8
:10092D00E0FDA3E0FEA3E0FF8C2E752F00753000D7
:10093D007531008D008E018F027B00747048F53289
:10094D0089338A348B35C374729C740C9DE49EE498
:10095D009F50281204359017E575F08012034BABAC
:10096D00328B82120441A82E888212044112043B5C
:10097D009017EC75F08012034B80FEC3748C9C7441
:10098D000A9DE49EE49F50431204359017FB75F0C9
:10099D008012034BA8328882C000120441D000AFF0
:1009AD002E8F82C007C00012044112043B90180321
:1009BD0075F08012034BD000C29088C5120680D00E
:1009CD00078FC5120680E5C5D29022C2908532C52B
:1009DD00120680852EC5120680E5C5D29022AF8302
:1009ED00E582900087F0EFA3F0C29175C501120664
:1009FD0080900087E0FEA3E0FF4E700375C588BEB2
:100A0D000106BF000375C598BE0206BF000375C57C
:100A1D00A8BE0306BF000375C5B8BE0406BF00031C
:100A2D0075C5C8BE0506BF000375C5D8BE0606BF91
:100A3D00000375C5E8BE0706BF000375C5F81206AD
:100A4D0080AFC57E0075C588C007C006120680D070
:100A5D0006D007ACC57D00EC2EFEED3FFFD29153C5
:100A6D0007038E828F83227E007F00BE132CBF0072
:100A7D0029EE2489FCEF3400FDEE240EF582EF34CF
:100A8D0000F583E025E0FB90000EE0235401FAEB26
:100A9D0042028C828D83EAF08031EE2489FCEF34A2
:100AAD0000FDEE240EF582EF3400F583E025E0FB2A
:100ABD008E02EA04240EF582E43400F583E023541B
:100ACD0001FAEB42028C828D83EAF00EBE00010F1B
:100ADD00C3EE9414EF940040927E007F00EE240E3E
:100AED00FCEF3400FDEE2489F582EF3400F583E050
:100AFD00FB8C828D83F00EBE00010FC3EE9414EFBC
:100B0D00940040D9227E007F00BE132CBF0029EE39
:100B1D00249DFCEF3400FDEE240EF582EF3400F53C
:100B2D0083E025E0FB90000EE0235401FAEB420236
:100B3D008C828D83EAF08031EE249DFCEF3400FD34
:100B4D00EE240EF582EF3400F583E025E0FB8E02F6
:100B5D00EA04240EF582E43400F583E0235401FA0F
:100B6D00EB42028C828D83EAF00EBE00010FC3EEC4
:100B7D009414EF940040927E007F00EE240EFCEF63
:100B8D003400FDEE249DF582EF3400F583E0FB8CFF
:100B9D00828D83F00EBE00010FC3EE9414EF94000E
:100BAD0040D922C2017F0020013A7E00EE242CF5AF
:100BBD0082E43400F583E0FDEE240EF582E434008A
:100BCD00F583E0FCEDB504028009C007120A74D06C
:100BDD0007800BBE0F02D2010EBE100040CE0FBF1C
:100BED00A00040C3A20122C29375C5C8120680D2CF
:100BFD00939000B1E5C5F0E0F582221206B39000A6
:100C0D0001120689D2947E007F00EE240EFCEF3493
:100C1D0000FDC007C006C005C004120BF4AB82D0A6
:100C2D0004D005D006D0078C828D83EBF00EBE006C
:100C3D00010FC3EE9414EF940040CF0206B3C2939C
:100C4D0075C5C8120680D2939000B2E5C5F0E0F5E7
:100C5D0082221206B3900001120689C2947E007F93
:100C6D0000EE240EFCEF3400FDC007C006C005C029
:100C7D0004120C4BAB82D004D005D006D0078C8269
:100C8D008D83EBF00EBE00010FC3EE9414EF9400B4
:100C9D0040CF0206B39000B3E580F0E0FF9000B3C3
:100CAD00740F5FF012043590181275F08012034B1B
:100CBD009000B3E0FFF582C00712044112043BD04F
:100CCD0007EF600B90181E75F08012034B80099092
:100CDD00182C75F08012034B9001F4020260D2B70C
:100CED00D284D285D286D287C2B5C2B6D294D296DC
:100CFD00D290D291D292D2B4D2939000641202606B
:100D0D00020CA2D2B7D284D285C286D287C2B5C216
:100D1D00B6D294D296D290D291D292D2B4D293909E
:100D2D000064120260020CA2D2B7D284D285D286A0
:100D3D00D287D293900064120260C2B722E58290EE
:100D4D0000B4F0C28690000A1202609000B4E0F583
:100D5D00C512068090000A120260D2869000B4E59A
:100D6D00C5F022E5829000B5F0D28690000A1202FD
:100D7D00609000B5E0F5C512068090000A12026081
:100D8D00C2869000B5E5C5F0221206B3900001129F
:100D9D0006897E007F00EE242CF582EF3400F5836A
:100DAD00E0F582C007C006120D4AD006D0070EBE70
:100DBD0000010FC3EE9410EF940040DA1206B390C9
:100DCD0000000206891206B39000011206897E000A
:100DDD007F00EE242CF582EF3400F583E0F582C020
:100DED0007C006120D70D006D0070EBE00010FC34E
:100DFD00EE9410EF940040DA1206B3900000020654
:100E0D008990000A120260C28590000A120260D217
:100E1D00852290000A120260C28490000A120260BC
:100E2D00D28422E5829000B6F0FFBF0204C2B5C2A3
:100E3D00B6EF7004D2B5C2B6BF0104D2B5D2B6BFFB
:100E4D000304C2B5D2B622C2B4900001120260757D
:100E5D00C58012068075C50012068075C500120684
:100E6D008075C500120680900001120260D2B49008
:100E7D00000A120260C2B490000112026075C50032
:100E8D0012068075C50312068075C5FF12068075A2
:100E9D00C504120680900001120260D2B490000ABF
:100EAD00120260C2B490000112026075C52B1206C9
:100EBD008075C50012068075C50112068075C50EB8
:100ECD00120680900001120260D2B490000A120244
:100EDD0060C2B490000112026075C50012068075E3
:100EED00C50012068075C50112068075C50F120664
:100EFD0080900001120260D2B490000A020260C21A
:100F0D00B490000112026075C58012068075C5008F
:100F1D0012068075C50012068075C50012068090F8
:100F2D000001120260D2B490000A120260C2B490A5
:100F3D00000112026075C50012068075C503120608
:100F4D008075C5FF12068075C504120680900001DC
:100F5D00120260D2B490000A120260C2B490000175
:100F6D0012026075C56812068075C500120680757F
:100F7D00C50012068075C50E120680900001120282
:100F8D0060D2B490000A020260C2001202CA901828
:100F9D003D75F08012034B90000012068990000001
:100FAD00E4F5F0120912120CEB120E541204351264
:100FBD0004C790184D75F08012034B120581120471
:100FCD003590186275F08012034B12043B90186D2A
:100FDD0075F08012034B9003E81202601204C712E1
:100FED00043590187D75F08012034B12043B901858
:100FFD008D75F08012034B7E007F00C3EE9418EFC9
:10100D006480948040030211848E3A8F3B74012ECC
:10101D00F536E43FF53778007900C001C000120CB9
:10102D00EB758200120E309000D3E536F0E537A354
:10103D00F090006E1214FDAC82AD838C028D037C9A
:10104D00007D008A828B838CF0ED1209129003E8EB
:10105D00120260D000D00188388939E53920E71CAB
:10106D00C001C000120E0E900001120260D000D01F
:10107D0001153874FFB53802153980DFC001C00085
:10108D001206CAAA82AB83ACF0FDD000D001C00518
:10109D00C004C003C002C001C00012043590189DE9
:1010AD0075F08012034B853A82853B8312048E9036
:1010BD0018A075F08012034BD000D001888289836F
:1010CD00C001C00012048E9018A075F08012034B61
:1010DD0085388285398312048E9018A275F080129E
:1010ED00034BD000D001D002D003D004D0058A82AA
:1010FD008B838CF0EDC001C000120788C287900071
:10110D0001120260D2879003E8120260120C0812DD
:10111D000BB09202D000D00130023DD20090004AB7
:10112D00E0F582C001C00012056790004BE0F5822A
:10113D0012056790004CE0F582120567853A8285AD
:10114D003B8312064775822C120567D000D00188AB
:10115D00828983120647801F08B8000109C3E894ED
:10116D0014E96480948050030210277401253AFE1F
:10117D00E4353BFF02100812043590186D75F080B0
:10118D0012034B12043B30000B9018A575F0801222
:0F119D00034B80099018AD75F08012034B80FE54
:1017B8000A00526571207465737420646174610055
:1017C8007465737420646174612072656164006378
:1017D8006F6D706C657465002047487A00455252F9
:1017E8004F522100444143204F2F50207E20312E5C
:1017F8003456005761726E696E6700444143204F4A
:101808002F50203E20312E325600524320737461EF
:101818007465203D20005265736574204661696CCB
:10182800656421005265736574205375636365733D
:101838007366756C00496E697469616C697A696E62
:10184800672E2E2E00536574204A756D706572736D
:1018580020616E642070696E67002020202020437C
:1018680043464645005468726F7567687075742002
:10187800746573740053657474696E67207570209D
:10188800746573740057697468203720626974201E
:1018980050524253006628002C00293D00535543FE
:0C18A80043455353004661696C656400C1
:1011AC00AF83E5829000B9F0EFA3F09000BBE4F0C0
:1011BC00E4A3F09000B7E0FEA3E0FF7D109000B92F
:1011CC00E0FBA3E0FC339203ECCB25E0CB33FC90AB
:1011DC0000B9EBF0ECA3F09000BBE0FBA3E0CB2557
:1011EC00E0CB33FC9000BBEBF0ECA3F0300312909F
:1011FC0000BBE0FBA3E0FC9000BB74014BF0ECA344
:10120C00F09000BBE0FBA3E0FCC3EB9EEC9F401D09
:10121C009000BBEBC39EF0EC9FA3F09000B9E0FBF9
:10122C00A3E0FC9000B974014BF0ECA3F0DD8E90C0
:10123C0000B9E0FEA3E08E82F58322AF82AE83ADCF
:10124C00F0FC9000C1EFF0EEA3F0EDA3F0ECA3F0F6
:10125C009000C5E4F09000C1E0FCA3E0FDA3E0FE2B
:10126C00A3E0FF7B009000BDE0F508A3E0F509A327
:10127C00E0F50AA3E0F50B235401FA7074C003E502
:10128C00082508F8E50933F9E50A33FAE50B33FBD1
:10129C009000BDE8F0E9A3F0EAA3F0EBA3F0900016
:1012AC00BDE0F508A3E0F509A3E0F50AA3E0F50B12
:1012BC00C3EC9508ED9509EE950AEF950BD003500C
:1012CC0027E50BC313F50BE50A13F50AE50913F52E
:1012DC0009E50813F5089000BDF0E509A3F0E50A4F
:1012EC00A3F0E50BA3F080090B9000C5EBF0021204
:1012FC00719000C5E0FF9000C1E0FBA3E0FCA3E00F
:10130C00FDA3E0FE9000BDE0F508A3E0F509A3E025
:10131C00F50AA3E0F50BC3EB9508EC9509ED950ADE
:10132C00EE950B40179000C1EBC39508F0EC9509B6
:10133C00A3F0ED950AA3F0EE950BA3F09000BDE0A1
:10134C00FBA3E0FCA3E0FDA3E0C313FEED13FDEC57
:10135C0013FCEB13FB9000BDF0ECA3F0EDA3F0EE4F
:10136C00A3F08F061FEE708E9000C1E0FCA3E0FD91
:10137C00A3E0FEA3E08C828D838EF022AF82AE833D
:10138C00ADF0FC9000CAEFF0EEA3F0EDA3F0ECA3EF
:10139C00F09000CEE4F0E4A3F0E4A3F0E4A3F0902A
:1013AC0000C6E0FCA3E0FDA3E0FEA3E0FF7508206F
:1013BC009000CAE0F8A3E0F9A3E0FAA3E0FB3392B3
:1013CC0004E828F8E933F9EA33FAEB33FB9000CA66
:1013DC00E8F0E9A3F0EAA3F0EBA3F09000CEE0F87C
:1013EC00A3E0F9A3E0FAA3E0FBE828F8E933F9EA73
:1013FC0033FAEB33FB9000CEE8F0E9A3F0EAA3F06C
:10140C00EBA3F030041E9000CEE0F8A3E0F9A3E0CB
:10141C00FAA3E0FB9000CE740148F0E9A3F0EAA334
:10142C00F0EBA3F09000CEE0F8A3E0F9A3E0FAA370
:10143C00E0FBC3E89CE99DEA9EEB9F40319000CE17
:10144C00E8C39CF0E99DA3F0EA9EA3F0EB9FA3F008
:10145C009000CAE0F8A3E0F9A3E0FAA3E0FB900047
:10146C00CA740148F0E9A3F0EAA3F0EBA3F0D508A5
:10147C000280030213BC9000CAE0FCA3E0FDA3E0D1
:0A148C00FEA3E08C828D838EF02217
:06006000E478FFF6D8FD74
:10003E007900E94400601B7A009018B478DA75A054
:10004E0000E493F2A308B8000205A0D9F4DAF27521
:02005E00A0FF01
:10149600FCABF0AA83A982749EC2D1F58212178191
:1014A6000215CA7F9E1214D030D1030215EBC3EF8A
:1014B6009582500974FFF5F0F583F58222790012C2
:1014C600173E89828A838BF0EC22AA82AB83A2F72D
:1014D6003392D1F5826002D2F7ACF02220F71130B8
:1014E600F6138883A88220F509F6A883758300225F
:1014F60080FEF280F5F022AA83AB828BF09000D3B7
:10150600E0A4F8A9F08AF0E0A429F98BF0A3E0A4FE
:1015160029F58388822222AF83E5829000D7F0EFF7
:10152600A3F09000D9E4F09000D7E0FEA3E0FF7DA1
:10153600009000D5E0FBA3E0FC235401FA7037ECE1
:10154600CB25E0CB33FC9000D5EBF0ECA3F090007C
:10155600D5E0FBA3E0FCC3EE9BEF9C5011ECC3135C
:10156600CB13CBFC9000D5EBF0ECA3F080080D90EC
:1015760000D9EDF080BB9000D9E0FF9000D7E0FDE8
:10158600A3E0FE9000D5E0FBA3E0FCC3ED9BEE9C40
:10159600400B9000D7EDC39BF0EE9CA3F09000D5D6
:1015A600E0FDA3E0C313CD13CDFE9000D5EDF0EE24
:1015B600A3F08F061FEE70C39000D7E0FEA3E08E67
:0415C60082F5832205
:100066007800E84400600A790075A000E4F309D836
:10007600FC78DAE84400600C7901900000E4F0A313
:04008600D8FCD9FACF
:1015CA00B98003EA13B34010EA2401FAE43BFBE4CE
:1015DA003CFC50047C800582BC000EBB000BBA00A8
:1015EA0008E4F5F0F583F58222A2D1E582138CF0A6
:1015FA0092F78B838A8222E4F583F58275F080F470
:10160A00A2D11322E4F583F58275F0C0747F22AA71
:10161A0082AB831216F46003A380F8C3E5829AF5BD
:10162A0082E5839BF5832212171030D502B2D1BF0F
:10163A000009BC000302160E021601BC00030215C3
:10164A00EBE583B4FF0BE582B4FF0302160E021525
:10165A00EBE582B4FF03021601C395835007247F8A
:10166A00400B0215EB2480145003021601F582C3C5
:10167A00ED9AEE9BEF9C40111582C3EA33F9EB33E6
:10168A00FAEC33FBE433FC8005E4CCCBCAF9C08224
:10169A0075F019C3E99DEA9EEB9FEC9400D5F00220
:1016AA00802D400EE99DF9EA9EFAEB9FFBEC94002F
:1016BA00FCC3B3E833F8E58233F582E58333F58377
:1016CA00C3E933F9EA33FAEB33FBEC33FC80C4B3F6
:1016DA00E4F938FAE43582FBE43583FCD08250041D
:0A16EA0005827C801217810215E2D0
:0D00310075813B1217B4E582600302002EBA
:1016F40020F71430F6148883A88220F507E6A8831F
:1017040075830022E280F7E49322E022AA82AB836D
:10171400A2F73392D1F5826002D2F7ACF0E58124CE
:10172400F9F8E6FD08E6FE0886F008E6A2F733922B
:10173400D5F5836002D2F7AFF0226040F8258250DD
:101744000274FFF582E824F8501ECCCBCAF9E4CC2D
:1017540024F85014CBCAF9E4CB24F8500BCAF9E4AA
:10176400CA24F8500379002224086010F8C3EC134B
:10177400FCEB13FBEA13FAE913F9D8F1227804EC31
:101784007011E58224F8500AF582E4C9CACBFCD86A
:10179400EF22EC7820058220E713D5820122C3E9E9
:1017A40033F9EA33FAEB33FBEC33FCD8EA15822243
:0417B4007582002218
:00000001FF
