:040000000200313297
:01000B0032C2
:0100130032BA
:01001B0032B2
:0100230032AA
:03002B0002058A41
:03008A0002002E43
:03002E00020EF5CA
:10008D00AF83E582900005F0EFA3F0900000E0FD56
:10009D00A3E0FEA3E0FF900003E0FBA3E0FC7A10D9
:1000AD001AEA2DF508E43EF5098F0A900005E0F8EF
:1000BD00A3E0F98B0B8C0C9000D1E50BF0E50CA3B4
:1000CD00F088828983C007C006C005C004C003C084
:1000DD00021214A5A882A983D002D003D004D005A2
:1000ED00D006D007743028F8850882850983850AE3
:1000FD00F012146AC374B988F063F08095F0501B48
:10010D00850882850983850AF012167C2407F985F6
:10011D000882850983850AF012146A900005E0F8BB
:10012D00A3E0F99000B3E50BF0E50CA3F08882890C
:10013D0083C007C006C005C004C003C0021211343D
:10014D00E5828583F0D002D003D004D005D006D04F
:10015D0007900005F0E5F0A3F0900005E0F8A3E0AE
:10016D00F94860030200AD7C008A038C020CEA2D75
:10017D00F508E43EF5098F0A8B020BEA2DF8E43EF3
:10018D00F98F02888289838AF012167CF88508829D
:10019D00850983850AF012146ABB100040CDEC2D41
:1001AD00FDE43EFE8D828E838FF0E402146AAF83F0
:1001BD00E58290000CF0EFA3F090000CE0FEA3E0C0
:1001CD00FF30E76290000AE0FCA3E0FDBC0A57BDDA
:1001DD000054900007E0F9A3E0FAA3E0FB89828ABE
:1001ED00838BF0742D12146A900007740129F0E4CA
:1001FD003AA3F0EBA3F0C3E49EF50DE49FF50E904A
:10020D000007E0F8A3E0F9A3E0FB900000E8F0E9B7
:10021D00A3F0EBA3F0900003ECF0EDA3F0850D82BD
:10022D00850E8302008D900007E0FBA3E0FCA3E0A8
:10023D00FD90000AE0F9A3E0FA900000EBF0ECA3CA
:10024D00F0EDA3F0900003E9F0EAA3F08E828F8326
:10025D0002008DAF83E582900050F0EFA3F0900087
:10026D0050E0FEA3E0FF7C007D00C3EE9CEF6480B8
:10027D008DF063F08095F040147A647B011ABAFF1B
:10028D00011BEA4B70F70CBC00E00D80DD22E5820E
:10029D00900052F0FFC4540FFE53060F74804EF5BC
:1002AD00A08EA0900001C007120260D00753070F67
:1002BD0074804FF5A08FA090000202026075A0001F
:1002CD0090000112026075A002D2A790000A1202DE
:1002DD0060C2A790000A12026075822812029B90DC
:1002ED00000112026075820112029B900001120240
:1002FD006075828012029B90000112026075820E61
:10030D0012029B900001020260E582900053F0FF03
:10031D00C4540FFE53060F74A04EF5A074204EF575
:10032D00A0900001C007120260D00753070F74A000
:10033D004FF5A074204FF5A0900001020260AFF0C0
:10034D00AE83E582900054F0EEA3F0EFA3F09000A1
:10035D0054E0FDA3E0FEA3E0FF7B007C0090005481
:10036D00E0F8A3E0F9A3E0FA888289838AF0C00758
:10037D00C006C005C004C0031215A1E5828583F037
:10038D00D003D004D005D006D00724FFF9E5F03412
:10039D00FFFAC3E99BEA9C4052BB101DBC001A75C5
:1003AD0082C0C007C006C005C004C00312029BD0A6
:1003BD0003D004D005D006D007EB2DF8EC3EF98F15
:1003CD0002888289838AF012167CF582C007C006E6
:1003DD00C005C004C003120316D003D004D005D04D
:1003ED0006D0070BBB00010C02036A22AF83E58226
:1003FD00900057F0EFA3F0900057E0FEA3E0FF7CD4
:10040D00007D00C3EC9EED9F501D758210C007C08E
:10041D0006C005C00412029BD004D005D006D0073B
:10042D000CBC00DF0D80DC2275820102029B7582FF
:10043D00C002029BE582900059F0FFC4540FFE24C8
:10044D00F6500990005B74372EF0800790005B74B6
:10045D00302EF090005BE0F582C007120316D00736
:10046D0053070FEF24F6500990005A74372FF08080
:10047D000790005A74302FF090005AE0F582020375
:10048D0016AF83E58290005CF0EFA3F090005CE086
:10049D00FEA3E0FF900007745EF07400A3F0E4A3E8
:1004AD00F090000A740AF0E4A3F08E828F8312019B
:1004BD00BB90005E75F00002034B759B1C759AF3A3
:1004CD007598507587002210990280FB22AFF0AE0F
:1004DD0083E582900060F0EEA3F0EFA3F090006052
:1004ED00E0FDA3E0FEA3E0FF7B007C00900060E058
:1004FD00F8A3E0F9A3E0FA888289838AF0C007C0E7
:10050D0006C005C004C0031215A1E5828583F0D095
:10051D0003D004D005D006D00724FFF9E5F034FF51
:10052D00FAC3E99BEA9C4031EB2DF8EC3EF98F02C2
:10053D00888289838AF012167CF599C007C006C09F
:10054D0005C004C0031204D4D003D004D005D006D6
:10055D00D0070BBB00960C809322E582900063F0D0
:10056D00F5990204D490174075F0801204DA758263
:10057D000D02056710980280FB85998222C0E0C0AC
:10058D0082C083C007C0D075D00030981190006430
:10059D00E599F0C298900064E0FFF582800D109906
:1005AD000280057582008003758200D0D0D007D0FF
:1005BD0083D082D0E03212043590174275F080124C
:1005CD00034B7E007F00EE242CFCEF3400FDC007B2
:1005DD00C006C005C004120581AB82D004D005D081
:1005ED0006D0078C828D83EBF00EBE00010FC3EE9B
:1005FD009414EF940040CF12043590175075F0808D
:10060D0012034B12043B90175F75F08002034B7E73
:10061D00007F00EE240EF582EF3400F583E0F582C5
:10062D00C007C006120567D006D0070EBE00010F29
:10063D00C3EE9414EF940040DA22E5C4235401FF75
:10064D0060F822AF83E582900065F0EFA3F0900093
:10065D0065E0FEA3E0FF4E700775C3BE43C34022A5
:10066D00BE0109BF000675C3BA43C3402253C3BFC1
:10067D0022C29290000A12026075C5A5120647E5C6
:10068D00C5D29222C29290000112026075C501126C
:10069D000647E5C590006412026075C50112064754
:1006AD0090004CE5C5F090006412026075C5011212
:1006BD00064790004BE5C5F090006412026075C5C9
:1006CD000112064790004AE5C5F0E5C5D2929000AB
:1006DD004AE0FF7E0090004BE0FCE42FFFEC3EFE75
:1006ED0090004CE0FD7C008C028D037C007D008F22
:1006FD0000EEF93395E0FEFFED28FDEC39FCEB3E05
:10070D00FBEA3F8D828C838BF012141EAC82AD837D
:10071D00AEF0FF749AC0E07499C0E0C0E0743EC0C2
:10072D00E08C828D838EF0EF1215B9AC82AD83AE65
:10073D00F0FFE58124FCF5818C828D838EF0EF0234
:10074D001431AF82AE83ADF0FC900067EFF0EEA3F5
:10075D00F0EDA3F0ECA3F090006BE4F0E4A3F090C7
:10076D00006DE4F0E4A3F090006FE4F0E4A3F090EA
:10077D000071E4F0E4A3F0900073E4F0E4A3F090D2
:10078D000075E4F0E4A3F0900077E4F0E4A3F090BA
:10079D000079E4F0E4A3F090007BE4F0E4A3F090A2
:1007AD00007DE4F0E4A3F07E007F00900067E0F5AB
:1007BD0011A3E0F512A3E0F513A3E0F514E511453F
:1007CD001245134514700302085D8E00EFC825E035
:1007DD00C833F9E8246BF50FE93400F5109000B932
:1007ED00740AF0E4A3F0E4A3F0E4A3F0851182858C
:1007FD0012838513F0E514C007C0061211CFA8822D
:10080D00A983D006D007430030850F82851083E879
:10081D00F0E9A3F09000C2740AF0E4A3F0E4A3F0B1
:10082D00E4A3F08511828512838513F0E514C007CA
:10083D00C006121310AA82AB83ACF0FDD006D00710
:10084D00900067EAF0EBA3F0ECA3F0EDA3F08019B4
:10085D008E04EFCC25E0CC33FDEC246BF582ED342A
:10086D0000F5837430F0E4A3F00EBE00010FC3EE6B
:10087D00940AEF940050030207B87E007F008E05A6
:10088D007409C39D75F002A4246BF582740035F0D4
:10089D00F583E0FCA3E08C82C007C006120316D0DE
:1008AD0006D007EE4F700E75822EC007C0061203DC
:1008BD0016D006D0070EBE00010FC3EE9403EF94C1
:1008CD000040BB90176875F08002034BAF82AE837A
:1008DD00ADF0FC90007FEFF0EEA3F0EDA3F0ECA3F4
:1008ED00F090007FE0FCA3E0FDA3E0FEA3E0FF8C11
:1008FD00157516007517007518008D008E018F0285
:10090D007B00430070C3748C9C740A9DE49EE49F2D
:10091D005038C003C002C001C00012043590176DDD
:10092D0075F08012034BD000D001D002D0038807A0
:10093D008F82120441AF158F8212044112043B9035
:10094D00177475F08012034B80FEC29088C5120695
:10095D00478515C5120647E5C5D29022AF83E582BE
:10096D00900083F0EFA3F0C29175C5011206479078
:10097D000083E0FEA3E0FF4E700375C588BE01063F
:10098D00BF000375C598BE0206BF000375C5A8BE9E
:10099D000306BF000375C5B8BE0406BF000375C5C9
:1009AD00C8BE0506BF000375C5D8BE0606BF000349
:1009BD0075C5E8BE0706BF000375C5F8120647AF3B
:1009CD00C57E0075C588C007C006120647D006D083
:1009DD0007ACC57D00EC2EFEED3FFFD29153070312
:1009ED008E828F83227E007F00BE132CBF0029EEE6
:1009FD002485FCEF3400FDEE240EF582EF3400F576
:100A0D0083E025E0FB90000EE0235401FAEB420257
:100A1D008C828D83EAF08031EE2485FCEF3400FD6D
:100A2D00EE240EF582EF3400F583E025E0FB8E0217
:100A3D00EA04240EF582E43400F583E0235401FA30
:100A4D00EB42028C828D83EAF00EBE00010FC3EEE5
:100A5D009414EF940040927E007F00EE240EFCEF84
:100A6D003400FDEE2485F582EF3400F583E0FB8C38
:100A7D00828D83F00EBE00010FC3EE9414EF94002F
:100A8D0040D9227E007F00BE132CBF0029EE249991
:100A9D00FCEF3400FDEE240EF582EF3400F583E01B
:100AAD0025E0FB90000EE0235401FAEB42028C820C
:100ABD008D83EAF08031EE2499FCEF3400FDEE24B5
:100ACD000EF582EF3400F583E025E0FB8E02EA049B
:100ADD00240EF582E43400F583E0235401FAEB4251
:100AED00028C828D83EAF00EBE00010FC3EE9414CA
:100AFD00EF940040927E007F00EE240EFCEF340058
:100B0D00FDEE2499F582EF3400F583E0FB8C828DA8
:100B1D0083F00EBE00010FC3EE9414EF940040D984
:100B2D0022C2017F0020013A7E00EE242CF582E4E2
:100B3D003400F583E0FDEE240EF582E43400F583F8
:100B4D00E0FCEDB504028009C0071209F2D0078060
:100B5D000BBE0F02D2010EBE100040CE0FBFA00083
:100B6D0040C3A20122C29375C5C8120647D2939005
:100B7D0000ADE5C5F0E0F5822212067A9000011273
:100B8D000650D2947E007F00EE240EFCEF3400FD63
:100B9D00C007C006C005C004120B72AB82D004D0D2
:100BAD0005D006D0078C828D83EBF00EBE00010FB1
:100BBD00C3EE9414EF940040CF02067AC29375C52C
:100BCD00C8120647D2939000AEE5C5F0E0F582223B
:100BDD0012067A900001120650C2947E007F00EE3C
:100BED00240EFCEF3400FDC007C006C005C0041282
:100BFD000BC9AB82D004D005D006D0078C828D8373
:100C0D00EBF00EBE00010FC3EE9414EF940040CF35
:100C1D0002067A9000AFE580F0E0FF9000AF740F10
:100C2D005FF012043590178375F08012034B90001E
:100C3D00AFE0FFF582C00712044112043BD007EF6D
:100C4D00601190178F75F08012034B9007D0120230
:100C5D0060800990179D75F08012034B9001F4028E
:100C6D000260D2B7D284D285D286D287C2B5C2B63F
:100C7D00D294D296D290D291D292D2B4D2939000F5
:100C8D0064120260020C20D2B7D284D285D286D2F1
:100C9D0087D293900064120260C2B722E582900061
:100CAD00B0F0C28690000A1202609000B0E0F5C567
:100CBD0012064790000A120260D2869000B0E5C578
:100CCD00F022E5829000B1F0D28690000A12026007
:100CDD009000B1E0F5C512064790000A120260C2FD
:100CED00869000B1E5C5F02212067A900001120639
:100CFD00507E007F00EE242CF582EF3400F583E06A
:100D0D00F582C007C006120CA9D006D0070EBE0092
:100D1D00010FC3EE9410EF940040DA12067A9000A2
:100D2D000002065012067A9000011206507E007FD6
:100D3D0000EE242CF582EF3400F583E0F582C00738
:100D4D00C006120CCFD006D0070EBE00010FC3EEA9
:100D5D009410EF940040DA12067A900000020650CB
:100D6D0090000A120260C28590000A120260D285BC
:100D7D002290000A120260C28490000A120260D210
:100D8D008422E5829000B2F0FFBF0204C2B5C2B664
:100D9D00EF7004D2B5C2B6BF0104D2B5D2B6BF034F
:100DAD0004C2B5D2B622C2B490000112026075C55C
:100DBD008012064775C50012064775C50012064715
:100DCD0075C500120647900001120260D2B4900062
:100DDD000A120260C2B490000112026075C50012C1
:100DED00064775C50312064775C5FF12064775C53B
:100DFD0004120647900001120260D2B490000A124C
:100E0D000260C2B490000112026075C52B12064734
:100E1D0075C50012064775C50112064775C50E1238
:100E2D000647900001120260D2B490000A120260CF
:100E3D00C2B490000112026075C50012064775C557
:100E4D000012064775C50112064775C50F120647F4
:100E5D00900001120260D2B490000A020260C2B486
:100E6D0090000112026075C58012064775C500120B
:100E7D00064775C50012064775C500120647900056
:100E8D0001120260D2B490000A120260C2B4900046
:100E9D000112026075C50012064775C5031206479B
:100EAD0075C5FF12064775C504120647900001125D
:100EBD000260D2B490000A120260C2B49000011216
:100ECD00026075C56812064775C50012064775C5DF
:100EDD000012064775C50E120647900001120260FA
:100EED00D2B490000A020260C2001202CA9017AE7C
:100EFD0075F08012034B900000120650900000E434
:100F0D00F5F01208D9120C6F120DB31204359017AB
:100F1D00BE75F08012034B1205811204359017D364
:100F2D0075F08012034B12043B9017DE75F08012A2
:100F3D00034B9003E81202601204C71205C312049A
:100F4D00359017EE75F08012034B12043B9017FE8F
:100F5D0075F08012034B7E187F00C3E49EE464801D
:100F6D008FF063F08095F0400302110C8E048F0515
:100F7D008E198F1A78007900C004C005C007C0060D
:100F8D00C005C004C001C000120C6F758202120DA5
:100F9D008FD000D001D004D0059000CFE519F0E539
:100FAD001AA3F090006EC001C000121485AC82AD82
:100FBD0083D000D0018C028D037C007D008A828B52
:100FCD00838CF0EDC005C004C001C0001208D9909B
:100FDD0003E8120260D000D001D004D005D006D0B5
:100FED0007881B891CD005D004E51C20E72CC00701
:100FFD00C006C005C004C001C000120D6D900001F7
:10100D00120260D000D001D004D005D006D0071553
:10101D001B74FFB51B02151C80CFC006C007C00591
:10102D00C004C001C000120691AA82AB83AEF0FFCE
:10103D00D000D001D004D005C007C006C005C00443
:10104D00C003C002C001C00012043590180E75F027
:10105D008012034BD000D001D002D003D004D005B4
:10106D008C828D83C005C004C003C002C001C000C6
:10107D0012048E90181175F08012034BD000D00120
:10108D0088828983C001C00012048E90181375F0F8
:10109D008012034BD000D001D002D003D004D00574
:1010AD00D006D0078A828B838EF0EFC007C006C0B2
:1010BD0005C004C001C00012074F120CF5C2879085
:1010CD000001120260D287120B86120B2E9202D0F3
:1010DD0000D001D004D005D006D007D007D00630FF
:1010ED000202D20008B8000109C3E89414E9648033
:1010FD0094805003020F851EBEFF011F020F671261
:10110D0004359017DE75F08012034B12043B30004E
:10111D000B90181675F08012034B800990181E75F0
:07112D00F08012034B80FE6D
:101740000A005265712074657374206461746100CD
:1017500074657374206461746120726561640063F0
:101760006F6D706C657465002047487A0045525271
:101770004F522100444143204F2F50207E20312ED4
:101780003256005243207374617465203D2000522C
:1017900065736574204661696C65642100526573E8
:1017A0006574205375636365737366756C00496E69
:1017B000697469616C697A696E672E2E2E005365B3
:1017C00074204A756D7065727320616E6420706953
:1017D0006E67002020202020434346464500546881
:1017E000726F7567687075742074657374005365E3
:1017F0007474696E6720757020746573740057691E
:101800007468203720626974205052425300662861
:10181000002C00293D005355434345535300466176
:05182000696C65640025
:10113400AF83E5829000B5F0EFA3F09000B7E4F040
:10114400E4A3F09000B3E0FEA3E0FF7D109000B5AF
:10115400E0FBA3E0FC339203ECCB25E0CB33FC9023
:1011640000B5EBF0ECA3F09000B7E0FBA3E0CB25D7
:10117400E0CB33FC9000B7EBF0ECA3F0300312901B
:1011840000B7E0FBA3E0FC9000B774014BF0ECA3C4
:10119400F09000B7E0FBA3E0FCC3EB9EEC9F401D86
:1011A4009000B7EBC39EF0EC9FA3F09000B5E0FB7A
:1011B400A3E0FC9000B574014BF0ECA3F0DD8E903D
:1011C40000B5E0FEA3E08E82F58322AF82AE83AD4C
:1011D400F0FC9000BDEFF0EEA3F0EDA3F0ECA3F073
:1011E4009000C1E4F09000BDE0FCA3E0FDA3E0FEAC
:1011F400A3E0FF7B009000B9E0F521A3E0F522A372
:10120400E0F523A3E0F524235401FA7074C003E548
:10121400212521F8E52233F9E52333FAE52433FBCC
:101224009000B9E8F0E9A3F0EAA3F0EBA3F0900092
:10123400B9E0F521A3E0F522A3E0F523A3E0F5242A
:10124400C3EC9521ED9522EE9523EF9524D0035020
:1012540027E524C313F524E52313F523E52213F529
:1012640022E52113F5219000B9F0E522A3F0E5234E
:10127400A3F0E524A3F080090B9000C1EBF0021168
:10128400F99000C1E0FF9000BDE0FBA3E0FCA3E007
:10129400FDA3E0FE9000B9E0F521A3E0F522A3E070
:1012A400F523A3E0F524C3EB9521EC9522ED9523DA
:1012B400EE952440179000BDEBC39521F0EC9522E8
:1012C400A3F0ED9523A3F0EE9524A3F09000B9E0EC
:1012D400FBA3E0FCA3E0FDA3E0C313FEED13FDECD0
:1012E40013FCEB13FB9000B9F0ECA3F0EDA3F0EECC
:1012F400A3F08F061FEE708E9000BDE0FCA3E0FD0E
:10130400A3E0FEA3E08C828D838EF022AF82AE83B5
:10131400ADF0FC9000C6EFF0EEA3F0EDA3F0ECA36B
:10132400F09000CAE4F0E4A3F0E4A3F0E4A3F090A6
:1013340000C2E0FCA3E0FDA3E0FEA3E0FF752120D2
:101344009000C6E0F8A3E0F9A3E0FAA3E0FB33922F
:1013540004E828F8E933F9EA33FAEB33FB9000C6E2
:10136400E8F0E9A3F0EAA3F0EBA3F09000CAE0F8F8
:10137400A3E0F9A3E0FAA3E0FBE828F8E933F9EAEB
:1013840033FAEB33FB9000CAE8F0E9A3F0EAA3F0E8
:10139400EBA3F030041E9000CAE0F8A3E0F9A3E048
:1013A400FAA3E0FB9000CA740148F0E9A3F0EAA3B1
:1013B400F0EBA3F09000CAE0F8A3E0F9A3E0FAA3ED
:1013C400E0FBC3E89CE99DEA9EEB9F40319000CA94
:1013D400E8C39CF0E99DA3F0EA9EA3F0EB9FA3F081
:1013E4009000C6E0F8A3E0F9A3E0FAA3E0FB9000C4
:1013F400C6740148F0E9A3F0EAA3F0EBA3F0D52109
:101404000280030213449000C6E0FCA3E0FDA3E0C5
:0A141400FEA3E08C828D838EF0228F
:06006000E478FFF6D8FD74
:10003E007900E94400601B7A0090182578D675A0E7
:10004E0000E493F2A308B8000205A0D9F4DAF27521
:02005E00A0FF01
:10141E00FCABF0AA83A982749EC2D1F58212170981
:10142E000215527F9E12145830D103021573C3EF6A
:10143E009582500974FFF5F0F583F582227900123A
:10144E0016C689828A838BF0EC22AA82AB83A2F71E
:10145E003392D1F5826002D2F7ACF02220F7113030
:10146E00F6138883A88220F509F6A88375830022D7
:10147E0080FEF280F5F022AA83AB828BF09000CF33
:10148E00E0A4F8A9F08AF0E0A429F98BF0A3E0A477
:10149E0029F58388822222AF83E5829000D3F0EF74
:1014AE00A3F09000D5E4F09000D3E0FEA3E0FF7D22
:1014BE00009000D1E0FBA3E0FC235401FA7037EC5E
:1014CE00CB25E0CB33FC9000D1EBF0ECA3F09000F9
:1014DE00D1E0FBA3E0FCC3EE9BEF9C5011ECC313D9
:1014EE00CB13CBFC9000D1EBF0ECA3F080080D9069
:1014FE0000D5EDF080BB9000D5E0FF9000D3E0FD6D
:10150E00A3E0FE9000D1E0FBA3E0FCC3ED9BEE9CBC
:10151E00400B9000D3EDC39BF0EE9CA3F09000D156
:10152E00E0FDA3E0C313CD13CDFE9000D1EDF0EEA0
:10153E00A3F08F061FEE70C39000D3E0FEA3E08EE3
:04154E0082F583227D
:100066007800E84400600A790075A000E4F309D836
:10007600FC78D6E84400600C7901900000E4F0A317
:04008600D8FCD9FACF
:10155200B98003EA13B34010EA2401FAE43BFBE446
:101562003CFC50047C800582BC000EBB000BBA0020
:1015720008E4F5F0F583F58222A2D1E582138CF01E
:1015820092F78B838A8222E4F583F58275F080F4E8
:10159200A2D11322E4F583F58275F0C0747F22AAEA
:1015A20082AB8312167C6003A380F8C3E5829AF5AE
:1015B20082E5839BF5832212169830D502B2D1BF01
:1015C2000009BC0003021596021589BC000302152E
:1015D20073E583B4FF0BE582B4FF0302159602158F
:1015E20073E582B4FF03021589C395835007247FF4
:1015F200400B0215732480145003021589F582C32F
:10160200ED9AEE9BEF9C40111582C3EA33F9EB335E
:10161200FAEC33FBE433FC8005E4CCCBCAF9C0829C
:1016220075F019C3E99DEA9EEB9FEC9400D5F00298
:10163200802D400EE99DF9EA9EFAEB9FFBEC9400A7
:10164200FCC3B3E833F8E58233F582E58333F583EF
:10165200C3E933F9EA33FAEB33FBEC33FC80C4B36E
:10166200E4F938FAE43582FBE43583FCD082500495
:0A16720005827C8012170902156A38
:0D00310075812412173CE582600302002E49
:10167C0020F71430F6148883A88220F507E6A88397
:10168C0075830022E280F7E49322E022AA82AB83E6
:10169C00A2F73392D1F5826002D2F7ACF0E5812447
:1016AC00F9F8E6FD08E6FE0886F008E6A2F73392A4
:1016BC00D5F5836002D2F7AFF0226040F825825056
:1016CC000274FFF582E824F8501ECCCBCAF9E4CCA6
:1016DC0024F85014CBCAF9E4CB24F8500BCAF9E423
:1016EC00CA24F8500379002224086010F8C3EC13C4
:1016FC00FCEB13FBEA13FAE913F9D8F1227804ECAA
:10170C007011E58224F8500AF582E4C9CACBFCD8E2
:10171C00EF22EC7820058220E713D5820122C3E961
:10172C0033F9EA33FAEB33FBEC33FCD8EA158222BB
:04173C007582002290
:00000001FF
