:040000000200313297
:01000B0032C2
:0100130032BA
:01001B0032B2
:0100230032AA
:03002B000203A825
:03008A0002002E43
:03002E00020A586B
:10008D00AF83E582900024F0EFA3F0900024E0FE12
:10009D00A3E0FF7C007D00C3EE9CEF64808DF063D8
:1000AD00F08095F040147A647B011ABAFF011BEAC7
:1000BD004B70F70CBC00E00D80DD22E58290002630
:1000CD00F0FFC4540FFE53060F74804EF5A08EA0A2
:1000DD00900001C00712008DD00753070F74804F99
:1000ED00F5A08FA090000202008DC2A5C2A69000BF
:1000FD000112008D75A002D2A790000112008DC2D1
:10010D00A790000112008D7582281200C890000181
:10011D0012008D7582011200C890000112008D75BC
:10012D0082801200C890000112008D75820E12009F
:10013D00C890000102008DE582900027F0FFC454A5
:10014D000FFE53060F74A04EF5A074204EF5A0902F
:10015D000001C00712008DD00753070F74A04FF593
:10016D00A074204FF5A090000102008DAFF0AE837A
:10017D00E582900028F0EEA3F0EFA3F0900028E0C8
:10018D00FDA3E0FEA3E0FF7B007C00C005C006C020
:10019D0007900028E0F8A3E0F9A3E0FA88828983AC
:1001AD008AF0C007C006C005C004C0031210A3E545
:1001BD00828583F0D003D004D005D006D00724FF6C
:1001CD00F9E5F034FFFA8B008C07C3E998EA9FD06C
:1001DD0007D006D0054052BB101DBC001A7582C059
:1001ED00C007C006C005C004C0031200C8D003D0AC
:1001FD0004D005D006D007EB2DF8EC3EF98F028820
:10020D008289838AF012117EF582C007C006C0056F
:10021D00C004C003120144D003D004D005D006D0D1
:10022D00070BBB00010C02019822AF83E582900001
:10023D002BF0EFA3F090002BE0FEA3E0FF7C007D00
:10024D0000C3EC9EED64808FF063F08095F0501D3F
:10025D00758210C007C006C005C0041200C8D004C6
:10026D00D005D006D0070CBC00D70D80D4227582E6
:10027D00010200C87582C00200C8E58290002DF011
:10028D00FFC4540FFE24F6500990002F74372EF042
:10029D00800790002F74302EF090002FE0F582C073
:1002AD0007120144D00753070FEF24F650099000B1
:1002BD002E74372FF0800790002E74302FF09000A1
:1002CD002EE0F582020144759B1C759AF3759850CA
:1002DD007587002210990280FB22AFF0AE83E58274
:1002ED00900030F0EEA3F0EFA3F0900030E0FDA30E
:1002FD00E0FEA3E0FF7B007C00C005C006C00790B8
:10030D000030E0F8A3E0F9A3E0FA888289838AF04F
:10031D00C007C006C005C004C0031210A3E5828546
:10032D0083F0D003D004D005D006D00724FFF9E523
:10033D00F034FFFA8B008C07C3E998EA9FD007D001
:10034D0006D0054032EB2DF8EC3EF98F02888289FC
:10035D00838AF012117EF599C007C006C005C0044E
:10036D00C0031202E1D003D004D005D006D0070B94
:10037D00BB00010C02030622E582900033F0F599D3
:10038D000202E190124275F0801202E775820D02B1
:10039D00038510980280FB85998222C0E0C082C03F
:1003AD0083C007C0D075D000309811900034E59906
:1003BD00F0C298900034E0FFF582800D1099028014
:1003CD00057582008003758200D0D0D007D083D010
:1003DD0082D0E032C29290000A12008D75C5A5122E
:1003ED000674E5C5D29222C29290000112008D755D
:1003FD00C501120674E5C590006412008D75C50126
:10040D00120674900020E5C5F090006412008D7501
:10041D00C50112067490001FE5C5F090006412002E
:10042D008D75C50112067490001EE5C5F0E5C5D2A7
:10043D009290001EE0FF7E0090001FE07C002FFFD9
:10044D00EC3EFE900020E0FCE42FFFEC3EFE3395E9
:10045D00E0FD8F828E838DF0120DE6AC82AD83AE02
:10046D00F0FF749AC0E07499C0E0C0E0743EC0E043
:10047D008C828D838EF0EF1210BBAC82AD83AEF00B
:10048D00FFE58124FCF5818C828D838EF0EF120DBA
:10049D00F9AC82AD83AEF0FF900020E0F582C0078D
:1004AD00C006C005C00412028790001FE0F582123D
:1004BD00028790001EE0F582120287D004D005D08D
:1004CD0006D00790001E7434F090001F74ACF090AD
:1004DD000020741EF08C828D838EF0EF22AF82AEE1
:1004ED0083ADF0FC900035EFF0EEA3F0EDA3F0EC52
:1004FD00A3F0900039E4F0E4A3F090003BE4F0E4C5
:10050D00A3F090003DE4F0E4A3F090003FE4F0E4AC
:10051D00A3F0900041E4F0E4A3F0900043E4F0E494
:10052D00A3F0900045E4F0E4A3F0900047E4F0E47C
:10053D00A3F0900049E4F0E4A3F090004BE4F0E464
:10054D00A3F07E007F00900035E0F50AA3E0F50BE7
:10055D00A3E0F50CA3E0F50DE50A450B450C450DA3
:10056D0070030205F88E00EFC825E0C833F9E824C2
:10057D0039F508E93400F5099000BE740AF0E4A3DA
:10058D00F0E4A3F0E4A3F0850A82850B83850CF0DB
:10059D00E50DC007C006120B97A882A983D006D01F
:1005AD0007430030850882850983E8F0E9A3F090C0
:1005BD0000C7740AF0E4A3F0E4A3F0E4A3F0850A05
:1005CD0082850B83850CF0E50DC007C006120CD893
:1005DD00AA82AB83ACF0FDD006D007900035EAF0CF
:1005ED00EBA3F0ECA3F0EDA3F080198E04EFCC2576
:1005FD00E0CC33FDEC2439F582ED3400F583743015
:10060D00F0E4A3F00EBE00010FC3EE940AEF9400C8
:10061D0050030205537E007F008E057409C39D753E
:10062D00F002A42439F582740035F0F583E0FCA3C3
:10063D00E08C82C007C006120144D006D007EE4FF1
:10064D00700E75822EC007C006120144D006D00769
:10065D000EBE00010FC3EE9403EF940040BB901249
:10066D004475F080020179E5C4235401FF60F8223E
:10067D00AF83E58290004DF0EFA3F090004DE0FECA
:10068D00A3E0FF4E700775C3BE43C34022BE0109F0
:10069D00BF000675C3B243C3402253C3BF22AF830D
:1006AD00E58290004FF0EFA3F090004FE0FEA3E045
:1006BD00FF9000D3E4F07401A3F08E828F83C00706
:1006CD00C006120E32AC82D006D0079000DCE4F0EA
:1006DD007401A3F08E828F83C004120F48AE824343
:1006ED000670C2908EC5120674D0048CC5120674A5
:1006FD00E5C5D29022AF83E582900051F0EFA3F0D3
:10070D00900053E4F0E4A3F0900055E4F0E4A3F07E
:10071D00900057E4F0E4A3F0900059E4F0E4A3F066
:10072D00C29175C501120674900051E0FEA3E0FF61
:10073D004E700375C588BE0106BF000375C5A8BE02
:10074D000206BF000375C5C8120674AFC57E0075DD
:10075D00C588C007C006120674D006D007ACC57D8B
:10076D0000EC2EFEED3FFFD2915307038E828F8357
:10077D00227E007F00BE132CBF0029EE245BFCEF10
:10078D003400FDEE2400F582EF3400F583E025E022
:10079D00FB900000E0235401FAEB42028C828D8322
:1007AD00EAF08031EE245BFCEF3400FDEE2400F521
:1007BD0082EF3400F583E025E0FB8E02EA0424008D
:1007CD00F582E43400F583E0235401FAEB42028C08
:1007DD00828D83EAF00EBE00010FC3EE9414EF6418
:1007ED0080948040907E007F00EE2400FCEF34006A
:1007FD00FDEE245BF582EF3400F583E0FB8C828DFA
:10080D0083F00EBE00010FC3EE9414EF648094804C
:10081D0040D7227E007F00BE132CBF0029EE246F2F
:10082D00FCEF3400FDEE2400F582EF3400F583E09B
:10083D0025E0FB900000E0235401FAEB42028C828C
:10084D008D83EAF08031EE246FFCEF3400FDEE2451
:10085D0000F582EF3400F583E025E0FB8E02EA041B
:10086D002400F582E43400F583E0235401FAEB42D1
:10087D00028C828D83EAF00EBE00010FC3EE94143C
:10088D00EF6480948040907E007F00EE2400FCEFAA
:10089D003400FDEE246FF582EF3400F583E0FB8C20
:1008AD00828D83F00EBE00010FC3EE9414EF6480B1
:1008BD00948040D722AFF0AE83E582900083F0EEB6
:1008CD00A3F0EFA3F0C200900083E0FDA3E0FEA330
:1008DD00E0FF7C0020004C7B00EB2DF8E43EF98F0F
:1008ED0002888289838AF012117EF8EB2400F5824A
:1008FD00E43400F583E0FAE8B502028015C007C0C4
:10090D0006C005C00412077ED004D005D006D0075E
:10091D00800BBB0F02D2000BBB100040BC0CBCA067
:10092D000040B1A20022C29375C5C8120674D293BD
:10093D00900086E5C5F0E0F582227E007F00EE2472
:10094D0087FCEF3400FDC007C006C005C0041209C6
:10095D0033AB82D004D005D006D0078C828D83EBCB
:10096D00F00EBE00010FC3EE9414EF64809480402E
:10097D00CD90008775F0002290009BE580F0E0FFA0
:10098D0090009B740F5FF012027B90009BE0FF6064
:10099D001590124975F0801201791202819012574B
:1009AD0075F08002017990126375F0801201791251
:1009BD00028190127175F08002017990000112068A
:1009CD007DC2B490000112008D75C580120674753C
:1009DD00C50012067475C50012067475C5001206A1
:1009ED007490000112008DD2B490000A12008DC2D5
:1009FD00B490000112008D75C50012067475C50303
:100A0D0012067475C50812067475C5041206749025
:100A1D00000112008DD2B490000A12008DC2B49064
:100A2D00000112008D75C52B12067475C5001206D6
:100A3D007475C50112067475C50E12067490000109
:100A4D0012008DD2B490000A02008D90009CE4F04B
:100A5D00E4A3F090009EE4F07402A3F09000A0E4F3
:100A6D00F07404A3F09000A2E4F07406A3F09000DB
:100A7D00A4E4F07408A3F09000A6E4F0740AA3F0C7
:100A8D009000A8E4F0740CA3F09000AAE4F0740EAA
:100A9D00A3F09000AC74FFF0740FA3F09000AE744F
:100AAD00FFF0740FA3F09000B074FFF0740FA3F07B
:100ABD009000B274FFF0740FA3F09000B474FFF0C7
:100ACD00740FA3F09000B674FFF0740FA3F09000B4
:100ADD00B874FFF0740FA3F09000BA74FFF0740FA8
:100AED00A3F075C3BE43C3401200F790127F75F09B
:100AFD00801201799000BCE4F0E4A3F09000BCE01A
:100B0D00FEA3E0FF8E04CC25E0CC33FDEC249CF558
:100B1D0082ED3400F583E0FCA3E0FD8C028D0443EF
:100B2D000470C2908CC5C007C006C002120674D0F6
:100B3D00028AC5120674D29090128875F080120147
:100B4D0079D006D0079000BC74012EF0E43FA3F0DD
:100B5D009000BCE0FEA3E0FFBE10A1BF009E900080
:100B6D00BCE4F0E4A3F012027BB201300109901253
:100B7D008A75F08012017920010990129175F0802B
:0A0B8D00120179A2019294020B09F3
:101242000A002047487A0020202043686970205213
:101252006573657400202020204661696C656421F5
:1012620000202020436869702052455345540020D5
:1012720020205375636365737366756C0044414344
:101282002054657374003100546F67676C650044C5
:01129200005B
:100B9700AF82AE83ADF0FC9000C2EFF0EEA3F0EDB4
:100BA700A3F0ECA3F09000C6E4F09000C2E0FCA331
:100BB700E0FDA3E0FEA3E0FF7B009000BEE0F50EA2
:100BC700A3E0F50FA3E0F510A3E0F511235401FA14
:100BD7007074C003E50E250EF8E50F33F9E5103301
:100BE700FAE51133FB9000BEE8F0E9A3F0EAA3F0C1
:100BF700EBA3F09000BEE0F50EA3E0F50FA3E0F540
:100C070010A3E0F511C3EC950EED950FEE9510EFDF
:100C17009511D0035027E511C313F511E51013F50E
:100C270010E50F13F50FE50E13F50E9000BEF0E576
:100C37000FA3F0E510A3F0E511A3F080090B9000D6
:100C4700C6EBF0020BC19000C6E0FF9000C2E0FBCC
:100C5700A3E0FCA3E0FDA3E0FE9000BEE0F50EA339
:100C6700E0F50FA3E0F510A3E0F511C3EB950EEC4B
:100C7700950FED9510EE951140179000C2EBC395B7
:100C87000EF0EC950FA3F0ED9510A3F0EE9511A3E0
:100C9700F09000BEE0FBA3E0FCA3E0FDA3E0C313DC
:100CA700FEED13FDEC13FCEB13FB9000BEF0ECA381
:100CB700F0EDA3F0EEA3F08F061FEE708E9000C24A
:100CC700E0FCA3E0FDA3E0FEA3E08C828D838EF021
:100CD70022AF82AE83ADF0FC9000CBEFF0EEA3F035
:100CE700EDA3F0ECA3F09000CFE4F0E4A3F0E4A3CD
:100CF700F0E4A3F09000C7E0FCA3E0FDA3E0FEA3AF
:100D0700E0FF750E209000CBE0F8A3E0F9A3E0FA2E
:100D1700A3E0FB339202E828F8E933F9EA33FAEB68
:100D270033FB9000CBE8F0E9A3F0EAA3F0EBA3F0E4
:100D37009000CFE0F8A3E0F9A3E0FAA3E0FBE828EE
:100D4700F8E933F9EA33FAEB33FB9000CFE8F0E93F
:100D5700A3F0EAA3F0EBA3F030021E9000CFE0F877
:100D6700A3E0F9A3E0FAA3E0FB9000CF740148F0F9
:100D7700E9A3F0EAA3F0EBA3F09000CFE0F8A3E03B
:100D8700F9A3E0FAA3E0FBC3E89CE99DEA9EEB9F89
:100D970040319000CFE8C39CF0E99DA3F0EA9EA301
:100DA700F0EB9FA3F09000CBE0F8A3E0F9A3E0FA03
:100DB700A3E0FB9000CB740148F0E9A3F0EAA3F0AD
:100DC700EBA3F0D50E028003020D0C9000CBE0FCE4
:0F0DD700A3E0FDA3E0FEA3E08C828D838EF022CB
:06006000E478FFF6D8FD74
:10003E007900E94400601B7A0090129378E675A06F
:10004E0000E493F2A308B8000205A0D9F4DAF27521
:02005E00A0FF01
:100DE600FCABF0AA83A982749EC2D1F58212120BC3
:100DF6000210547F9E120E2030D103021075C3EFED
:100E06009582500974FFF5F0F583F5822279001278
:100E160011C889828A838BF0EC22AA82AB83A2F75F
:100E26003392D1F5826002D2F7ACF022AF83E5822D
:100E36009000D5F0EFA3F09000D5E0FEA3E0FF33DD
:100E4600E433FD6009C3E49EFBE49FFC80048E034B
:100E56008F049000D3E0FEA3E0FF30E709C3E49ED1
:100E6600F9E49FFA80048E018F029000D7E9F0EA38
:100E7600A3F08B828C83C005120E9BAE82AF83D00B
:100E860005ED600CC3E49EFCE49FFD8C828D8322FD
:100E96008E828F8322AF83E5829000D9F0EFA3F094
:100EA6009000DBE4F09000D9E0FEA3E0FF7D009027
:100EB60000D7E0FBA3E0FC235401FA7037ECCB2506
:100EC600E0CB33FC9000D7EBF0ECA3F09000D7E03A
:100ED600FBA3E0FCC3EE9BEF9C5011ECC313CB13BA
:100EE600CBFC9000D7EBF0ECA3F080080D9000DB74
:100EF600EDF080BB9000DBE0FF9000D9E0FDA3E0C1
:100F0600FE9000D7E0FBA3E0FCC3ED9BEE9C400BFC
:100F16009000D9EDC39BF0EE9CA3F09000D7E0FDC6
:100F2600A3E0C313CD13CDFE9000D7EDF0EEA3F0F2
:100F36008F061FEE70C39000D9E0FEA3E08E82F507
:020F4600832204
:100066007800E84400600A790075A000E4F309D836
:10007600FC78E6E84400600C7901900000E4F0A307
:04008600D8FCD9FACF
:100F4800AF83E5829000DEF0EFA3F09000DEE0FED4
:100F5800A3E0FF33E433FD6009C3E49EFBE49FFC98
:100F680080048E038F049000DCE0FEA3E0FF33E4EE
:100F780033FA6009C3E49EF8E49FF980048E008F79
:100F8800019000E0E8F0E9A3F08B828C83C005C0F3
:100F980002120FB9AE82AF83D002D005EA6D600CA1
:100FA800C3E49EFCE49FFD8C828D83228E828F8316
:100FB80022AF83E5829000E2F0EFA3F09000E4E432
:100FC800F0E4A3F09000E0E0FEA3E0FF7D109000C5
:100FD800E2E0FBA3E0FC339203ECCB25E0CB33FC4F
:100FE8009000E2EBF0ECA3F09000E4E0FBA3E0CB90
:100FF80025E0CB33FC9000E4EBF0ECA3F0300312D7
:101008009000E4E0FBA3E0FC9000E474014BF0ECFA
:10101800A3F09000E4E0FBA3E0FCC3EB9EEC9F4050
:101028001D9000E4EBC39EF0EC9FA3F09000E2E07B
:10103800FBA3E0FC9000E274014BF0ECA3F0DD8E22
:101048009000E2E0FEA3E08E82F58322B98003EAF5
:1010580013B34010EA2401FAE43BFBE43CFC5004DF
:101068007C800582BC000EBB000BBA0008E4F5F0DA
:10107800F583F58222A2D1E582138CF092F78B8357
:101088008A8222E4F583F58275F080F4A2D11322D6
:10109800E4F583F58275F0C0747F22AA82AB8312CF
:1010A800117E6003A380F8C3E5829AF582E5839BED
:1010B800F5832212119A30D502B2D1BF0009BC00C3
:1010C8000302109802108BBC0003021075E583B46C
:1010D800FF0BE582B4FF03021098021075E582B495
:1010E800FF0302108BC395835007247F400B021027
:1010F80075248014500302108BF582C3ED9AEE9B81
:10110800EF9C40111582C3EA33F9EB33FAEC33FB59
:10111800E433FC8005E4CCCBCAF9C08275F019C36E
:10112800E99DEA9EEB9FEC9400D5F002802D400EDD
:10113800E99DF9EA9EFAEB9FFBEC9400FCC3B3E847
:1011480033F8E58233F582E58333F583C3E933F970
:10115800EA33FAEB33FBEC33FC80C4B3E4F938FA36
:10116800E43582FBE43583FCD082500405827C8020
:0611780012120B02106CC4
:0D00310075812012123EE582600302002E50
:10117E0020F71430F6148883A88220F507E6A8839A
:10118E0075830022E280F7E49322E022AA82AB83E9
:10119E00A2F73392D1F5826002D2F7ACF0E581244A
:1011AE00F9F8E6FD08E6FE0886F008E6A2F73392A7
:1011BE00D5F5836002D2F7AFF0226040F825825059
:1011CE000274FFF582E824F8501ECCCBCAF9E4CCA9
:1011DE0024F85014CBCAF9E4CB24F8500BCAF9E426
:1011EE00CA24F8500379002224086010F8C3EC13C7
:1011FE00FCEB13FBEA13FAE913F9D8F1227804ECAD
:10120E007011E58224F8500AF582E4C9CACBFCD8E5
:10121E00EF22EC7820058220E713D5820122C3E964
:10122E0033F9EA33FAEB33FBEC33FCD8EA158222BE
:04123E007582002293
:00000001FF
