:040000000200313297
:01000B0032C2
:0100130032BA
:01001B0032B2
:0100230032AA
:03002B0002070CBD
:03008A0002002E43
:03002E00020A843F
:10008D00AF83E58290001EF0EFA3F090001EE0FE1E
:10009D00A3E0FF7C007D00C3EE9CEF64808DF063D8
:1000AD00F08095F040147A647B011ABAFF011BEAC7
:1000BD004B70F70CBC00E00D80DD22E58290002036
:1000CD00F0FFC4540FFE53060F74804EF5A08EA0A2
:1000DD00900001C00712008DD00753070F74804F99
:1000ED00F5A08FA090000202008DC250C25090006A
:1000FD000112008D75A002D25090000112008DC228
:10010D005090000112008D7582281200C8900001D8
:10011D0012008D7582011200C890000112008D75BC
:10012D0082801200C890000112008D75820E12009F
:10013D00C890000102008DE582900021F0FFC454AB
:10014D000FFE53060F74A04EF5A074204EF5A0902F
:10015D000001C00712008DD00753070F74A04FF593
:10016D00A074204FF5A090000102008DAFF0AE837A
:10017D00E582900022F0EEA3F0EFA3F0900022E0D4
:10018D00FDA3E0FEA3E0FF7B007C00C005C006C020
:10019D0007900022E0F8A3E0F9A3E0FA88828983B2
:1001AD008AF0C007C006C005C004C003121124E5C3
:1001BD00828583F0D003D004D005D006D00724FF6C
:1001CD00F9E5F034FFFA8B008C07C3E998EA9FD06C
:1001DD0007D006D0054052BB101DBC001A7582C059
:1001ED00C007C006C005C004C0031200C8D003D0AC
:1001FD0004D005D006D007EB2DF8EC3EF98F028820
:10020D008289838AF01211FFF582C007C006C005EE
:10021D00C004C003120144D003D004D005D006D0D1
:10022D00070BBB00010C02019822AF83E582900001
:10023D0025F0EFA3F0900025E0FEA3E0FF7C007D0C
:10024D0000C3EC9EED64808FF063F08095F0501D3F
:10025D00758210C007C006C005C0041200C8D004C6
:10026D00D005D006D0070CBC00D70D80D4227582E6
:10027D00010200C87582C00200C8E582900027F017
:10028D00FFC4540FFE24F6500990002974372EF048
:10029D00800790002974302EF0900029E0F582C07F
:1002AD0007120144D00753070FEF24F650099000B1
:1002BD002874372FF0800790002874302FF09000AD
:1002CD0028E0F582020144C25090000A12008D759B
:1002DD00C5A512052EE5C5D25022C25090000112BF
:1002ED00008D75C50112052EE5C590006412008DB7
:1002FD0075C50112052EAEC57F0090002EEEF0EFF4
:10030D00A3F090006412008D75C50112052EAEC5C7
:10031D007F0090002CEEF0EFA3F090006412008DA2
:10032D0075C50112052EAEC57F0090002AEEF0EFC7
:10033D00A3F0E5C5D25090002CE0FCA3E0FDEC2E1F
:10034D00FEED3FFF90002EE0FCA3E08C05E42EFEB9
:10035D00ED3FFF7D007C008E828F838DF0EC120EC1
:10036D0067AC82AD83AEF0FF749AC0E07499C0E0C3
:10037D00C0E0743EC0E08C828D838EF0EF12113C94
:10038D00AC82AD83AEF0FFE58124FCF5818C828DCE
:10039D00838EF0EF020E7AAF82AE83ADF0FC90004B
:1003AD0030EFF0EEA3F0EDA3F0ECA3F0900034E409
:1003BD00F0E4A3F0900036E4F0E4A3F0900038E40C
:1003CD00F0E4A3F090003AE4F0E4A3F090003CE4F4
:1003DD00F0E4A3F090003EE4F0E4A3F0900040E4DC
:1003ED00F0E4A3F0900042E4F0E4A3F0900044E4C4
:1003FD00F0E4A3F0900046E4F0E4A3F07E007F006B
:10040D00900030E0F50AA3E0F50BA3E0F50CA3E0B6
:10041D00F50DE50A450B450C450D70030204B28E32
:10042D0000EFC825E0C833F9E82434F508E93400B5
:10043D00F5099000DA740AF0E4A3F0E4A3F0E4A364
:10044D00F0850A82850B83850CF0E50DC007C0068B
:10045D00120C18A882A983D006D007430030850856
:10046D0082850983E8F0E9A3F09000E3740AF0E4D3
:10047D00A3F0E4A3F0E4A3F0850A82850B83850C39
:10048D00F0E50DC007C006120D59AA82AB83ACF082
:10049D00FDD006D007900030EAF0EBA3F0ECA3F00E
:1004AD00EDA3F080198E04EFCC25E0CC33FDEC24C8
:1004BD0034F582ED3400F5837430F0E4A3F00EBE14
:1004CD0000010FC3EE940AEF9400500302040D7E59
:1004DD00007F008E057409C39D75F002A42434F5C8
:1004ED0082740035F0F583E0FCA3E08C82C007C078
:1004FD0006120144D006D007EE4F700E75822EC045
:10050D0007C006120144D006D0070EBE00010FC36E
:10051D00EE9403EF940040BB9012C375F08002017E
:10052D0079E5C4235401FF60F822AF83E582900082
:10053D0048F0EFA3F0900048E0FEA3E0FF4E7007F7
:10054D0075C3BE43C34022BE0109BF000675C3B2C9
:10055D0043C3402253C3BF22AF83E58290004AF0CC
:10056D00EFA3F090004AE0FEA3E0FF9000EFE4F06F
:10057D007401A3F08E828F83C007C006120EB3AC38
:10058D0082D006D0079000F8E4F07401A3F08E82BB
:10059D008F83C004120FC9AE82430670C2508EC540
:1005AD0012052ED0048CC512052EE5C5D25022AFF2
:1005BD0083E58290004CF0EFA3F090004EE4F0E460
:1005CD00A3F0900050E4F0E4A3F0900052E4F0E4C6
:1005DD00A3F0900054E4F0E4A3F0C25075C50112ED
:1005ED00052E90004CE0FEA3E0FF4E700375C5880C
:1005FD00BE0106BF000375C5A8BE0206BF00037588
:10060D00C5C812052EAFC57E0075C588C007C006CA
:10061D0012052ED006D007ACC57D00EC2EFEED3FA9
:10062D00FFD2505307038E828F8322759B1C759AC0
:10063D00F37598507587002210990280FB22AFF058
:10064D00AE83E582900056F0EEA3F0EFA3F090009C
:10065D0056E0FDA3E0FEA3E0FF7B007C00C005C0DB
:10066D0006C007900056E0F8A3E0F9A3E0FA8882EF
:10067D0089838AF0C007C006C005C004C0031211EB
:10068D0024E5828583F0D003D004D005D006D007B1
:10069D0024FFF9E5F034FFFA8B008C07C3E998EAE3
:1006AD009FD007D006D0054032EB2DF8EC3EF98FE8
:1006BD0002888289838AF01211FFF599C007C0065E
:1006CD00C005C004C003120645D003D004D005D028
:1006DD0006D0070BBB00010C02066A22E5829000D2
:1006ED0059F0F5990206459012C875F08012064B27
:1006FD0075820D0206E910980280FB85998222C051
:10070D00E0C082C083C007C0D075D0003098119072
:10071D00005AE599F0C29890005AE0FFF582800DDD
:10072D0010990280057582008003758200D0D0D0AB
:10073D0007D083D082D0E0327E007F00BE132CBF65
:10074D000029EE245BFCEF3400FDEE2400F582EF72
:10075D003400F583E025E0FB900000E0235401FA1E
:10076D00EB42028C828D83EAF08031EE245BFCEF4C
:10077D003400FDEE2400F582EF3400F583E025E032
:10078D00FB8E02EA042400F582E43400F583E023B5
:10079D005401FAEB42028C828D83EAF00EBE000109
:1007AD000FC3EE9414EF6480948040907E007F0020
:1007BD00EE2400FCEF3400FDEE245BF582EF3400F7
:1007CD00F583E0FB8C828D83F00EBE00010FC3EE2E
:1007DD009414EF6480948040D7227E007F00BE1376
:1007ED002CBF0029EE246FFCEF3400FDEE2400F544
:1007FD0082EF3400F583E025E0FB900000E0235408
:10080D0001FAEB42028C828D83EAF08031EE246F87
:10081D00FCEF3400FDEE2400F582EF3400F583E0AB
:10082D0025E0FB8E02EA042400F582E43400F58312
:10083D00E0235401FAEB42028C828D83EAF00EBE66
:10084D0000010FC3EE9414EF6480948040907E00FD
:10085D007F00EE2400FCEF3400FDEE246FF582EFF7
:10086D003400F583E0FB8C828D83F00EBE00010F0A
:10087D00C3EE9414EF6480948040D722AFF0AE8322
:10088D00E582900083F0EEA3F0EFA3F0C20090009C
:10089D0083E0FDA3E0FEA3E0FF7C0020004C7B0085
:1008AD00EB2DF8E43EF98F02888289838AF01211CC
:1008BD00FFF8EB2400F582E43400F583E0FAE8B5A7
:1008CD0002028015C007C006C005C004120745D03E
:1008DD0004D005D006D007800BBB0F02D2000BBB96
:1008ED00100040BC0CBCA00040B1A20022C250754B
:1008FD00C5C812052ED250900086E5C5F0E0F582F0
:10090D00227E007F00EE2487FCEF3400FDC007C07F
:10091D0006C005C0041208FAAB82D004D005D0067B
:10092D00D0078C828D83EBF00EBE00010FC3EE94C9
:10093D0014EF6480948040CD90008775F000229074
:10094D00009BE580F0E0FF90009B740F5FF01202BA
:10095D007B90009BE0FF60159012CA75F08012012C
:10096D00791202819012D875F0800201799012E40B
:10097D0075F0801201791202819012F275F08002E9
:10098D000179900001120537C25090000112008DBF
:10099D0075C58012052E75C50012052E75C5001280
:1009AD00052E75C50012052E90000112008DD25036
:1009BD0090000A12008DC25090000112008D75C575
:1009CD000012052E75C50312052E75C50812052ECC
:1009DD0075C50412052E90000112008DD2509000A5
:1009ED000A12008DC25090000112008D75C52B1298
:1009FD00052E75C50012052E75C50112052E75C57E
:100A0D000E12052E90000112008DD25090000A0298
:100A1D00008D7E007F00EE2400FCEF3400FDC0074A
:100A2D00C006C005C004120703AB82D004D005D0A8
:100A3D0006D0078C828D83EBF00EBE00010FC3EE46
:100A4D009414EF6480948040CD227E007F00EE24CC
:100A5D0000F582EF3400F583E0F582C007C0061281
:100A6D0006E9D006D0070EBE00010FC3EE9414EFB9
:100A7D006480948040D82290009CE4F0E4A3F09030
:100A8D00009EE4F07402A3F09000A0E4F07404A3BF
:100A9D00F09000A2E4F07408A3F09000A4E4F074C8
:100AAD0010A3F09000A6E4F07420A3F09000A8E449
:100ABD00F07420A3F09000AAE4F07410A3F090005D
:100ACD00ACE4F07408A3F09000AEE4F07404A3F06D
:100ADD009000B0E4F07402A3F09000B2E4F0E4A34F
:100AED00F09000B4E4F0E4A3F09000B6E4F0E4A3D9
:100AFD00F09000B8E4F0E4A3F09000BAE4F0E4A3C1
:100B0D00F09000BC7441F09000BD7442F09000BEB6
:100B1D007443F09000BF7444F09000C07445F090A1
:100B2D0000C17446F09000C27447F09000C3744841
:100B3D00F09000C47449F09000C5744AF09000C65E
:100B4D00744BF09000C7744CF09000C8744DF09049
:100B5D0000C9744EF09000CA744FF09000CB7450E1
:100B6D00F09000CCE4F01200F712027B90130075A8
:100B7D00F08012017912028190130C75F080120130
:100B8D00799003E812008D12063812027B90131C27
:100B9D0075F08012017912028190132D75F080127B
:100BAD000179120A1F9012C875F08012064B90132E
:100BBD003D75F08012064B1206F4120A579007D0BD
:100BCD0012008D12027B90135075F0801201791274
:100BDD0006F490136C75F08012064B120A579000B4
:100BED00BC75F000120889920212027B30020B9044
:100BFD00137975F080120179800990138975F08051
:0B0C0D001201791206F4120A5780FE53
:1012C3002047487A000A0020202043686970205292
:1012D3006573657400202020204661696C65642174
:1012E3000020202043686970205245534554002054
:1012F30020205375636365737366756C00534443B1
:1013030043202D20556E697800496E7465677269B4
:10131300747920436865636B00436F7272656C6117
:1013230074696F6E20746573740052656164696ECD
:101333006720726573756C747300436869702072FB
:1013430065616420636F6D706C65746500526574CC
:1013530075726E696E6720736F7572636520646161
:10136300746120746F205043004368697020646186
:101373007461203D20005465737420537563636565
:0B138300737366756C004661696C00B6
:100C1800AF82AE83ADF0FC9000DEEFF0EEA3F0ED16
:100C2800A3F0ECA3F09000E2E4F09000DEE0FCA377
:100C3800E0FDA3E0FEA3E0FF7B009000DAE0F50E04
:100C4800A3E0F50FA3E0F510A3E0F511235401FA92
:100C58007074C003E50E250EF8E50F33F9E510337F
:100C6800FAE51133FB9000DAE8F0E9A3F0EAA3F023
:100C7800EBA3F09000DAE0F50EA3E0F50FA3E0F5A2
:100C880010A3E0F511C3EC950EED950FEE9510EF5E
:100C98009511D0035027E511C313F511E51013F58D
:100CA80010E50F13F50FE50E13F50E9000DAF0E5D9
:100CB8000FA3F0E510A3F0E511A3F080090B900055
:100CC800E2EBF0020C429000E2E0FF9000DEE0FB75
:100CD800A3E0FCA3E0FDA3E0FE9000DAE0F50EA39C
:100CE800E0F50FA3E0F510A3E0F511C3EB950EECCA
:100CF800950FED9510EE951140179000DEEBC3951A
:100D08000EF0EC950FA3F0ED9510A3F0EE9511A35E
:100D1800F09000DAE0FBA3E0FCA3E0FDA3E0C3133E
:100D2800FEED13FDEC13FCEB13FB9000DAF0ECA3E3
:100D3800F0EDA3F0EEA3F08F061FEE708E9000DEAC
:100D4800E0FCA3E0FDA3E0FEA3E08C828D838EF09F
:100D580022AF82AE83ADF0FC9000E7EFF0EEA3F097
:100D6800EDA3F0ECA3F09000EBE4F0E4A3F0E4A32F
:100D7800F0E4A3F09000E3E0FCA3E0FDA3E0FEA311
:100D8800E0FF750E209000E7E0F8A3E0F9A3E0FA91
:100D9800A3E0FB339203E828F8E933F9EA33FAEBE6
:100DA80033FB9000E7E8F0E9A3F0EAA3F0EBA3F047
:100DB8009000EBE0F8A3E0F9A3E0FAA3E0FBE82851
:100DC800F8E933F9EA33FAEB33FB9000EBE8F0E9A2
:100DD800A3F0EAA3F0EBA3F030031E9000EBE0F8D9
:100DE800A3E0F9A3E0FAA3E0FB9000EB740148F05C
:100DF800E9A3F0EAA3F0EBA3F09000EBE0F8A3E09E
:100E0800F9A3E0FAA3E0FBC3E89CE99DEA9EEB9F07
:100E180040319000EBE8C39CF0E99DA3F0EA9EA363
:100E2800F0EB9FA3F09000E7E0F8A3E0F9A3E0FA65
:100E3800A3E0FB9000E7740148F0E9A3F0EAA3F00F
:100E4800EBA3F0D50E028003020D8D9000E7E0FCC5
:0F0E5800A3E0FDA3E0FEA3E08C828D838EF02249
:06006000E478FFF6D8FD74
:10003E007900E94400601B7A0090138E780275A057
:10004E0001E493F2A308B8000205A0D9F4DAF27520
:02005E00A0FF01
:100E6700FCABF0AA83A982749EC2D1F58212128CC0
:100E77000210D57F9E120EA130D1030210F6C3EFE8
:100E87009582500974FFF5F0F583F58222790012F7
:100E9700124989828A838BF0EC22AA82AB83A2F75C
:100EA7003392D1F5826002D2F7ACF022AF83E582AC
:100EB7009000F1F0EFA3F09000F1E0FEA3E0FF3324
:100EC700E433FD6009C3E49EFBE49FFC80048E03CA
:100ED7008F049000EFE0FEA3E0FF30E709C3E49E34
:100EE700F9E49FFA80048E018F029000F3E9F0EA9B
:100EF700A3F08B828C83C005120F1CAE82AF83D008
:100F070005ED600CC3E49EFCE49FFD8C828D83227B
:100F17008E828F8322AF83E5829000F5F0EFA3F0F6
:100F27009000F7E4F09000F5E0FEA3E0FF7D00906D
:100F370000F3E0FBA3E0FC235401FA7037ECCB2568
:100F4700E0CB33FC9000F3EBF0ECA3F09000F3E080
:100F5700FBA3E0FCC3EE9BEF9C5011ECC313CB1338
:100F6700CBFC9000F3EBF0ECA3F080080D9000F7BA
:100F7700EDF080BB9000F7E0FF9000F5E0FDA3E007
:100F8700FE9000F3E0FBA3E0FCC3ED9BEE9C400B5F
:100F97009000F5EDC39BF0EE9CA3F09000F3E0FD0D
:100FA700A3E0C313CD13CDFE9000F3EDF0EEA3F055
:100FB7008F061FEE70C39000F5E0FEA3E08E82F56A
:020FC700832283
:100066007800E84400600A790075A000E4F309D836
:10007600FC7802E84401600C7902900000E4F0A3E9
:04008600D8FCD9FACF
:100FC900AF83E5829000FAF0EFA3F09000FAE0FE1B
:100FD900A3E0FF33E433FD6009C3E49EFBE49FFC17
:100FE90080048E038F049000F8E0FEA3E0FF33E451
:100FF90033FA6009C3E49EF8E49FF980048E008FF8
:10100900019000FCE8F0E9A3F08B828C83C005C055
:101019000212103AAE82AF83D002D005EA6D600C9D
:10102900C3E49EFCE49FFD8C828D83228E828F8394
:1010390022AF83E5829000FEF0EFA3F0900100E477
:10104900F0E4A3F09000FCE0FEA3E0FF7D10900027
:10105900FEE0FBA3E0FC339204ECCB25E0CB33FCB0
:101069009000FEEBF0ECA3F0900100E0FBA3E0CBD5
:1010790025E0CB33FC900100EBF0ECA3F030041237
:10108900900100E0FBA3E0FC90010074014BF0EC3F
:10109900A3F0900100E0FBA3E0FCC3EB9EEC9F40B2
:1010A9001D900100EBC39EF0EC9FA3F09000FEE0C1
:1010B900FBA3E0FC9000FE74014BF0ECA3F0DD8E85
:1010C9009000FEE0FEA3E08E82F58322B98003EA58
:1010D90013B34010EA2401FAE43BFBE43CFC50045E
:1010E9007C800582BC000EBB000BBA0008E4F5F059
:1010F900F583F58222A2D1E582138CF092F78B83D6
:101109008A8222E4F583F58275F080F4A2D1132254
:10111900E4F583F58275F0C0747F22AA82AB83124D
:1011290011FF6003A380F8C3E5829AF582E5839BEA
:10113900F5832212121B30D502B2D1BF0009BC00BF
:101149000302111902110CBC00030210F6E583B465
:10115900FF0BE582B4FF030211190210F6E582B410
:10116900FF0302110CC395835007247F400B021023
:10117900F6248014500302110CF582C3ED9AEE9BFC
:10118900EF9C40111582C3EA33F9EB33FAEC33FBD8
:10119900E433FC8005E4CCCBCAF9C08275F019C3ED
:1011A900E99DEA9EEB9FEC9400D5F002802D400E5C
:1011B900E99DF9EA9EFAEB9FFBEC9400FCC3B3E8C6
:1011C90033F8E58233F582E58333F583C3E933F9EF
:1011D900EA33FAEB33FBEC33FC80C4B3E4F938FAB5
:1011E900E43582FBE43583FCD082500405827C809F
:0611F90012128C0210ED41
:0D0031007581201212BFE582600302002ECF
:1011FF0020F71430F6148883A88220F507E6A88319
:10120F0075830022E280F7E49322E022AA82AB8367
:10121F00A2F73392D1F5826002D2F7ACF0E58124C8
:10122F00F9F8E6FD08E6FE0886F008E6A2F7339225
:10123F00D5F5836002D2F7AFF0226040F8258250D7
:10124F000274FFF582E824F8501ECCCBCAF9E4CC27
:10125F0024F85014CBCAF9E4CB24F8500BCAF9E4A4
:10126F00CA24F8500379002224086010F8C3EC1345
:10127F00FCEB13FBEA13FAE913F9D8F1227804EC2B
:10128F007011E58224F8500AF582E4C9CACBFCD864
:10129F00EF22EC7820058220E713D5820122C3E9E3
:1012AF0033F9EA33FAEB33FBEC33FCD8EA1582223D
:0412BF007582002212
:00000001FF
