:03000000020006F5
:03005F0002000399
:0300030002029066
:10006200AF83E582900000F0EFA3F0900000E0FE85
:10007200A3E0FF7C007D00C3EE9CEF64808DF06303
:10008200F08095F040147A647B011ABAFF011BEAF2
:100092004B70F70CBC00E00D80DD22E5829000027F
:1000A200F0FFC4540FFE53060F74804EF5A08EA0CD
:1000B200900001C007120062D00753070F74804FEF
:1000C200F5A08FA090000202006275A000900001CE
:1000D20012006275A002D2A790000A120062C2A7A3
:1000E20090000A12006275822812009D900001128F
:1000F200006275820112009D9000011200627582F9
:100102008012009D90000112006275820E12009D05
:10011200900001020062E582900003F0FFC4540FD8
:10012200FE53060F74A04EF5A074204EF5A0900069
:1001320001C007120062D00753070F74A04FF5A049
:1001420074204FF5A0900001020062AFF0AE83E58B
:1001520082900004F0EEA3F0EFA3F0900004E0FD23
:10016200A3E0FEA3E0FF7B007C00900004E0F8A384
:10017200E0F9A3E0FA888289838AF0C007C006C04A
:1001820005C004C003120453E5828583F0D003D076
:1001920004D005D006D00724FFF9E5F034FFFAC3F6
:1001A200E99BEA9C4052BB101DBC001A7582C0C07C
:1001B20007C006C005C004C00312009DD003D004CE
:1001C200D005D006D007EB2DF8EC3EF98F028882DD
:1001D20089838AF012046BF582C007C006C005C08D
:1001E20004C003120118D003D004D005D006D007F2
:1001F2000BBB00010C02016C22AF83E58290000769
:10020200F0EFA3F0900007E0FEA3E0FF7C007D008A
:10021200C3EC9EED9F501D758210C007C006C0053D
:10022200C00412009DD004D005D006D0070CBC003B
:10023200DF0D80DC2275820102009D7582C0020002
:100242009DE582900009F0FFC4540FFE24F6500988
:1002520090000B74372EF0800790000B74302EF054
:1002620090000BE0F582C007120118D00753070F68
:10027200EF24F6500990000A74372FF0800790009F
:100282000A74302FF090000AE0F582020118120081
:10029200CC90048B75F08012014D90000CE4F0E4D8
:1002A200A3F090000CE0FEA3E0FFC3EE9418EF640D
:1002B200809480400302033374012EF508E43FF575
:1002C20009E508C454F0FD7C0090000E7418F0E4B7
:1002D200A3F08C828D83120347AC82E583FD3395B4
:1002E200E0FBFAC005C004C003C00212023DD00206
:1002F200D003D004D0058C0079007E007F008D04ED
:100302008B058A038C82C007C006C001C00012029E
:1003120043D000D001D006D0078882120243900356
:10032200E812006290000CE508F0E509A3F0020271
:10033200A412023790049875F08012014D90138830
:0503420012006280FEC4
:10048B004D6F64756C75732054657374005465738C
:0C049B007420436F6D706C657465640024
:06003500E478FFF6D8FD9F
:100013007900E94400601B7A009004A7781875A062
:1000230000E493F2A308B8000205A0D9F4DAF2754C
:02003300A0FF2C
:10003B007800E84400600A790075A000E4F309D861
:10004B00FC7818E84400600C7901900000E4F0A300
:04005B00D8FCD9FAFA
:10034700AF83E582900010F0EFA3F0900010E0FE7D
:10035700A3E0FF33E433FD6009C3E49EFBE49FFCA5
:1003670080048E038F0490000EE0FEA3E0FF33E4C9
:1003770033FA6009C3E49EF8E49FF980048E008F86
:1003870001900012E8F0E9A3F08B828C83C005C0CE
:10039700021203B8AE82AF83D002D005EA6D600CBB
:1003A700C3E49EFCE49FFD8C828D83228E828F8323
:1003B70022AF83E582900014F0EFA3F0900016E4DB
:1003C700F0E4A3F0900012E0FEA3E0FF7D109000A0
:1003D70014E0FBA3E0FC339200ECCB25E0CB33FC2D
:1003E700900014EBF0ECA3F0900016E0FBA3E0CB39
:1003F70025E0CB33FC900016EBF0ECA3F0300012B5
:10040700900016E0FBA3E0FC90001674014BF0ECA3
:10041700A3F0900016E0FBA3E0FCC3EB9EEC9F402B
:100427001D900016EBC39EF0EC9FA3F0900014E024
:10043700FBA3E0FC90001474014BF0ECA3F0DD8EFD
:10044700900014E0FEA3E08E82F58322AA82AB839C
:1004570012046B6003A380F8C3E5829AF582E583F3
:040467009BF583225C
:0D000600758120120487E58260030200036B
:10046B0020F71430F6148883A88220F507E6A883BA
:10047B0075830022E280F7E49322E022758200224A
:00000001FF
